:020000040800F2
:1000000070080020A5010008A71500088D1300083E
:10001000A515000811020008211B000800000000BF
:10002000000000000000000000000000411A00086D
:100030001302000800000000A9150008431A000878
:10004000BF010008BF010008BF010008BF01000890
:10005000BF010008BF010008BF010008BF01000880
:10006000BF010008BF010008BF010008BF01000870
:10007000BF010008BF010008BF010008BF01000860
:10008000BF010008BF010008BF010008BF01000850
:10009000BF010008BF010008BF010008BF01000840
:1000A000BF010008BF010008BF010008BF01000830
:1000B000BF0100080000000000000000BF010008B0
:1000C000BF0100080000000000000000BF010008A0
:1000D00000000000BF010008BF0100080000000090
:1000E000BF010008BF010008000000000000000080
:1000F0000000000000000000000000000000000000
:10010000000000000000000000000000BF01000827
:100110000000000000000000BF010008BF0100084F
:10012000BF010008BF010008BF010008BF010008AF
:10013000BF010008000000000000000000000000F7
:10014000BF010008BF010008BF010008BF0100088F
:10015000BF010008BF010008BF010008BF0100087F
:10016000BF010008BF010008BF0100080000000037
:10017000BF010008BF0100080000000000000000EF
:10018000BF010008BF010008BF010008DFF810D060
:1001900000F02CF800480047611B0008AFF3008016
:1001A000700800200648804706480047FEE7FEE743
:1001B000FEE7FEE7FEE7FEE7FEE7FEE7FEE7FEE717
:1001C000DD1A00088D010008D2B201E000F8012B11
:1001D000491EFBD270470022F6E710B513460A46C7
:1001E00004461946FFF7F0FF204610BD064C074DA8
:1001F00006E0E06840F0010394E8070098471034F7
:10020000AC42F6D3FFF7C6FF6C2A00088C2A000820
:10021000FEE7704770B5044600F0E4F80546601C40
:1002200002D004480078044400F0DCF8401BA042EF
:10023000FAD370BD100000202DE9FC4FDFF880A13B
:10024000002301250AF1040B03244FF00F0C0BF1DE
:10025000040EAEE005FA03F632406FD04F68012F6E
:1002600005D0022F03D0112F01D0122F17D1D0F8B3
:1002700008905F0004FA07F829EA08090097D1F806
:100280000C8008FA07F848EA0908C0F808804768AF
:10029000B7430E79C6F300169E403E434660C668DB
:1002A0004FEA430804FA08F7BE4301978F6807FA3C
:1002B00008F73743C7604E68022E01D0122E13D1C3
:1002C000DE0800EB86060096366A5F07FF0E0CFA22
:1002D00007F926EA0906D1F8109009FA07F949EA60
:1002E0000609009EC6F820900768019EB7430E7964
:1002F00006F0030606FA08F63E4306604E68F6006E
:1003000056D5304E376E47F001073766366E23F00C
:10031000030706F0010600962B4E3E44B146B66830
:100320009F074FEA17780CFA08F7BE43B0F1904FD9
:1003300005D0264FB84204D1012708E038E0002755
:1003400005E0234FB84201D1022700E0072707FA52
:1003500008F73743C9F80870DAF800605746D1F853
:10036000048096435FEAC83800D516433E60DBF848
:1003700000605F46D1F8048096435FEA883800D574
:1003800016433E60DEF800607746D1F8048096435D
:100390005FEAC82800D516433E60094F0C373E6817
:1003A000D1F8048096435FEA882800D516433E6062
:1003B0005B1C0A6832FA03F67FF44CAF00F00AB80F
:1003C0000004014000100240000001400004004809
:1003D000000800481CBCBDE8E08F0069084000D060
:1003E000012070470148806870470000100000201D
:1003F00090F84120202A24D190F84020012A20D0D2
:10040000012280F84020242280F8412002681368ED
:1004100023F0010313600268136823F48053136010
:10042000026813680B43136001680A6842F0010216
:100430000A60202180F84110002180F84010084611
:1004400070470220704790F84120202A22D190F86E
:100450004020012A1ED0012280F84020242280F86A
:1004600041200268136823F00103136002681368D7
:1004700023F4706343EA0121116001680A6842F0C5
:1004800001020A60202180F84110002180F840100C
:10049000084670470220704770B5040004D094F8F5
:1004A0004100002510B106E0012070BD84F84050E5
:1004B000204600F079F9242084F841002068016882
:1004C00021F0010101606068216820F0706008611E
:1004D0002068816821F400418160E0680128A068FB
:1004E00007D040F4044021688860E068022803D007
:1004F00006E040F40040F6E721684FF400604860F1
:1005000020684168114A114341602068C16821F4A4
:100510000041C160D4E904010843A16940EA012017
:100520002168C860D4E90701084321680860206891
:10053000016841F0010101606564202084F84100F8
:10054000256384F84250002070BD00000080000246
:100550002DE9FC4700260446019690F841001F460D
:100560009246894620287ED120688069C0430004D5
:1005700079D594F84000012875D0012084F8400016
:10058000242084F8410066644FF02008E0680128C8
:1005900009D029F4544040F4205021684860FFF706
:1005A00021FF05460DE0314949EA01003049084084
:1005B000F3E7781C05D0FFF715FF401BB84219D8A8
:1005C000C7B1216888698969C0F34010C1F300117F
:1005D0000843EED0206880693B46C043C0064FF018
:1005E00000024FF020012046009517D500F038FF9B
:1005F00068BB09E084F8418054F8440F40F02000C3
:1006000044F80409267022E02168C1F81C8084F8AF
:10061000418084F84060002000F02CB800F020FFFA
:10062000A8B921681020C8612168C1F81C80019810
:10063000504512D12068416841F4804141603B46F9
:10064000002220212046009500F00AFF10B1012071
:10065000E2E708E02168C1F81C800198401C019085
:10066000504593D3C6E70220D6E7000000200002E1
:10067000FF2300020CBCBDE8F08700002DE9F84F15
:10068000044690F84100DDF828A01F4690468B46AE
:1006900020287ED194F8400001287AD0012084F8E7
:1006A0004000FFF79FFE0646012200901923D10368
:1006B000204600F0D5FEE0BB212084F84100102048
:1006C00084F8420000256564C4F82480678565636A
:1006D000618D3148FF274FF080784FF00079FF2976
:1006E00003D927853A46009039E0618D2185009035
:1006F0003AE05946204600F09DFE13E000F002FF6C
:10070000B8B9606A216800788862606A401C6062DB
:10071000608D401E6085208D401E80B22085618DD9
:1007200001B168B1608D3246002851462046E5D1BE
:1007300000E002E000F0C0FED0B1012000F030B8CF
:100740005346002280212046009600F089FE0028B2
:10075000F3D1608DFF2804D927853A46009543469A
:10076000C7E7608D2085009594F828204B46C0E7A8
:1007700021682020C86121684A68084B1A404A60F5
:1007800084F8410084F8425084F840500020D5E7B6
:10079000FFE70220D2E700000020008000E800FE12
:1007A00018BCBDE8E08F000010B586B004461421E7
:1007B0006846FFF710FD13492068884220D1124C8B
:1007C000E06C40F00100E064E06C694600F001007C
:1007D00005904FF4C060009012200190012002901B
:1007E00003200390042004904FF09040FFF724FD75
:1007F000A06D40F40010A065A06D00F400100590FD
:1008000006B010BD0054004000100240024881684C
:1008100002781144816070471000002010B5002458
:10082000032000F063F8002000F008F808B101246C
:1008300001E000F025F8204610BD000070B50E4E16
:1008400005460024307898B14FF47A71B1FBF0F08E
:100850000A490968B1FBF0F000F084FD40B9102DA1
:1008600006D200222946501E00F020F8756000E0F4
:100870000124204670BD0000100000201C00002054
:10088000094808B5016E41F001010166016E01F0F1
:1008900001010091816D41F080518165806D00F012
:1008A0008050009008BD000000100240F0B40E4BD4
:1008B0001B680C46C3F30223C3F10705042D00D9BE
:1008C0000425191D072901D2002300E0DB1E0126A3
:1008D00006FA05F1491E214099409E40761E1640B9
:1008E0003143F0BC01F01DB90CED00E0064900F009
:1008F000070208684FF6FF03184040EA0220034A47
:1009000010430860704700000CED00E00000FA059D
:100910001649B0F5007F0868C0F3412009D00228CD
:1009200005D0086820F4C06040F4806008600020B2
:1009300070470128FBD0086820F4C06040F40070C4
:1009400008600B483222006850430A4AB0FBF2F0BC
:10095000401C00E0401E4A69520501D50028F9D12B
:1009600048694005E3D5032070470000007000404F
:100970001C00002040420F000248006800F4C060E4
:1009800070470000007000400248016841F4807127
:1009900001607047007000400248016841F00401A6
:1009A00001607047001002402DE9F84F044600270F
:1009B00000889C4D3E46000515D5E06B60B1B0F552
:1009C000000F04D0B0F5400F2BD001270AE0E868F3
:1009D00040F48030E86024E00021201D00F0E6FDB6
:1009E00007001ED03E462068800338D5A86D4FF022
:1009F0000008C00009D4A86D40F08050A865A86D1B
:100A00004FF0010800F080500090DFF81CA2DAF8E7
:100A1000001041F48071CAF80010FFF7E3FC814632
:100A200010E0D5F88800E16B20F440000843C5F8D9
:100A30008800D8E7FFF7D6FCA0EB0900022801D90F
:100A4000032704E0DAF80000C005F3D5EFB33E4613
:100A5000B8F1000F03D0A86D20F08050A865207871
:100A6000C00707D0D5F88800216A20F003000843AA
:100A7000C5F888002078800707D5D5F88800616A16
:100A800020F00C000843C5F888002078800607D5C0
:100A9000D5F88800A16A20F440600843C5F88800B2
:100AA0002088800507D5D5F88800616B20F44020A8
:100AB0000843C5F888002088400509D5D5F8880086
:100AC000A16B20F44010084300E02EE0C5F8880038
:100AD0002078400607D5D5F88800E16A20F4405018
:100AE0000843C5F888002088C00507D5D5F88800D8
:100AF000216B20F440300843C5F8880020884FF06F
:100B0000006780044FF080684ED5D5F88800216CCE
:100B100020F040600843C5F88800206CB8423BD103
:100B2000E86840F48010E8603EE0D5F8900010F4EA
:100B3000407014D0216D814211D0D5F89000D5F8C5
:100B4000901020F4407041F48031C5F89010D5F831
:100B5000901021F48031C5F89010C5F89000C007BE
:100B600011D0FFF73FFC074641F2883907E000BF8C
:100B7000FFF738FCC11B494501D9032668E7D5F8C2
:100B800090008007F4D5D5F89000216D20F44070D6
:100B90000843C5F890005BE7404505D10121201DC1
:100BA00000F004FD00B106462068400317D5D5F8D3
:100BB0008800616C20F040600843C5F88800606CD4
:100BC000B84204D1E86840F48010E86007E040458E
:100BD00005D10121201D00F0E9FC00B10646208866
:100BE000400411D5D5F88800A16C20F0405008438E
:100BF000C5F88800A06CB0F1805F05D10221201DEE
:100C000000F0D4FC00B106462088000406D555F853
:100C1000880FE16C20F0804008432860304600F0E7
:100C200005B80000001002400070004018BCBDE88C
:100C3000E08F00002DE9F0470F46050058D0404EE8
:100C4000306800F00700B84209D2306820F0070091
:100C500038433060306800F00700B84248D1287847
:100C6000384CC0072CD06868032811D0022812D055
:100C7000216898B1490500293ADAA16821F00301F9
:100C80000143A160FFF7AEFB804641F2883910E0D6
:100C900021688901EFE721688903ECE78907EAE722
:100CA000FFF7A0FBA0EB0801494502D90320BDE8EE
:100CB000F087A068696800F00C00B0EB810FEFD1FD
:100CC0002878800705D5A068A96820F0F0000843BF
:100CD000A060306800F00700B8420BD9306820F0FF
:100CE000070038433060306800F00700B84201D098
:100CF0000120DCE72878400705D5A068E96820F4E2
:100D0000E0600843A0602878000706D5A06829693C
:100D100020F4605040EAC100A06000F01BF8A16818
:100D2000094AC1F30311515C01F01F01C840074992
:100D3000086007480068BDE8F047FFF77FBD000086
:100D400000200240001002402C2A00081C00002055
:100D50001400002070B52549002318468A68CC6825
:100D600012F00C0204F00306214C4FEA640509D08E
:100D70000C2A05D0042A32D0082A00D1284670BD9A
:100D8000012E10D10B681B0704D4D1F89430C3F3A3
:100D9000032302E00B68C3F30313164E56F8233007
:100DA000DAB10C2AEBD1C86800F00300022818D091
:100DB000032818D01846CA68CB68C2F30212C3F3DE
:100DC00006234343521CB3FBF2F2C868C0F34160F0
:100DD000401C4000B2FBF0F070BD184670BD2046CC
:100DE00070BD2046E7E72846E5E700000010024016
:100DF0000024F4003C2A00082DE9F84304006FD0D9
:100E0000FE4DA86800F00C06E86800F003072078A3
:100E1000C00664D576B10C2E01D1012F0AD0A0698D
:100E2000002828687AD040F001002860FFF7DAFA3D
:100E300080465DE02868800702D5A0690028DED0E2
:100E4000216A2868000703D5286800F0F00004E054
:100E5000D5F89400F02202EA1010814216D9084613
:100E600000F03AFC00283BD1286840F008002860D8
:100E70002868216A20F0F000084328606868E1696A
:100E800020F47F4040EA0120686016E0286840F0C6
:100E9000080028602868216A20F0F00008432860D4
:100EA0006868E16920F47F4040EA0120686026B963
:100EB000206A00F011FC0028D5D1FFF74BFFA9688C
:100EC000CF4AC1F30311515C01F01F01C840CD4965
:100ED0000860CD480068FFF7B1FC00287ED12EE005
:100EE000CAE000BFFFF77EFAA0EB0800022876D820
:100EF00028688007F6D5286840F008002860286830
:100F0000216A20F0F000084328606868E16920F455
:100F10007F4040EA0120686011E0FFE720F0010017
:100F20002860FFF75FFA804606E000BFFFF75AFA35
:100F3000A0EB08000228DAD828688007F6D42078C9
:100F4000C00740D0082E18D00C2E01D1032F14D08A
:100F50006068B0F5803F17D0B0F5A02F286817D093
:100F600020F480302860286820F4802028606068A1
:100F7000E0B1FFF737FA804614E02868800322D5F5
:100F80006068002878D01EE0286840F48030EDE7E3
:100F900040F480202860F7E7FFF724FAA0EB080070
:100FA0006428A4D828688003F6D50CE0FFF71AFA65
:100FB000804605E0FFF716FAA0EB0800642896D8F3
:100FC00028688003F6D4207880073BD5042E11D002
:100FD0000C2E01D1022F0DD0E06801E0B6E1FFE058
:100FE000002828681ED040F480702860FFF7FAF9C6
:100FF00007460CE0286840050CD5E0680028C1D001
:1010000008E000BFFFF7EEF9C01B022893D828685C
:101010004005F7D56868217C20F0FE4040EA016079
:1010200068600FE020F480702860FFF7DBF9074666
:1010300005E000BFFFF7D6F9C01B0228B1D8286829
:101040004005F7D42078000729D560690028D5F835
:10105000940012D040F00100C5F89400FFF7C2F9E7
:10106000074604E0FFF7BEF9C01B022899D8D5F85F
:1010700094008007F6D512E02BE120F00100C5F8BE
:101080009400FFF7AFF9074605E000BFFFF7AAF9A4
:10109000C01B022885D8D5F894008007F6D42078A4
:1010A000400766D5A86D0027C00008D4A86D40F0A1
:1010B0008050A865A86D012700F08050009053482B
:1010C0000168C90512D40168814641F4807101604C
:1010D000FFF788F9804605E0FFF784F9A0EB0800E8
:1010E00002287DD8D9F80000C005F5D5A0680128F0
:1010F00016D00528D5F8900017D020F00100C5F8CB
:101100009000D5F8900020F0040000BFC5F89000D2
:10111000A06841F28839C0B1FFF764F980460FE05A
:10112000D5F8900040F00100F0E740F00400C5F869
:101130009000F5E7FFF756F9A0EB080149454FD8B5
:10114000D5F890008007F5D50EE0FFF74BF9804603
:1011500006E000BFFFF746F9A0EB080149453FD87C
:10116000D5F890008007F5D41FB1A86D20F080500D
:10117000A8652078800628D5606A0028D5F89800F0
:1011800012D040F00100C5F89800FFF72BF9074690
:1011900005E000BFFFF726F9C01B022820D8D5F8CC
:1011A00098008007F6D510E020F00100C5F89800FF
:1011B000FFF718F9074604E0FFF714F9C01B0228EF
:1011C0000ED8D5F898008007F6D4A06AA8B10228F6
:1011D00024D00C2E7DD0286820F08070286000E09C
:1011E000B3E02868000103D4E86820F00300E86059
:1011F000E86807490840E8600CE09FE00010024002
:101200002C2A00081C000020140000200070004060
:10121000FFFFEEFEFFF7E6F8044699E0E868E26AB1
:1012200000F00301914226D1216B00F07002090108
:10123000103991421FD1626B00F4FE41B1EB022FD5
:1012400019D194F8382000F07841B1EBC26F12D177
:10125000A18F00F4C00249084905A1F5001191428F
:1012600009D194F8401000F0C06049084906A1F186
:10127000007181424BD00C2E6FD0286840016CD495
:10128000286820F080702860FFF7ACF8064604E07C
:10129000FFF7A8F8801B022857D828688001F7D4E8
:1012A000F4E90B016FF00F0202EB01110843218AF0
:1012B0005204490802EB4151A26841EA0221084365
:1012C000217D4FF07E42490802EB41610843217BBA
:1012D00000E042E040EAC160E968214A1140084369
:1012E000E860286840F080702860E86840F080700E
:1012F000E860FFF777F8044605E000BFFFF772F8F3
:10130000001B022821D828688001F7D523E028682F
:10131000800120D4286840F080702860E86840F0A0
:101320008070E860FFF75EF8044604E0FFF75AF8C3
:10133000001B022809D828688001F7D50BE000BF00
:10134000FFF750F8001B022802D90320BDE8F883FC
:1013500028688001F4D40020F8E70120F6E70000B7
:101360008C809D0110B5401EB0F1807F01D301201B
:1013700010BD4FF0E02460610F21601700F0D1FB39
:101380000020A06107202061002010BDFEE7016859
:101390008A69D243920701D400228A620068816977
:1013A000C943C90703D0816941F0010181617047D8
:1013B0002DE9F0410446006890460E468069C0431E
:1013C000C00633D40025202720688069C0438006EA
:1013D00015D5701CF8D0FFF705F8A0EB0800B04257
:1013E00001D8002EF0D154F8440F40F0200044F80A
:1013F00004096770A57025700120BDE8F08121689F
:101400001020C8612068C7612046FFF7C0FF54F86C
:10141000440B4168064A11404160206840F00400D6
:1014200044F820096777A5772577E5E70020E4E70A
:1014300000E800FEF0B50568059C68684FF480661A
:10144000064FC1F3090106EA545641EA02413E4300
:101450001943B043214308436860F0BDFF63FF03B5
:101460002DE9F0411D4617460E460446DDF818806A
:1014700008E0681C06D0FEF7B5FFA0EB0800A84204
:101480000BD855B12068806936EA000012D00020E0
:10149000B842EED00020BDE8F08154F8440F40F08F
:1014A000200044F80409202060700020A070207003
:1014B0000120F0E70120EBE770B516460D46044623
:1014C0000DE0324629462046FFF772FF08B10120A1
:1014D00070BDFEF787FF801BA84207D835B1206892
:1014E0008069C0438006ECD4002070BD54F8440FDE
:1014F00040F0200044F80409202060700020A07013
:101500002070E4E770B516460D4604460FE03246FB
:1015100029462046FFF74CFF08B1012070BD681C2A
:1015200005D0FEF75FFF801BA84207D835B12068C1
:101530008069C0438007EAD4002070BD54F8440F8E
:1015400040F0200044F80409202060700020A070C2
:101550002070E2E7124810B5104901600421416093
:1015600000210122C0E90212016141618161C16172
:101570000162FEF791FF08B172B6FEE7002108484C
:10158000FEF736FF08B172B6FEE700210448FEF709
:101590005AFF002801D072B6FEE710BD005400408B
:1015A00020040020FEE7FEE7704700002DE9F0412F
:1015B000444C05468846E0680026810728680DD01F
:1015C000E16801F00301814216D1A8B1E0686968C1
:1015D000C0F30210401C88420ED120E0012804D044
:1015E000022805D0032807D108E02168890701E017
:1015F00021684905002907DB01265FE0216889038E
:1016000002D421684903F5E7E1686A686FF00F03C7
:1016100021F0730103EB021211430143E1602068E2
:1016200020F080602060FEF7DDFE074605E000BF89
:10163000FEF7D8FEC01B022837D820680001F7D477
:10164000B8F1000F18D0B8F1010F1DD0287D4FF070
:101650007E41400801EB4060A96840EA0120216911
:10166000194A114008432061206840F080602060E2
:10167000FEF7B8FE07461AE0A868297B000240EA98
:10168000C1602169114AECE7288A1149400801EB41
:101690004050A96840EA012021690E4AE1E700BFF5
:1016A000FEF7A0FEC01B022801D9032606E0206831
:1016B0000001F5D52069A969084320613046BDE8DD
:1016C000F081000000100240FF80FFF9FF80FF075B
:1016D0000000E0FFFF809FFFF8B51C4D0646002488
:1016E000A86DC00002D5FFF747F90DE0A86D40F0E6
:1016F0008050A865A86D00F080500090FFF73CF97D
:10170000A96D21F08051A965B0F5007F04D0802E2D
:1017100007D94FF003040AE0802E08D9A02E01D883
:1017200004E001D1022402E0702E00D10124084817
:10173000016821F0070121430160006800F0070003
:10174000A04201D00120F8BD0020F8BD00100240E9
:101750000020024010B5002000F024F8BDE8104041
:1017600000F04AB970B5802813D2402911D20B4B32
:10177000012401F007051E79AC40094BC90800EBB4
:10178000C1100EB132B101E0012A03D0195CA143AE
:10179000195470BD195C2143FAE7000008000020CD
:1017A0002000002028B1FF224FF480610248FEF79C
:1017B0000BBD0022F8E7000020000020014A108045
:1017C000518070470800002010B500F04FFA44F631
:1017D0002063012278215448FEF7BAFE08B10020A8
:1017E00010BD40F6C210401EFDD1AE22002178206F
:1017F00000F042FA20220021782000F03DFA102269
:101800000021782000F038FAB0220021782000F082
:1018100033FAC8220021782000F02EFA0022114667
:10182000782000F029FA10220021782000F024FA14
:1018300040220021782000F01FFA81220021782028
:1018400000F01AFAFF220021782000F015FAA122F8
:101850000021782000F010FAA6220021782000F064
:101860000BFAA8220021782000F006FA3F2200217E
:10187000782000F001FAA4220021782000F0FCF981
:10188000D3220021782000F0F7F9002211467820B9
:1018900000F0F2F9D5220021782000F0EDF9F022D5
:1018A0000021782000F0E8F9D9220021782000F00A
:1018B000E3F922220021782000F0DEF9DA2200216B
:1018C000782000F0D9F912220021782000F0D4F914
:1018D000DB220021782000F0CFF92022002178209F
:1018E00000F0CAF98D220021782000F0C5F91422F9
:1018F0000021782000F0C0F9AF220021782000F00C
:10190000BBF92E220021782000F0B6F90020FFF765
:1019100049FF00F071F80548002101804180012154
:101920004171084610BD000020040020080000207E
:101930002DE9F047814625480D46924601882A78D0
:101940001144802905D2804640886978084440289F
:1019500002D30020BDE8F08700262AE0A9F120018B
:1019600011FB00606A68002432F810701DE000BFAF
:1019700007FA04F0000409D5B8F80210B8F800001E
:101980003144204489B280B252460BE0BAF1000FD4
:101990001AD00022B8F80210B8F8000031442044F0
:1019A00089B280B2FFF7DEFE641C2878A042DFD83F
:1019B000761C6878B042D1D8B8F800102A7848462A
:1019C0001144A8F80010C5E70122E3E70800002051
:1019D00070B515460E46044609E02A463146FFF723
:1019E000A7FF2178884201D0C8B270BD641C20785E
:1019F0000028F2D1C0B270BD70B5104D002400BFF8
:101A000004F1B000C2B20021782000F035F90022C4
:101A10001146782000F030F910220021782000F0E3
:101A20002BF905EBC41280234021782000F034F913
:101A3000641CE4B2082CE3D370BD00002000002039
:101A40007047FEF7E3BE000010B5ACB04421684615
:101A5000FEF7C1FB142126A8FEF7BDFB542111A8F7
:101A6000FEF7B9FBFEF790FF1B4850F8901F21F0DE
:101A70001801016014200090012000240290CDE99B
:101A80000604602008900A946846FFF7B5F908B18B
:101A900072B6FEE70F20CDE9260428942994002190
:101AA00026A82A94FFF7C6F808B172B6FEE74020D0
:101AB00011901C9411A8FEF777FF08B172B6FEE7EB
:101AC0004FF40070FEF724FF08B172B6FEE7FEF790
:101AD00063FF2CB010BD0000001002400D480168EB
:101AE00041F4700101600C48016841F0010101609E
:101AF000002181600268094B1A4002608214C260B2
:101B0000026822F48022026081610249C0038039A8
:101B10000860704788ED00E000100240FFFFF6EA21
:101B2000FEE70907090E002804DB00F1E02080F839
:101B30000014704700F00F0000F1E02080F8141D41
:101B4000704702E008C8121F08C1002AFAD1704786
:101B50007047002001E001C1121F002AFBD170472D
:101B600086B0FEF75BFEFFF76FFF14216846FEF7B5
:101B700032FB3748C16C41F00401C164C16C01F013
:101B800004010591C16C41F00101C164C06C4FF0CA
:101B9000904400F001000590012000900020019089
:101BA000029069462046FEF747FBFFF7D3FCFFF79C
:101BB0000BFEFFF7CFFD0020FFF7F4FDFFF71CFF42
:101BC00000210846FFF7FAFD0122224922A0FFF773
:101BD000FFFEFFF711FF4FF4FA7500BFFFF7BAFDE4
:101BE00001212046FEF7F9FBE0B1FFF7B3FDFFF757
:101BF00003FF00210846FFF7E1FD0122154918A067
:101C0000FFF7E6FE1E210020FFF7D8FD1149012253
:101C100014A000BFFFF7DCFEFFF7EEFE2846FEF73C
:101C2000F9FADBE7FFF796FDFFF7E6FE002108462D
:101C3000FFF7C4FD0122074909A0FFF7C9FE1E21D5
:101C40000020FFF7BBFD0122024907A0E2E70000E8
:101C5000001002400000002048454C4C4F0000009E
:101C60005031000045000000460000000148401EC1
:101C7000FDD1704790D003001CB502238DF80410ED
:101C80000A2100918DF80520014601AA0148FEF7BE
:101C9000F5FC1CBD2004002070B5C2B000248DF8F6
:101CA000041001A904E0155D0E19641C7570E4B2FE
:101CB0009C42F8D30A2100915B1C01469BB201AA09
:101CC0000248FEF7DBFC42B070BD0000200400209B
:101CD0000000000000000000000000000000000004
:101CE00000000000000000000000000000000000F4
:101CF000000000000000000C000C000C000C000CA8
:101D0000000C000C000C000C000C000C0000000C7F
:101D1000000C0000000000000000001B001B001B66
:101D2000001B001B0000000000000000000000007D
:101D3000000000000000000000000000000080190A
:101D4000801980198019C07FC07F80190033C07F3F
:101D5000C07F003300330033003300000000000078
:101D60000000001E003F807580650074003C001E6E
:101D700000078005806580658075003F001E0004B7
:101D8000000400000000007000D840D8C0D880D9FE
:101D900000730006000C801BC036C066C046C0063B
:101DA00080030000000000000000001E003F003320
:101DB00000330033001E000CC03CC06680638061AD
:101DC0008063C03E801C0000000000000000000C8A
:101DD000000C000C000C000C0000000000000000D3
:101DE00000000000000000000000000000000000F3
:101DF000800000010003000600060004000C000C37
:101E0000000C000C000C000C00040006000600038F
:101E100000018000002000100018000C000C0004DD
:101E20000006000600060006000600060004000C7E
:101E3000000C0018001000200000000C002D003FD6
:101E4000001E003300000000000000000000000041
:101E50000000000000000000000000000000000082
:101E60000000000C000C000C000CC0FFC0FF000CB8
:101E7000000C000C000C000000000000000000003E
:101E80000000000000000000000000000000000052
:101E900000000000000000000000000C000C000426
:101EA0000004000800000000000000000000000026
:101EB000000000000000001E001E000000000000E6
:101EC0000000000000000000000000000000000012
:101ED0000000000000000000000000000000000002
:101EE0000000000C000C00000000000000000003D7
:101EF000000300030006000600060006000C000CAC
:101F0000000C000C00180018001800000000000071
:101F10000000001E003F0033806180618061806DA1
:101F2000806D8061806180610033003F001E000091
:101F30000000000000000006000E001E0036002613
:101F40000006000600060006000600060006000661
:101F500000060000000000000000001E003F80732B
:101F600080618061800100030006000C00180030D1
:101F70000060807F807F0000000000000000001CE7
:101F8000003E006300630003000E000E00038001AA
:101F9000800180618073003F001E0000000000008F
:101FA00000000006000E000E001E001E0016003687
:101FB00000360066807F807F000600060006000075
:101FC000000000000000007F007F006000600060F3
:101FD000006E007F80638001800180618073003F1C
:101FE000001E0000000000000000001E003F8033C3
:101FF00080610060006E007F80738061806180611D
:102000008033003F001E0000000000000000807FC1
:10201000807F80010003000300060006000C000C16
:10202000000C000800180018001800000000000054
:102030000000001E003F8063806180610021001E5F
:10204000003F8061806180618061003F001E000070
:10205000000000000000001E003F007380618061EE
:1020600080618073803F801D800180610073003F2C
:10207000001E000000000000000000000000000042
:102080000000000C000C0000000000000000000038
:102090000000000C000C0000000000000000000028
:1020A0000000000000000000000C000C0000000018
:1020B000000000000000000C000C000400040008F8
:1020C000000000000000000080008003000E0038C7
:1020D00000600038000E8003800000000000000057
:1020E0000000000000000000000000000000807FF1
:1020F000807F00000000807F807F000000000000E3
:1021000000000000000000000000000000000000CF
:1021100000400070001C000780010007001C0070D8
:102120000040000000000000000000000000001F50
:10213000803FC071C060C000C00180030007000E76
:10214000000C000C0000000C000C0000000000005F
:102150000000001E003F803180718063806F806DC1
:10216000806D806F806700600032003E001C0000C0
:10217000000000000000000E000E001B001B001BF2
:10218000001B80318031803F803F8031C060C06063
:10219000C0600000000000000000007C007E0063C2
:1021A000006300630063007E007E006380618061E5
:1021B0008063007F007E0000000000000000001E21
:1021C000003F80318061006000600060006000605E
:1021D000006080618031003F001E000000000000B0
:1021E0000000007C007F006380638061806180610B
:1021F00080618061806100630063007E007C00007C
:10220000000000000000807F807F006000600060B0
:102210000060007F007F0060006000600060807FE1
:10222000807F0000000000000000807F807F006051
:10223000006000600060007F007F00600060006060
:102240000060006000600000000000000000001E50
:10225000003F8031806100600060006080638063C7
:10226000806180618031803F001E0000000000001E
:102270000000806180618061806180618061807F19
:10228000807F806180618061806180618061000009
:10229000000000000000003F003F000C000C000C9C
:1022A000000C000C000C000C000C000C000C003F9B
:1022B000003F00000000000000008001800180015C
:1022C0008001800180018001800180018061806146
:1022D0008073003F001E0000000000000000C0608E
:1022E0008061006300660066006C0078007C006618
:1022F0000066006380618061C06000000000000033
:10230000000000600060006000600060006000602D
:1023100000600060006000600060807F807F0000DF
:10232000000000000000C071C071C07BC07AC06AAC
:10233000C06AC06EC064C060C060C060C060C06081
:10234000C060000000000000000080718071807992
:1023500080798079806D806D806D80658067806711
:102360008067806380630000000000000000001EA2
:10237000003F0033806180618061806180618061A5
:10238000806180610033003F001E000000000000FB
:102390000000007E007F80638061806180618063D7
:1023A000007F007E00600060006000600060000050
:1023B000000000000000001E003F003380618061CB
:1023C0008061806180618061806580670033803FCB
:1023D000401E0000000000000000007E007F8063BF
:1023E000806180618063007F007E0066006300631F
:1023F00080618061C0600000000000000000000EED
:10240000001F8031803100300038001E000780033B
:10241000806180618031003F001E000000000000EC
:102420000000C0FFC0FF000C000C000C000C000CF2
:10243000000C000C000C000C000C000C000C000048
:102440000000000000008061806180618061806127
:102450008061806180618061806180618073003F04
:10246000001E0000000000000000C060C060C060EE
:10247000803180318031001B001B001B001B000ECF
:10248000000E000E00040000000000000000C0C0AC
:10249000C0C0C0C0C0C0C0C0C0CC804C804C805E3A
:1024A00080528052807380618061000000000000D3
:1024B0000000C0C0806080610033003B001E000C43
:1024C000000C001E001F003B80718061C0C0000036
:1024D000000000000000C0C0806180610033003354
:1024E000001E001E000C000C000C000C000C000C68
:1024F000000C0000000000000000803F803F8001D1
:10250000000300030006000C000C00180018003047
:102510000060807F807F000000000000000F000F3F
:10252000000C000C000C000C000C000C000C000C4B
:10253000000C000C000C000C000C000C000F000F35
:102540000000001800180018000C000C000C000C13
:10255000000600060006000600030003000300005A
:1025600000000000001E001E000600060006000617
:10257000000600060006000600060006000600062B
:1025800000060006001E001E0000000C000C001ECD
:102590000012003300338061806100000000000001
:1025A000000000000000000000000000000000002B
:1025B000000000000000000000000000000000001B
:1025C000000000000000000000000000E0FF00002C
:1025D000000000380018000C00000000000000009F
:1025E00000000000000000000000000000000000EB
:1025F0000000000000000000000000000000001FBC
:10260000803F80618001801F803F80618063807F88
:10261000C0380000000000000000006000600060A2
:102620000060006E007F80738061806180618061E6
:102630008073007F006E00000000000000000000BA
:10264000000000000000001E003F807380610060F9
:10265000006080618073003F001E000000000000E9
:1026600000008001800180018001801D803F807317
:1026700080618061806180618073803F801D000087
:102680000000000000000000000000000000001E2C
:10269000003F00738061807F807F00608071003F19
:1026A000001E0000000000000000C007C00F000C6A
:1026B000000C807F807F000C000C000C000C000CD4
:1026C000000C000C000C00000000000000000000E6
:1026D00000000000801D803F807380618061806108
:1026E00080618073803F801D80018063007F003E99
:1026F00000000060006000600060006F807F8071FB
:1027000080618061806180618061806180610000A2
:102710000000000000000006000600000000003E6F
:10272000003E000600060006000600060006000641
:102730000006000000000000000600060000000087
:10274000003E003E000600060006000600060006E9
:102750000006000600060046007E003C0000006007
:10276000006000600060806100630066006C007CB7
:102770000076006300638061C0600000000000001C
:102780000000003E003E00060006000600060006AF
:10279000000600060006000600060006000600000F
:1027A000000000000000000000000000000080DDCC
:1027B000C0FFC0CEC0CCC0CCC0CCC0CCC0CCC0CC84
:1027C000C0CC00000000000000000000000000007D
:1027D0000000006F807F8071806180618061806116
:1027E0008061806180610000000000000000000046
:1027F000000000000000001E003F807380618061C7
:10280000806180618073003F001E000000000000B6
:102810000000000000000000006E007F80738061F7
:102820008061806180618073007F006E0060006065
:10283000006000600000000000000000801D803F7C
:10284000807380618061806180618073803F801DC2
:102850008001800180018001000000000000000074
:1028600000000067803F0039003000300030003049
:1028700000300030003000000000000000000000C8
:10288000000000000000001E803F80610060007FAB
:10289000803F80018061007F001E0000000000007A
:1028A00000000000000800180018007F007F0018DA
:1028B00000180018001800180018801F800F000072
:1028C0000000000000000000000000000000806127
:1028D0008061806180618061806180618063807FD0
:1028E000803D00000000000000000000000000002B
:1028F0000000C060803180318031001B001B001B54
:10290000000E000E000600000000000000000000A5
:1029100000000000000080DD80DD80DD00550055F6
:102920000055007700770022002200000000000020
:102930000000000000000000000080610033003350
:10294000001E000C000C001E0033003380610000EC
:1029500000000000000000000000000080618061B5
:10296000803100330033001B001B001B000E000EE3
:10297000000E001C007C0070000000000000000041
:102980000000C07FC07F800100030006000C00181B
:102990000030C07FC07F000000000000800380077F
:1029A00000060006000600060006000E001C001CC3
:1029B000000E0006000600060006000680078003E1
:1029C00000060006000600060006000600060006D7
:1029D00000060006000600060006000600060006C7
:1029E000000600060038003C000C000C000C000C37
:1029F000000C000E00070007000E000C000C000C7D
:102A0000000C000C003C003800000000000000003A
:102A10000000000000008038807F004700000000B8
:102A200000000000000000000000000000000000A6
:102A3000000000000102030406070809A086010047
:102A4000400D0300801A060000350C0040420F00C4
:102A500080841E0000093D0000127A000024F4006A
:102A600000366E010048E801006CDC028C2A000888
:102A70000000002020000000421B0008AC2A0008D3
:102A80002000002050080000521B00080B1200001C
:102A9000D01C000800000000000000000100000041
:0C2AA000100000000000000000093D00D4
:040000050800018D61
:00000001FF
