:020000040800F2
:100000006826002085020008731C0008AF1900084C
:10001000711C0008BD030008A527000800000000AF
:10002000000000000000000000000000A501000822
:10003000BF0300080000000001020008852200083C
:100040009F0200089F0200089F0200089F0200080C
:100050009F0200089F0200089F0200089F020008FC
:100060009F0200089F0200089F0200089F020008EC
:100070009F0200089F0200089F0200089F020008DC
:100080009F0200089F0200089F0200089F020008CC
:100090009F0200089F0200089F0200089F020008BC
:1000A0009F020008852300089F0200089F020008A5
:1000B0009F02000800000000000000009F020008EE
:1000C0009F02000800000000000000009F020008DE
:1000D000000000009F0200089F02000800000000CE
:1000E0009F0200089F0200080000000000000000BE
:1000F0000000000000000000000000000000000000
:100100000000000000000000000000009F02000846
:1001100000000000000000009F0200089F0200088D
:100120009F0200089F0200089F0200089F0200082B
:100130009F02000800000000000000000000000016
:100140009F0200089F0200089F0200089F0200080B
:100150009F0200089F0200089F0200089F020008FB
:100160009F0200089F0200089F0200080000000094
:100170009F0200089F02000800000000000000002D
:100180009F0200089F0200089F020008DFF810D0BD
:1001900000F002F900480047E5270008AFF30080AF
:1001A000682600202C4B1968086800F05AB880F3C4
:1001B0000988BFF36F8F4FF0000080F311887047FC
:1001C0000000000008480068006880F308884FF0CD
:1001D000000080F3148862B661B6BFF34F8FBFF39F
:1001E0006F8F00DF00BF00BF08ED00E0DFF80C00FC
:1001F000016841F470010160704700BF88ED00E0C4
:10020000EFF30980BFF36F8F134B1A681EF0100FC6
:1002100008BF20ED108A20E9F04F106009B44FF0BC
:10022000500080F31188BFF34F8FBFF36F8F03F03F
:1002300029FC4FF0000080F3118809BC1968086898
:1002400000F014B81EF0100F08BF00F014B880F3CF
:100250000988BFF36F8F704754000020EFF30580CB
:10026000704730C8B0E8C04FFFF7A1BF30C8B0E852
:10027000C04FFFF7E7BFB0EC088AB0EC08CAFFF741
:10028000E6BF00000648804706480047FEE7FEE755
:10029000FEE7FEE7FEE7FEE7FEE7FEE7FEE7FEE736
:1002A000492300088D0100082DE9F05F0546002074
:1002B00092469B4688460646814640241BE02846D7
:1002C00041464746224600F056F853465A46C01A61
:1002D000914110D311461846224600F03DF82D1AE0
:1002E00067EB01084F4622460120002100F034F858
:1002F00017EB00094E41201EA4F10104DFDC484643
:1003000031462A46434600F000B830BCBDE8C09FE5
:1003100040EA01039B0703D009E008C9121F08C087
:10032000042AFAD203E011F8013B00F8013B521E07
:10033000F9D27047D2B201E000F8012B491EFBD27E
:1003400070470022F6E710B513460A4604461946E0
:10035000FFF7F0FF204610BD202A04DB203A00FA08
:1003600002F1002070479140C2F1200320FA03F30C
:10037000194390407047202A04DB203A21FA02F00A
:100380000021704721FA02F3D040C2F120029140CF
:100390000843194670470000064C074D06E0E06828
:1003A00040F0010394E8070098471034AC42F6D3BC
:1003B000FFF7F0FECC550008EC550008FEE770474B
:1003C0002DE9FC4FDFF880A1002301250AF1040B81
:1003D00003244FF00F0C0BF1040EAEE005FA03F608
:1003E00032406FD04F68012F05D0022F03D0112F5C
:1003F00001D0122F17D1D0F808905F0004FA07F847
:1004000029EA08090097D1F80C8008FA07F848EAA9
:100410000908C0F808804768B7430E79C6F300168C
:100420009E403E434660C6684FEA430804FA08F718
:10043000BE4301978F6807FA08F73743C7604E68D5
:10044000022E01D0122E13D1DE0800EB8606009694
:10045000366A5F07FF0E0CFA07F926EA0906D1F89B
:10046000109009FA07F949EA0609009EC6F820909B
:100470000768019EB7430E7906F0030606FA08F6F0
:100480003E4306604E68F60056D5304E376E47F054
:1004900001073766366E23F0030706F00106009663
:1004A0002B4E3E44B146B6689F074FEA17780CFAC8
:1004B00008F7BE43B0F1904F05D0264FB84204D1A3
:1004C000012708E038E0002705E0234FB84201D1BA
:1004D000022700E0072707FA08F73743C9F8087032
:1004E000DAF800605746D1F8048096435FEAC838CE
:1004F00000D516433E60DBF800605F46D1F804800B
:1005000096435FEA883800D516433E60DEF8006007
:100510007746D1F8048096435FEAC82800D5164391
:100520003E60094F0C373E68D1F8048096435FEA7D
:10053000882800D516433E605B1C0A6832FA03F631
:100540007FF44CAF00F00AB80004014000100240F4
:100550000000014000040048000800481CBCBDE841
:10056000E08F0069084000D0012070470148806892
:10057000704700004400002090F84120202A24D138
:1005800090F84020012A20D0012280F84020242227
:1005900080F841200268136823F0010313600268A9
:1005A000136823F480531360026813680B431360CD
:1005B00001680A6842F001020A60202180F84110B7
:1005C000002180F84010084670470220704790F8DC
:1005D0004120202A22D190F84020012A1ED0012259
:1005E00080F84020242280F841200268136823F01C
:1005F000010313600268136823F4706343EA012166
:10060000116001680A6842F001020A60202180F846
:100610004110002180F840100846704702207047C2
:1006200070B5040004D094F84100002510B106E034
:10063000012070BD84F84050204600F079F9242054
:1006400084F841002068016821F0010101606068C0
:10065000216820F0706008612068816821F4004101
:100660008160E0680128A06807D040F40440216858
:100670008860E068022803D006E040F40040F6E716
:1006800021684FF40060486020684168114A1143B6
:1006900041602068C16821F40041C160D4E90401CF
:1006A0000843A16940EA01202168C860D4E9070134
:1006B0000843216808602068016841F00101016079
:1006C0006564202084F84100256384F842500020AE
:1006D00070BD0000008000022DE9FC4700260446A2
:1006E000019690F841001F469246894620287ED107
:1006F00020688069C043000479D594F8400001283F
:1007000075D0012084F84000242084F841006664FC
:100710004FF02008E068012809D029F4544040F443
:10072000205021684860FFF721FF05460DE0314960
:1007300049EA010030490840F3E7781C05D0FFF78B
:1007400015FF401BB84219D8C7B12168886989696B
:10075000C0F34010C1F300110843EED02068806957
:100760003B46C043C0064FF000024FF02001204638
:10077000009517D501F086F968BB09E084F841803F
:1007800054F8440F40F0200044F80409267022E099
:100790002168C1F81C8084F8418084F84060002002
:1007A00000F02CB801F06EF9A8B921681020C861DA
:1007B0002168C1F81C800198504512D12068416819
:1007C00041F4804141603B460022202120460095B3
:1007D00001F058F910B10120E2E708E02168C1F802
:1007E0001C800198401C0190504593D3C6E702201D
:1007F000D6E7000000200002FF2300020CBCBDE889
:10080000F08700002DE9F84F044690F84100DDF82C
:1008100028A01F4690468B4620287ED194F84000A1
:1008200001287AD0012084F84000FFF79FFE064699
:10083000012200901923D103204601F023F9E0BBE7
:10084000212084F84100102084F8420000256564CE
:10085000C4F8248067856563618D3148FF274FF0B8
:1008600080784FF00079FF2903D927853A46009018
:1008700039E0618D218500903AE05946204601F02B
:10088000EBF813E001F050F9B8B9606A216800781C
:100890008862606A401C6062608D401E6085208DA9
:1008A000401E80B22085618D01B168B1608D3246F5
:1008B000002851462046E5D100E002E001F00EF9A3
:1008C000D0B1012000F030B85346002280212046EC
:1008D000009601F0D7F80028F3D1608DFF2804D9E5
:1008E00027853A4600954346C7E7608D20850095E9
:1008F00094F828204B46C0E721682020C861216871
:100900004A68084B1A404A6084F8410084F8425013
:1009100084F840500020D5E7FFE70220D2E700002E
:100920000020008000E800FE18BCBDE8E08F000059
:1009300010B586B0044614216846FFF702FD13493E
:100940002068884220D1124CE06C40F00100E06445
:10095000E06C694600F0010005904FF4C060009023
:1009600012200190012002900320039004200490A3
:100970004FF09040FFF724FDA06D40F40010A065FB
:10098000A06D00F40010059006B010BD00540040AA
:10099000001002400248816802781144816070476B
:1009A0004400002010B50024032000F08DF8002042
:1009B00000F008F808B1012401E000F03DF82046FD
:1009C00010BD000000B5014687B00022192000F0DC
:1009D0005BF8192000F04AF81348016E41F40061F9
:1009E0000166006E05A900F400600690684600F0FC
:1009F0009FFA00F0CFFA0D490D4AB0FBF1F10D4816
:100A0000491E0260416040F2E7320021C0E9032143
:100A1000816000F0DCFD10B1012007B000BD054889
:100A200000F008FEF9E700000010024040420F000D
:100A3000002C0140A40100200B4882B0016E41F05F
:100A400001010166016E01F001010091816D41F02B
:100A500080518165806D002200F0805000900F2150
:100A6000901E02B000F010B800100240002809DB10
:100A700000F01F02012191404009800000F1E020B8
:100A8000C0F8001170470000F0B40E4B1B680C4614
:100A9000C3F30223C3F10705042D00D90425191D52
:100AA000072901D2002300E0DB1E012606FA05F12A
:100AB000491E214099409E40761E16403143F0BCAD
:100AC00001F071BE0CED00E0064900F00702086875
:100AD0004FF6FF03184040EA0220034A1043086023
:100AE000704700000CED00E00000FA051649B0F573
:100AF000007F0868C0F3412009D0022805D00868AB
:100B000020F4C06040F48060086000207047012835
:100B1000FBD0086820F4C06040F4007008600B4807
:100B20003222006850430A4AB0FBF2F0401C00E059
:100B3000401E4A69520501D50028F9D1486940058F
:100B4000E3D50320704700000070004050000020F3
:100B500040420F000248006800F4C0607047000087
:100B6000007000400248016841F4807101607047E4
:100B7000007000400248016841F0040101607047C4
:100B8000001002402DE9F84F0446002700889C4DD4
:100B90003E46000515D5E06B60B1B0F5000F04D0FE
:100BA000B0F5400F2BD001270AE0E86840F4803010
:100BB000E86024E00021201D01F05CF807001ED051
:100BC0003E462068800338D5A86D4FF00008C0006D
:100BD00009D4A86D40F08050A865A86D4FF00108B9
:100BE00000F080500090DFF81CA2DAF8001041F409
:100BF0008071CAF80010FFF7B9FC814610E0D5F803
:100C00008800E16B20F440000843C5F88800D8E76D
:100C1000FFF7ACFCA0EB0900022801D9032704E090
:100C2000DAF80000C005F3D5EFB33E46B8F1000F87
:100C300003D0A86D20F08050A8652078C00707D0A9
:100C4000D5F88800216A20F003000843C5F8880021
:100C50002078800707D5D5F88800616A20F00C005D
:100C60000843C5F888002078800607D5D5F88800A5
:100C7000A16A20F440600843C5F8880020888005F8
:100C800007D5D5F88800616B20F440200843C5F8EB
:100C900088002088400509D5D5F88800A16B20F48C
:100CA0004010084300E02EE0C5F888002078400698
:100CB00007D5D5F88800E16A20F440500843C5F80C
:100CC00088002088C00507D5D5F88800216B20F45E
:100CD00040300843C5F8880020884FF00067800442
:100CE0004FF080684ED5D5F88800216C20F0406028
:100CF0000843C5F88800206CB8423BD1E86840F44E
:100D00008010E8603EE0D5F8900010F4407014D0F8
:100D1000216D814211D0D5F89000D5F8901020F4C3
:100D2000407041F48031C5F89010D5F8901021F44E
:100D30008031C5F89010C5F89000C00711D0FFF7BA
:100D400015FC074641F2883907E000BFFFF70EFCAB
:100D5000C11B494501D9032668E7D5F890008007F3
:100D6000F4D5D5F89000216D20F440700843C5F803
:100D700090005BE7404505D10121201D00F07AFF7E
:100D800000B106462068400317D5D5F88800616C8D
:100D900020F040600843C5F88800606CB84204D178
:100DA000E86840F48010E86007E0404505D1012183
:100DB000201D00F05FFF00B106462088400411D5D9
:100DC000D5F88800A16C20F040500843C5F8880091
:100DD000A06CB0F1805F05D10221201D00F04AFF18
:100DE00000B106462088000406D555F8880FE16C4E
:100DF00020F0804008432860304600F005B800002D
:100E0000001002400070004018BCBDE8E08F0000F8
:100E10002DE9F0470F46050058D0404E306800F0ED
:100E20000700B84209D2306820F00700384330602C
:100E3000306800F00700B84248D12878384CC00725
:100E40002CD06868032811D0022812D0216898B1EC
:100E5000490500293ADAA16821F003010143A160A4
:100E6000FFF784FB804641F2883910E02168890150
:100E7000EFE721688903ECE78907EAE7FFF776FBEC
:100E8000A0EB0801494502D90320BDE8F087A0681E
:100E9000696800F00C00B0EB810FEFD12878800773
:100EA00005D5A068A96820F0F0000843A06030686C
:100EB00000F00700B8420BD9306820F00700384333
:100EC0003060306800F00700B84201D00120DCE754
:100ED0002878400705D5A068E96820F4E060084359
:100EE000A0602878000706D5A068296920F4605022
:100EF00040EAC100A06000F05FF8A168094AC1F3B0
:100F00000311515C01F01F01C84007490860074800
:100F10000068BDE8F047FFF755BD00000020024023
:100F200000100240F8540008500000204800002043
:100F30000F2202600C4A936803F003034360936836
:100F400003F0F0038360936803F4E063C360926886
:100F50004FF4E06303EAD20202610448006800F043
:100F600007000860704700000010024000200240A7
:100F70000548064900688968054AC1F30221515CA9
:100F800001F01F01C84070475000002000100240CF
:100F9000385500080548064900688968054AC1F3C4
:100FA000C221515C01F01F01C84070475000002071
:100FB000001002403855000870B525490023184636
:100FC0008A68CC6812F00C0204F00306214C4FEA48
:100FD000640509D00C2A05D0042A32D0082A00D191
:100FE000284670BD012E10D10B681B0704D4D1F820
:100FF0009430C3F3032302E00B68C3F30313164ECC
:1010000056F82330DAB10C2AEBD1C86800F003009F
:10101000022818D0032818D01846CA68CB68C2F333
:101020000212C3F306234343521CB3FBF2F2C86817
:10103000C0F34160401C4000B2FBF0F070BD1846A8
:1010400070BD204670BD2046E7E72846E5E7000072
:10105000001002400024F400085500082DE9F84370
:1010600004006FD0FE4DA86800F00C06E86800F0A0
:1010700003072078C00664D576B10C2E01D1012F6C
:101080000AD0A069002828687AD040F001002860C2
:10109000FFF76CFA80465DE02868800702D5A069FA
:1010A0000028DED0216A2868000703D5286800F0F0
:1010B000F00004E0D5F89400F02202EA101081421A
:1010C00016D9084600F06CFE00283BD1286840F095
:1010D000080028602868216A20F0F0000843286092
:1010E0006868E16920F47F4040EA0120686016E00A
:1010F000286840F0080028602868216A20F0F00085
:10110000084328606868E16920F47F4040EA0120D4
:10111000686026B9206A00F043FE0028D5D1FFF7A9
:101120004BFFA968CF4AC1F30311515C01F01F01C5
:10113000C840CD490860CD480068FFF743FC00284F
:101140007ED12EE0CAE000BFFFF710FAA0EB080046
:10115000022876D828688007F6D5286840F008006D
:1011600028602868216A20F0F00008432860686839
:10117000E16920F47F4040EA0120686011E0FFE768
:1011800020F001002860FFF7F1F9804606E000BF7B
:10119000FFF7ECF9A0EB08000228DAD828688007EE
:1011A000F6D42078C00740D0082E18D00C2E01D1DC
:1011B000032F14D06068B0F5803F17D0B0F5A02F92
:1011C000286817D020F480302860286820F4802018
:1011D00028606068E0B1FFF7C9F9804614E028682C
:1011E000800322D56068002878D01EE0286840F48B
:1011F0008030EDE740F480202860F7E7FFF7B6F98C
:10120000A0EB08006428A4D828688003F6D50CE079
:10121000FFF7ACF9804605E0FFF7A8F9A0EB08005E
:10122000642896D828688003F6D4207880073BD5B8
:10123000042E11D00C2E01D1022F0DD0E06801E058
:10124000B6E1FFE0002828681ED040F480702860D6
:10125000FFF78CF907460CE0286840050CD5E068DC
:101260000028C1D008E000BFFFF780F9C01B0228AA
:1012700093D828684005F7D56868217C20F0F8509D
:1012800040EA016068600FE020F480702860FFF79A
:101290006DF9074605E000BFFFF768F9C01B02289B
:1012A000B1D828684005F7D42078000729D56069AF
:1012B0000028D5F8940012D040F00100C5F8940041
:1012C000FFF754F9074604E0FFF750F9C01B022866
:1012D00099D8D5F894008007F6D512E02BE120F0DC
:1012E0000100C5F89400FFF741F9074605E000BF8B
:1012F000FFF73CF9C01B022885D8D5F89400800779
:10130000F6D42078400766D5A86D0027C00008D421
:10131000A86D40F08050A865A86D012700F08050AE
:10132000009053480168C90512D40168814641F410
:1013300080710160FFF71AF9804605E0FFF716F9A2
:10134000A0EB080002287DD8D9F80000C005F5D52B
:10135000A068012816D00528D5F8900017D020F0F5
:101360000100C5F89000D5F8900020F0040000BFFF
:10137000C5F89000A06841F28839C0B1FFF7F6F8CF
:1013800080460FE0D5F8900040F00100F0E740F013
:101390000400C5F89000F5E7FFF7E8F8A0EB0801B6
:1013A00049454FD8D5F890008007F5D50EE0FFF7F6
:1013B000DDF8804606E000BFFFF7D8F8A0EB080193
:1013C00049453FD8D5F890008007F5D41FB1A86DE6
:1013D00020F08050A8652078800628D5606A002813
:1013E000D5F8980012D040F00100C5F89800FFF73A
:1013F000BDF8074605E000BFFFF7B8F8C01B02289C
:1014000020D8D5F898008007F6D510E020F001002C
:10141000C5F89800FFF7AAF8074604E0FFF7A6F81A
:10142000C01B02280ED8D5F898008007F6D4A06A11
:10143000A8B1022824D00C2E7DD0286820F080701E
:10144000286000E0B3E02868000103D4E86820F0D9
:101450000300E860E86807490840E8600CE09FE0A6
:1014600000100240F85400085000002048000020FE
:1014700000700040FFFFEEFEFFF778F8044699E0A9
:10148000E868E26A00F00301914226D1216B00F086
:1014900070020901103991421FD1626B00F4FE41C4
:1014A000B1EB022F19D194F8382000F07841B1EB5C
:1014B000C26F12D1A18F00F4C00249084905A1F5FD
:1014C0000011914209D194F8401000F0C060490821
:1014D0004906A1F1007181424BD00C2E6FD02868D3
:1014E00040016CD4286820F080702860FFF73EF837
:1014F000064604E0FFF73AF8801B022857D8286810
:101500008001F7D4F4E90B016FF00F0202EB011137
:101510000843218A5204490802EB4151A26841EA7A
:1015200002210843217D4FF07E42490802EB4161D0
:101530000843217B00E042E040EAC160E968214ABB
:1015400011400843E860286840F080702860E8682F
:1015500040F08070E860FFF709F8044605E000BF3E
:10156000FFF704F8001B022821D828688001F7D56E
:1015700023E02868800120D4286840F0807028602B
:10158000E86840F08070E860FEF7F0FF044604E091
:10159000FEF7ECFF001B022809D828688001F7D568
:1015A0000BE000BFFEF7E2FF001B022802D9032078
:1015B000BDE8F88328688001F4D40020F8E7012012
:1015C000F6E700008C809D0170477047704710B5AA
:1015D000040003D094F83D0010B107E0012010BDD5
:1015E000002084F83C00204600F022F8022084F815
:1015F0003D00211D206800F0CBFE012084F848004A
:1016000084F83E0084F83F0084F8400084F84100EC
:1016100084F8420084F8430084F8440084F84500CC
:1016200084F8460084F8470084F83D00002010BD8F
:101630007047000090F83D10012901D0012070474B
:10164000022180F83D100168CA6842F00102CA60B8
:1016500000680B49884205D0B0F1804F02D009499B
:10166000884207D18168084A1140062906D0B1F5A1
:10167000803F03D0016841F0010101600020704704
:10168000002C01400040014007000100704770B588
:101690000446006801694FF00005C943890715D465
:1016A000C168C943890711D4E91E0161012020776F
:1016B000206880698007204602D0FFF7E7FF04E03A
:1016C00000F0A7F8204600F0A5F82577206801690A
:1016D000C943490717D4C168C943490713D46FF0F8
:1016E00004010161022020772068806910F4407FA6
:1016F000204602D0FFF7CAFF04E000F08AF8204637
:1017000000F088F8257720680169C943090716D4D5
:10171000C168C943090712D46FF0080101610420B0
:1017200020772068C0698007204602D0FFF7AEFF0F
:1017300004E000F06EF8204600F06CF82577206891
:101740000169C943C90617D4C168C943C90613D47E
:101750006FF010010161082020772068C06910F443
:10176000407F204602D0FFF791FF04E000F051F8DF
:10177000204600F04FF8257720680169C943C90762
:1017800008D1C168C943C90704D1891E0161204637
:1017900000F042F820680169C943090609D4C1680C
:1017A000C943090605D46FF0800101612046FFF7A7
:1017B0000CFF20680169C943C90509D4C168C94340
:1017C000090605D46FF4807101612046FFF7FCFE25
:1017D00020680169C943490609D4C168C94349065B
:1017E00005D46FF040010161204600F01FF8206829
:1017F0000169C94389060BD4C168C943890607D466
:101800006FF0200101612046BDE87040FFF7DEBEA9
:1018100070BD70477047000000680349884201D1DD
:10182000FFF7B8B870470000002C0140704710B5B2
:10183000040002D0A06F10B107E0012010BD00200D
:1018400084F87400204600F025F82420A067206862
:10185000016821F001010160204600F061FE0128CD
:10186000ECD0606A10B1204600F0C8FD20684168E5
:1018700021F4904141602068816821F02A01816053
:101880002068016841F0010101602046BDE8104078
:1018900000F018BE10B586B0044614216846FEF765
:1018A00050FD1349206888421FD11248816D41F4D0
:1018B00000318165816D01F400310591C16C41F009
:1018C0000101C164C06C694600F0010005900C2064
:1018D0000090022001900020029003200390072036
:1018E00004904FF09040FEF76BFD06B010BD000075
:1018F00000440040001002402DE9F8430446806F88
:101900001F4616460D4620284FD1CDB1C6B194F8DA
:101910007400012849D0012084F874004FF00008B9
:10192000C4F880802120A067FEF720FEA4F8506054
:101930008146A4F85260A068B0F5805F03D004E04F
:101940000120BDE8F883206928B12E465FF000052C
:1019500084F8748010E00026FAE78021204600F029
:10196000CFFEB8B9C6B116F8010B21680885B4F8E6
:101970005200401EA4F85200B4F852004B464FF0FB
:10198000000200970028E8D14FF04001204600F007
:10199000B7FE30B10320D4E735F8020BC0F30800DE
:1019A000E3E72020A0670020CBE70220C9E7FEE79D
:1019B00001688A69D243920701D400228A620068D2
:1019C0008169C943C90703D0816941F0010181617F
:1019D000704700002DE9F0410446006890460E462D
:1019E0008069C043C00633D4002520272068806961
:1019F000C043800615D5701CF8D0FEF7B7FDA0EBEC
:101A00000800B04201D8002EF0D154F8440F40F045
:101A1000200044F804096770A57025700120BDE816
:101A2000F08121681020C8612068C7612046FFF757
:101A3000BFFF54F8440B4168064A114041602068DA
:101A400040F0040044F820096777A5772577E5E79B
:101A50000020E4E700E800FEF0B50568059C686832
:101A60004FF48066064FC1F3090106EA545641EA75
:101A700002413E431943B043214308436860F0BD2F
:101A8000FF63FF032DE9F0411D4617460E4604464D
:101A9000DDF8188008E0681C06D0FEF767FDA0EBB3
:101AA0000800A8420BD855B12068806936EA0000CA
:101AB00012D00020B842EED00020BDE8F08154F8EA
:101AC000440F40F0200044F80409202060700020FA
:101AD000A07020700120F0E70120EBE770B51646FA
:101AE0000D4604460DE0324629462046FFF772FFB8
:101AF00008B1012070BDFEF739FD801BA84207D850
:101B000035B120688069C0438006ECD4002070BDE8
:101B100054F8440F40F0200044F80409202060707D
:101B20000020A0702070E4E770B516460D4604460C
:101B30000FE0324629462046FFF74CFF08B101204E
:101B400070BD681C05D0FEF711FD801BA84207D8A8
:101B500035B120688069C0438007EAD4002070BD99
:101B600054F8440F40F0200044F80409202060702D
:101B70000020A0702070E2E730B587B014216846DD
:101B8000FEF7DFFB1548C16C41F00401C164C16C74
:101B900001F004010591C16C41F00101C164C16C07
:101BA00001F001010591C16C41F00201C164C06CFA
:101BB000002400F0020005900325CDE90054694699
:101BC0004FF090400294FEF7FBFBCDE900546946CC
:101BD00003480294FEF7F4FB07B030BD001002404A
:101BE00000040048124810B51049016011494160D5
:101BF00000210122C0E90212016141618161C161DC
:101C00000162FEF70DFD08B172B6FEE7002108483B
:101C1000FEF7B2FC08B172B6FEE700210448FEF7F9
:101C2000D6FC002801D072B6FEE710BD005400407B
:101C3000D4000020912970000C4810B50A490160B9
:101C40004FF416514160002181600C22C160C0E94F
:101C500004128161C16101624162FFF7E8FD002861
:101C600001D072B6FEE710BD004400402001002004
:101C7000FEE7FEE72DE9F041444C05468846E06862
:101C80000026810728680DD0E16801F00301814238
:101C900016D1A8B1E0686968C0F30210401C884200
:101CA0000ED120E0012804D0022805D0032807D156
:101CB00008E02168890701E021684905002907DB60
:101CC00001265FE02168890302D421684903F5E712
:101CD000E1686A686FF00F0321F0730103EB0212F1
:101CE00011430143E160206820F080602060FEF72E
:101CF0003DFC074605E000BFFEF738FCC01B02288C
:101D000037D820680001F7D4B8F1000F18D0B8F127
:101D1000010F1DD0287D4FF07E41400801EB40604F
:101D2000A96840EA01202169194A1140084320614D
:101D3000206840F080602060FEF718FC07461AE03B
:101D4000A868297B000240EAC1602169114AECE7DA
:101D5000288A1149400801EB4050A96840EA012057
:101D600021690E4AE1E700BFFEF700FCC01B022814
:101D700001D9032606E020680001F5D52069A9698C
:101D8000084320613046BDE8F081000000100240A9
:101D9000FF80FFF9FF80FF070000E0FFFF809FFF4B
:101DA000F8B51C4D06460024A86DC00002D5FEF70C
:101DB000D1FE0DE0A86D40F08050A865A86D00F040
:101DC00080500090FEF7C6FEA96D21F08051A965F4
:101DD000B0F5007F04D0802E07D94FF003040AE04D
:101DE000802E08D9A02E01D804E001D1022402E0FF
:101DF000702E00D101240848016821F00701214319
:101E00000160006800F00700A04201D00120F8BD89
:101E10000020F8BD001002400020024010B5002054
:101E200000F024F8BDE8104000F04AB970B58028F1
:101E300013D2402911D20B4B012401F007051E7962
:101E4000AC40094BC90800EBC1100EB132B101E042
:101E5000012A03D0195CA143195470BD195C2143B8
:101E6000FAE7000034000020F001002028B1FF2232
:101E70004FF480610248FEF75DBA0022F8E70000E7
:101E8000F0010020014A108051807047340000208A
:101E900010B501F09BFB44F62063012278215448E1
:101EA000FEF71AFC08B1002010BD40F6C210401E1B
:101EB000FDD1AE220021782001F08EFB20220021EE
:101EC000782001F089FB10220021782001F084FBAA
:101ED000B0220021782001F07FFBC8220021782069
:101EE00001F07AFB00221146782001F075FB1022E8
:101EF0000021782001F070FB40220021782001F0C1
:101F00006BFB81220021782001F066FBFF2200217B
:101F1000782001F061FBA1220021782001F05CFB18
:101F2000A6220021782001F057FBA822002178206A
:101F300001F052FB3F220021782001F04DFBA4224A
:101F40000021782001F048FBD3220021782001F005
:101F500043FB00221146782001F03EFBD5220021F0
:101F6000782001F039FBF0220021782001F034FBC9
:101F7000D9220021782001F02FFB22220021782095
:101F800001F02AFBDA220021782001F025FB122241
:101F90000021782001F020FBDB220021782001F0D5
:101FA0001BFB20220021782001F016FB8D2200214E
:101FB000782001F011FB14220021782001F00CFBA5
:101FC000AF220021782001F007FB2E22002178208B
:101FD00001F002FB0020FFF749FF00F071F805480F
:101FE00000210180418001214171084610BD00009F
:101FF000D4000020340000202DE9F0478146254818
:102000000D46924601882A781144802905D28046DF
:10201000408869780844402802D30020BDE8F08752
:1020200000262AE0A9F1200111FB00606A68002463
:1020300032F810701DE000BF07FA04F0000409D563
:10204000B8F80210B8F800003144204489B280B2D8
:1020500052460BE0BAF1000F1AD00022B8F8021075
:10206000B8F800003144204489B280B2FFF7DEFEA8
:10207000641C2878A042DFD8761C6878B042D1D89A
:10208000B8F800102A7848461144A8F80010C5E7AF
:102090000122E3E73400002070B515460E460446E1
:1020A00009E02A463146FFF7A7FF2178884201D090
:1020B000C8B270BD641C20780028F2D1C0B270BDD7
:1020C00070B5104D002400BF04F1B000C2B2002171
:1020D000782001F081FA00221146782001F07CFA84
:1020E00010220021782001F077FA05EBC41280233A
:1020F0004021782001F080FA641CE4B2082CE3D37C
:1021000070BD0000F0010020012000F0EBFBFBE7B8
:102110008CB015A04FF09042012102900092452012
:10212000039213A30593022213A3ADF8041008939E
:10213000134BADF81C108DF80600ADF810208DF88B
:10214000120006930FA1ADF828208DF81E00099308
:102150000B918DF82A004FF47A74684601F004FA66
:10216000204600F0BFFBF8E7536C6F74203100008D
:10217000536C6F7420320000536C6F742033000076
:1021800000040048536C6F7420340000FFF746FED3
:102190004FF090444FF4FA7501212046FEF7E1F923
:1021A000B0B3FFF78DFF00210846FFF76BFE012259
:1021B0002B492CA0FFF770FF1E210020FFF762FEC5
:1021C0002749012228A000BFFFF766FFFFF778FF2D
:1021D00002212046FEF7C5F970B3FFF771FF002119
:1021E0001E20FFF74FFE01221D4920A0FFF754FFDC
:1021F0001E210846FFF746FE194901221AA000BF1A
:10220000FFF74AFFFFF75CFF284600F06BFBC3E7D0
:10221000FFE7FFF755FF00210846FFF733FE0122D5
:102220000F4910A0FFF738FF1E210020FFF72AFEFC
:1022300001220B490EA0C7E7FFF742FF00211E2035
:10224000FFF720FE0122064908A0FFF725FF1E2107
:102250000846FFF717FE0122014905A0D0E700005C
:102260003C000020503100004500000050320000CA
:1022700046000000012000F035FBFBE7012000F0E4
:1022800031FBFBE710B54FF0E020006902F02AF8BF
:10229000012803D0BDE8104001F0ACBC10BD000027
:1022A00010B5ACB044216846FEF74BF8142126A8BF
:1022B000FEF747F8542111A8FEF743F8FEF752FC49
:1022C000204850F8901F21F0180101601420009060
:1022D00001200290002460210690CDE907410221EF
:1022E000CDE90A100C9028200D900720CDE90E01B1
:1022F00068461091FEF7B2FE08B172B6FEE70F20F5
:1023000026900320CDE927042994042126A82A94A5
:10231000FEF77EFD08B172B6FEE7422011901A94D6
:102320001C9411A8FEF72EFC08B172B6FEE74FF41C
:102330000070FEF7DBFB08B172B6FEE7FEF71AFC91
:102340002CB010BD001002400B48016841F4700130
:1023500001600A48016841F00101016000218160CB
:102360000268074B1A4002608214C260026822F4BD
:10237000802202608161704788ED00E00010024019
:10238000FFFFF6EA0148FFF782B90000A401002030
:1023900070B50268164B4FF08046984201D0B042AB
:1023A00003D122F070044A682243124C124D984225
:1023B00005D0B04203D0A04201D0A84203D122F4FC
:1023C0004076CA6832434E6922F08002324302608E
:1023D0008A68C2620A688262984203D0A04201D031
:1023E000A84201D1096901630121416170BD00006A
:1023F000002C0140004001400044014090F82410AE
:10240000C90706D001684A68836A22F400321A4379
:102410004A6090F82410890706D501684A68C36AA3
:1024200022F480321A434A6090F82410490706D5F6
:1024300001684A68036B22F480221A434A6090F8CC
:102440002410090706D501684A68436B22F400424C
:102450001A434A6090F82410C90606D501688A68B4
:10246000836B22F480521A438A6090F82410890604
:1024700006D501688A68C36B22F400521A438A6049
:1024800090F82410490611D501684A68036C22F4BB
:1024900080121A434A60016CB1F5801F06D10168B1
:1024A0004A68436C22F4C0021A434A6090F8241030
:1024B000090606D501684A68806C22F400220243AE
:1024C0004A607047F8B500260446C0F88060FEF701
:1024D0004DF80546206800686FF07E47000708D574
:1024E0002B4600224FF400112046009700F008F917
:1024F00060B92068006840070AD52B4600224FF4D7
:1025000080012046009700F0FBF808B10320F8BDD9
:102510002020A067E067266684F874600020F8BD7C
:102520002DE9F041044600682269A168E66911437B
:1025300062690025324311436A4B02686A4E324099
:102540000A43026020684168E26821F44051114367
:1025500041602168A069994201D0226A10438A68CB
:1025600022F4306202438A606049276860488F42E3
:102570000DD1D0F8880010F0030006D0012838D023
:10258000022834D0032821D135E001211FE0594928
:102590008F420BD1D0F8880010F00C0025D0042811
:1025A00027D0082823D00C2810D124E09F420DD139
:1025B000D0F8880010F4406017D0B0F5806F18D0C4
:1025C000B0F5006F13D0B0F5406F14D010214A4819
:1025D00000264FF400429F422DD171B1022912D042
:1025E00004290DD0082971D123E00021EFE7022151
:1025F000EDE70421EBE70821E9E7FEF7B9FC01E08C
:10260000FEF7DAFCE8B3626802EB420181425DD872
:10261000B0EB023F5AD8010E03025008181871415E
:102620000023FDF741FE354AA0F54071914251D992
:102630004CE01046E7E7E3694FF6EF77934229D184
:10264000092943D2DFE801F005080E420B4242425D
:102650002400FEF78DFC04E0FEF79CFC01E0FEF791
:10266000ABFC70B14100606801EB5001B1FBF0F0D0
:1026700080B2A0F11001B94228D84FF6F0710140A4
:1026800000E029E0C0F3420001432068C16023E07C
:102690001046E7E7092919D2DFE801F005080E180E
:1026A0000B1818181A00FEF763FC04E0FEF772FC22
:1026B00001E0FEF781FC78B1616800EB5100B0FBEE
:1026C000F1F080B2A0F11001B94203D9012503E075
:1026D0001046F1E72168C86066662846A666BDE830
:1026E000F081000000800040F369FFEF00380140F6
:1026F00000100240004400400024F400FFFC0F00E2
:102700002DE9F0479A4617460E4604464FF0000959
:102710004FF02008089D39E0681C37D0FDF726FFF0
:10272000A0EB0A00A84222D80DB32068016849072F
:102730002CD5C069C043000528D421684FF400603F
:1027400008622068016821F4D07101602068816806
:1027500021F001018160C4F87880C4F87C80C4F85D
:10276000808000BF84F874900320BDE8F087206863
:10277000016821F4D07101602068816821F00101B5
:102780008160C4F87880C4F87C80EBE72068C06979
:1027900036EA000004D00020B842BDD00020E4E7B3
:1027A0000120F9E7FEE70907090E002804DB00F124
:1027B000E02080F80014704700F00F0000F1E020E6
:1027C00080F8141D704702E008C8121F08C1002AD3
:1027D000FAD170477047002001E001C1121F002AA2
:1027E000FBD17047FEF7DEF8FFF75AFDFFF7C4F99B
:1027F000FFF722FAFFF7F6F9FFF74AFBFFF70EFBA8
:102800000020FFF733FBFFF75BFC00210846FFF7D2
:1028100039FB012229492AA0FFF73EFCFFF750FCB3
:1028200000F070F8284800F0E1F8284C6062264873
:10283000103000F0DBF8244A0121A0622032084663
:1028400000F022F9204A0121E0623032084600F00F
:102850001BF91D4A2063303A0221102000F082F853
:10286000194AE061183A0221102000F07BF8164A5C
:102870002062E43A0021164800F060F9124AA06094
:10288000C03A0021134800F059F90F4AE0609C3A21
:102890000021114800F052F90B4A2061783A0021DA
:1028A0000E4800F04BF9084A6061543A00210C4888
:1028B00000F044F9A06100F039F8FEE73C00002088
:1028C00048454C4C4F0000005C47000800000020C9
:1028D00009210008112100088D2100087522000837
:1028E0007D22000810B50146EFF3058010B16FF0AE
:1028F000050404E0002411B1084601F005F8204663
:1029000010BD0000EFF30580002802D06FF0050035
:1029100070470548016811B14FF0FF307047012141
:102920000160002070470000A400002010B5EFF304
:102930000580002802D06FF0050010BD074801682F
:10294000012902D04FF0FF3010BD054A002111705F
:102950000221016001F046F8002010BDA400002013
:102960001FED00E0F8B5844614464FF00005EFF384
:102970000580002838D1BCF1000F35D0002933D0B4
:10298000421EB4B1A06858B1E368502B08D3236944
:1029900033B163690CFB01F6B34201D3012209E0B4
:1029A00040B9E06830B9206920B9606910B90022E7
:1029B00000E00022012A01D04AB10DE00020009081
:1029C0006046A368226901F0A6F9054604E00022EA
:1029D000604601F07EF9054635B10CB1216800E092
:1029E0000021284600F028FF2846F8BD70B50446AF
:1029F0004FF00005EFF30580002843D10CB160686B
:102A000000E0002010F0010F01D0012600E00026B8
:102A100010F0080F36D14FF0FF305CB1A16821B142
:102A2000E268502A01D3012005E021B9E16811B91B
:102A3000002000E00020012801D068B116E02EB18E
:102A40000420A16801F037F905460FE00120A168D4
:102A500001F031F9054609E026B1042001F01FF923
:102A6000054603E0012001F01AF9054635B10CB125
:102A7000216800E00021284600F0DEFE15B10EB10D
:102A800045F00105284670BDF8B50E4614464FF0D6
:102A90000005EFF3058100294ED100284CD0864275
:102AA0004AD84A1E5CB1A36823B1E168502901D31A
:102AB000012205E023B9E16811B9002200E00022FB
:102AC000B2F1FF3F38D0012809D0012A2AD031467F
:102AD00001F0A6F805467DB354B3216829E0012A28
:102AE00016D003220021012001F0F3F80546002D45
:102AF000F1D0002EEFD000231A461946284601F0E7
:102B00008BF90128E7D0284600F0AAFE0025E2E76D
:102B100003200090002211460120A36801F0FBF879
:102B20000546E4E73146A26801F098F80546D2E789
:102B30000021284600F080FE2846F8BD2DE9F0432C
:102B400085B00B464FF000070497EFF3058100298D
:102B50004ED100284CD080244FF0180C8946491ED5
:102B600052B3166806B1B146956905B1AC46ACF1F1
:102B70000105382D03D2157915F0010F03D005B0EA
:102B80000020BDE8F083556905B1AC08D2F8088093
:102B9000B8F1000F07D0D6685C2E04D3166916B1C1
:102BA0000DB1012109E0B8F1000F06D1D56825B9B2
:102BB000156915B9002100E00021012901D061B19A
:102BC00016E09168126901920291CDF800C0224688
:102BD000494601F056FB04900AE004A90191A2B213
:102BE000CDF800C0494601F013FB012800D004973E
:102BF000049805B0BDE8F0832DE9F04104460F4686
:102C0000134EF5683068001D00F012FDB4F1FF3F6F
:102C100007D137B13068BDE8F041011D0D4800F023
:102C20005ABD2C4430684460AC4206D23068011D65
:102C3000B06BBDE8F04100F033BD3068011D706B32
:102C400000F02EFDB06A844200D2B462BDE8F0818B
:102C500054000020E00A002070B5044600F048FD52
:102C60001C4DA868401CA860286810B1686938B17C
:102C70000CE02C60A868012808D100F0A1F905E05B
:102C80002868E16AC06A884200D82C60686A401CE3
:102C900068626064E06A2969884200D928610E4947
:102CA00000EB800001EB8000211D00F014FD00F01E
:102CB0003FFD686900280CD02868E16AC06A884234
:102CC00007D206494FF080500860BFF34F8FBFF323
:102CD0006F8F70BD540000203006002004ED00E02E
:102CE00038B500F005FD0F4C2068B8B90E4800F06B
:102CF000C9FC0E4800F0C6FC0B48E06014302061AF
:102D000000200B4B009003F1500210210A2001F02B
:102D100002F8206010B107A100F08EFDBDE8384038
:102D200000F006BD90000020E40B0020F80B00200E
:102D3000F40A0020546D72510000000070B50D4C73
:102D40006068002815D00C4E00F0D2FCF068C56811
:102D5000281D00F06DFCA068401EA0606068401E49
:102D6000606000F0E5FC284600F051F8606800283B
:102D7000EAD170BD54000020CC0A00200B46026C42
:102D8000002A0CD0C1681144C160D0F808C0614568
:102D900001D30168C160C1681846FDF7B9BA704730
:102DA0002DE9F041044616460027A56B226C002A47
:102DB00010D0C6B1E068FDF7ABFAE168206C091AE3
:102DC000E1602268914202D2A168081AE060022EF6
:102DD00016D017E02068A8B9A06801F0FDFA0746F0
:102DE0000020A0600EE06068FDF792FA216C606838
:102DF00008446060A168884204D32068606001E0F4
:102E000005B16D1E681CA0633846BDE8F08110B5A1
:102E1000044694F8591000290BD0012911D0022939
:102E200014D0502080F31188BFF34F8FBFF36F8F02
:102E3000FEE7206B00F092FC2046BDE8104000F059
:102E40008DBC2046BDE8104000F088BC10BD0000DD
:102E50000749CA681168002904D00021016019B12E
:102E6000002070470121F9E7D06800687047000032
:102E7000900000204FF47A61104810F0070F06D040
:102E8000C01D20F007000D49411AC1F57A610C4AB6
:102E90001060002353600144083921F00701183AFB
:102EA00011604B600B600B1A4360016040689060DA
:102EB00050604FF00040506170470000C412002085
:102EC000C0000020074E4FF08054074DFFF736FF3B
:102ED00030680128FAD92C60BFF34F8FBFF36F8F92
:102EE000F4E700003006002004ED00E0002808D0E0
:102EF000002181600160C16000231A46194600F07C
:102F00008BBF704770B51D46049C002909D0226014
:102F1000E06321640121204600F036FF84F84C5024
:102F200070BD2460F4E72DE9F05F82460B9F0A9D97
:102F30000C9C0E4690469B464FEA8801A522206BCA
:102F4000FDF7F8F9206BA8F1010100EB810020F0FA
:102F500007094FF0000866B100202218315C82F8A2
:102F60003410315C11B1401C1028F6D384F8438032
:102F700001E084F83480382D00D33725E562E5641C
:102F8000C4F85080201D00F088FB04F1180000F008
:102F900084FB2461C5F13800A0616462C4F85480E8
:102FA00084F858805A465146484600F0C7FA2060D7
:102FB000002F00D03C6000F000B830BCBDE8C09FDE
:102FC00070B500240F4D04EB840005EB800000F089
:102FD00059FB641C382CF6D30B4800F053FB0B480C
:102FE00000F050FB0A4800F04DFB0A4800F04AFB95
:102FF000094800F047FB09480349416314318163E4
:1030000070BD000030060020900A0020A40A0020B5
:10301000B80A0020CC0A0020E00A0020540000205A
:1030200010B4144900E011460A688242FBD34B6891
:1030300003EB010C844503D14068184448600846FE
:103040000C68D0F804C00CEB0003A3420CD10A4B6F
:103050001B689A4206D05268624442600A6812684D
:10306000026002E0036000E00260814200D008607C
:1030700010BC7047C0000020A800002010B500243C
:1030800041600061DFF838C091420BD8D11A8269E3
:10309000914201D3012410E0011DDCF8100000F082
:1030A000FFFA0AE09A4203D2994201D3012404E0D4
:1030B000011DDCF80C0000F0F3FA204610BD000002
:1030C0009000002010B5044600F012FBA06B20B168
:1030D000002400F02DFB204610BD0124F9E710B5B7
:1030E000044600F005FBA06BE16B884201D101248E
:1030F00000E0002400F01CFB204610BDF8B505469A
:103100000E461748C068C068C468201D00F090FAD9
:1031100094F8280010F0040F18D0A0692B4641192C
:1031200032462046FFF7AAFFA0B100200346014621
:1031300000902A46204601F065FA58B9502080F3E5
:103140001188BFF34F8FBFF36F8FFEE720F00100B0
:1031500084F82800216A01B02046BDE8F040084705
:103160009000002030B587B0414D002202A92868A8
:1031700000F06AFF002875D00298002803DA039A4D
:103180000599049890470298002864DB049C6069C4
:1031900010B1201D00F04CFA01A800F0B3F802466F
:1031A00002980A2857D2DFE800F00505052F364DB2
:1031B00005052F3694F8280040F0010084F8280017
:1031C0000398A169034601442046FFF757FF0028F2
:1031D00041D0216A2046884794F8280010F0040F57
:1031E00039D0002000900398A169002342181946A5
:1031F000204601F007FA70BB502080F31188BFF31E
:103200004F8FBFF36F8FFEE794F8280020F0010086
:1032100084F828001FE094F8280040F0010084F8AA
:1032200028000398A06128B1811813462046FFF7B3
:1032300025FF10E0502080F31188BFF34F8FBFF3BC
:103240006F8FFEE794F8280010F0020F0CD020F0EA
:10325000010084F82800002202A9286800F0F4FE8A
:10326000002889D107B030BD204600F077FAF2E798
:1032700090000020F8B505460C4600F0FBFB6846C0
:1032800000F040F80646009810B101F021F9F8BDB1
:1032900044B9B54206D801F01BF931462846FFF77C
:1032A0002DFFF8BD0C481CB10169096891B10024DB
:1032B000A91B2246006800F001FB01F009F9002873
:1032C000EFD106494FF080500860BFF34F8FBFF336
:1032D0006F8FF8BD0124EBE79000002004ED00E0C3
:1032E0000749486B0068002805D0486BC068C06873
:1032F0004068886270474FF0FF3088627047000076
:103300005400002070B5044600F0FAFF0546074E51
:10331000B068854204D200F00BF80120206001E083
:1033200000202060B560284670BD0000900000209D
:10333000F8B51C4EF0680068002826D00027F06819
:10334000C0680568C468201D00F072F9216A204633
:10335000884794F8280010F0040F12D0A069284480
:10336000A84206D960602461211DF06800F098F938
:1033700007E000232A4619462046009701F042F94B
:1033800040B1F06800680028D9D1F0683169F16077
:103390003061F8BD502080F31188BFF34F8FBFF329
:1033A0006F8FFEE7900000200A484068B0F1FF3FB1
:1033B00007D0502080F31188BFF34F8FBFF36F8F7A
:1033C000FEE7502080F31188BFF34F8FBFF36F8F5C
:1033D000FEE70000C800002082B001A8FFF738FD1A
:1033E0000199FFF747FFFFF7BDFEF6E770B504460A
:1033F00000F07EF994F94550002D0CDD606A50B163
:1034000004F1240001F028F808B100F0ADFA681EBC
:1034100045B2002DF2DC4FF0FF3684F8456000F035
:1034200087F900F065F994F94450002D0CDD20690E
:1034300050B104F1100001F00FF808B100F094FA57
:10344000681E45B2002DF2DC84F84460BDE870408F
:1034500000F06EB92DE9F0410546002600F00AFBA8
:10346000344F386808B9FFF705FD7869054251D136
:103470009DB1083515F0070F0FD005F00700C0F11A
:103480000800054415F0070F07D0502080F311887D
:10349000BFF34F8FBFF36F8FFEE7002D3AD07868F0
:1034A000854237D824490846046801E0214604468D
:1034B0006068A84202D220680028F7D138688442A8
:1034C00028D0086800F10806206808606068411B81
:1034D00010290FD9601910F0070F07D0502080F382
:1034E0001188BFF34F8FBFF36F8FFEE741606560B8
:1034F000FFF796FD61687868401A7860BA68904274
:1035000000D2B86078690843606000202060F868E5
:10351000401CF86000F0DCFF16F0070F07D05020C9
:1035200080F31188BFF34F8FBFF36F8FFEE73046F4
:10353000BDE8F081A8000020C0000020001F4FF06F
:1035400080730360001F21F001010160001F054925
:10355000016014380260001F6FF002010160203822
:1035600070470000A93300082DE9F0410646002508
:10357000144F20E005EB450006EB800456F82000D0
:10358000A188FCF7EEFFD8B14520A07141F2883840
:1035900043460A220C48A168FEF7AEF9A11D434636
:1035A00001220948FEF7A8F94346022205490648C8
:1035B000FEF7A2F96D1C78688542DBDBBDE8F0817F
:1035C0004620E2E700000020200100200148401EC4
:1035D000FDD1704790D003001CB502238DF8041074
:1035E0000A2100918DF80520014601AA0148FDF746
:1035F00009F91CBDD400002070B5C2B000248DF8BC
:10360000041001A904E0155D0E19641C7570E4B284
:103610009C42F8D30A2100915B1C01469BB201AA8F
:103620000248FDF7EFF842B070BD0000D400002062
:103630000169436882689A60836842685A604A6890
:10364000824201D182684A60002202610868401EFD
:103650000860086870470000034B036003F15C00DA
:1036600008608020106070470C0C0020044B036041
:1036700003F15C0008604FF4807010607047000038
:10368000680E002000F1080141604FF0FF328260B7
:10369000C160016100210160704700210161704734
:1036A00010B4D1F800C0BCF1FF3F02D000F1080215
:1036B00002E0026904E01A4653681C686445FAD9BE
:1036C00053684B6099608A60516008610168491CC9
:1036D000016010BC704742684A6093688B609368D1
:1036E0005960916008610168491C016070470000E1
:1036F000502080F31188BFF34F8FBFF36F8F0A49BB
:103700004868401C486001280CD10848006810F047
:10371000FF0F07D0502080F31188BFF34F8FBFF306
:103720006F8FFEE770470000C800002004ED00E046
:1037300009494868002806D0401E4860002801D189
:1037400080F311887047502080F31188BFF34F8FAA
:10375000BFF36F8FFEE70000C800002070B500289F
:103760002AD0A0F10804154D60686969084207D1A4
:10377000502080F31188BFF34F8FBFF36F8FFEE7A8
:1037800022683AB1502080F31188BFF34F8FBFF306
:103790006F8FFEE78843606000F06CF960686968CD
:1037A000084468602046FFF73BFC2869401C2861FC
:1037B000BDE8704000F08CBE70BD0000A800002085
:1037C0004FF0E02000210161816105494FF47A72D8
:1037D0000968B1FBF2F1491E41610721016170479F
:1037E0005000002010B5FCF739FD114910280ED308
:1037F00000F1E02090F8F0030A78904207D25020C0
:1038000080F31188BFF34F8FBFF36F8FFEE7094836
:103810000068896800F4E060884207D9502080F38E
:103820001188BFF34F8FBFF36F8FFEE710BD00000D
:10383000C80000200CED00E00022084B53F832C015
:10384000BCF1000F03D0521C082AF7D3704743F88D
:10385000321003EBC201486070470000F005002001
:1038600010B50446002C0BD0204600F013F894F855
:10387000460000280CD12046BDE81040FFF76EBF7F
:10388000502080F31188BFF34F8FBFF36F8FFEE797
:1038900010BD00000021084A02EBC1035B688342AF
:1038A00006D1002042F8310002EBC10148607047A8
:1038B000491C0829F0D37047F005002070B5044674
:1038C0000D461646FFF714FF94F94400B0F1FF3F90
:1038D0004FF0000001D184F8440094F94510B1F193
:1038E000FF3F01D184F84500FFF722FFA06B28B904
:1038F0003246294604F1240000F056F82046BDE87F
:103900007040FFF773BD000010B502460020002A8A
:1039100012D00F48006B38B1502080F31188BFF3EC
:103920004F8FBFF36F8FFEE700F0A4F80021104621
:10393000FFF762F900F0CCFD002807D105494FF0F0
:1039400080500860BFF34F8FBFF36F8F10BD000032
:103950005400002004ED00E002490A6A0260C968D0
:10396000416070475400002001490120C861704740
:103970005400002010B50C4600280BD0094A1268EC
:1039800002F11801FFF78CFE2046BDE8104001212E
:10399000FFF732B9502080F31188BFF34F8FBFF388
:1039A0006F8FFEE75400002070B50D4614460028C6
:1039B0000DD00B4909681831FFF78DFE0CB14FF09F
:1039C000FF3521462846BDE87040FFF715B9502065
:1039D00080F31188BFF34F8FBFF36F8FFEE70000B6
:1039E0005400002030B587B000250695059504AA3F
:1039F00005A906A8FFF730FE0698059901910290E7
:103A00000023009517A11948049A00F03AFC184CBD
:103A1000E06208B1012000E00020012801D100F09F
:103A2000BDFD01280AD0B0F1FF3F19D1502080F32D
:103A30001188BFF34F8FBFF36F8FFEE7502080F3E5
:103A40001188BFF34F8FBFF36F8F4FF0FF30A0622D
:103A500001206061E56007B0BDE8304000F048B883
:103A600007B030BD49444C4500000000C52E000899
:103A7000540000200248016B491C0163704700009C
:103A800054000020184B186B002802D00120D86188
:103A900070470020D8611869144900EB800251F882
:103AA00022203AB9C0B1401E00EB800251F822201A
:103AB000002AF7D000EB800201EB82014A685268CD
:103AC0004A6001F1080C624501D152684A604968B8
:103AD000C968196018617047502080F31188BFF3DE
:103AE0004F8FBFF36F8FFEE7540000203006002099
:103AF00010B582B038480168384A914207D1502049
:103B000080F31188BFF34F8FBFF36F8FFEE700681C
:103B10003349884207D1502080F31188BFF34F8F7B
:103B2000BFF36F8FFEE72F4908780190FF200870E0
:103B3000087800909DF800009DF8002000F0F0004B
:103B4000904207D0502080F31188BFF34F8FBFF30E
:103B50006F8FFEE79DF80000234C00F050002070AE
:103B60000720A0609DF8000010F0800F0BD0A06827
:103B7000401EA0609DF80000400000909DF80000ED
:103B800010F0800FF3D1A068032807D0502080F3F5
:103B90001188BFF34F8FBFF36F8FFEE74FF4407074
:103BA000A060019808701148016841F4700101603B
:103BB000016841F070410160FFF702FE0020606083
:103BC000FCF714FB0A48016841F040410160FCF732
:103BD000F9FA02B0002010BD00ED00E071C20F4103
:103BE00070C20F4100E400E0C800002020ED00E0BA
:103BF00034EF00E010B5502080F31188BFF34F8FF1
:103C0000BFF36F8F00F082FB18B104494FF0805072
:103C10000860002080F3118810BD000004ED00E072
:103C200010B50C46002809D084420FD9502080F3EB
:103C30001188BFF34F8FBFF36F8FFEE7502080F3E3
:103C40001188BFF34F8FBFF36F8FFEE70222002171
:103C500000F03FF8002800D0846310BD38B50C4652
:103C6000002809D084420FD9502080F31188BFF377
:103C70004F8FBFF36F8FFEE7502080F31188BFF3A3
:103C80004F8FBFF36F8FFEE7022113460022009192
:103C9000114600F040F8002800D0846338BD10B50C
:103CA00002460021012000F014F804462046FFF7E8
:103CB0001DF9204610BD38B50B4600220090114674
:103CC000012000F028F804462046FFF70FF92046AF
:103CD00038BDF8B505460E461746002D13D005FB36
:103CE00006F05030FFF7B6FB044654B104F1500221
:103CF000002084F846003B46314628460094FFF7F2
:103D000001F92046F8BD502080F31188BFF34F8F92
:103D1000BFF36F8FFEE738B5049D002804D05BB178
:103D200002B189B1C2B120E0502080F31188BFF305
:103D30004F8FBFF36F8FFEE7502080F31188BFF3E2
:103D40004F8FBFF36F8FFEE7502080F31188BFF3D2
:103D50004F8FBFF36F8FFEE739B1502080F311888A
:103D6000BFF34F8FBFF36F8FFEE74FF0500CCDF8CE
:103D700000C01C46012384F846302B460094FFF710
:103D8000C1F8204638BD000070B504460D46002C31
:103D900025D0FFF7ADFC226CE16B206801FB02002F
:103DA000A0600020A06320686060E16B226C206846
:103DB000491E01FB0200E0604FF0FF3084F8440030
:103DC00084F845009DB104F11000FFF75BFC04F19D
:103DD0002400FFF757FCFFF7ABFC012070BD50201B
:103DE00080F31188BFF34F8FBFF36F8FFEE7206919
:103DF0000028F0D004F1100000F02EFB0028EAD0DB
:103E000004494FF080500860BFF34F8FBFF36F8FAE
:103E1000E1E7000004ED00E02DE9FF4782B0044631
:103E20008A461F460025002C03D0BAF1000F08D0A7
:103E300011E0502080F31188BFF34F8FBFF36F8FD5
:103E4000FEE7206C38B1502080F31188BFF34F8F0C
:103E5000BFF36F8FFEE7022F0AD1E06B012807D076
:103E6000502080F31188BFF34F8FBFF36F8FFEE7B1
:103E700000F038FA48B9049838B1502080F311881E
:103E8000BFF34F8FBFF36F8FFEE700264FF08058D0
:103E9000DFF8F090FFF72CFCA06BE16B884205D3B4
:103EA000022F03D0049808B335B329E03A465146AF
:103EB0002046FEF775FF616A59B104F1240000F055
:103EC000CBFA68B1C9F80080BFF34F8FBFF36F8F93
:103ED00006E028B1C9F80080BFF34F8FBFF36F8FA2
:103EE000FFF726FC06B00120BDE8F087FFF720FCB5
:103EF00006B00020BDE8F0876846FFF72DFD0125DC
:103F0000FFF716FCFFF7B6FDFFF7F2FB94F944004C
:103F1000B0F1FF3F01D184F8446094F94500B0F15D
:103F2000FF3F01D184F84560FFF702FC04A9684611
:103F300000F02EF940B12046FFF758FA00F0C8FA19
:103F400006B00020BDE8F0872046FFF7C8F890B122
:103F500004F110000499FFF70DFD2046FFF746FA23
:103F600000F0B6FA002895D1C9F80080BFF34F8F52
:103F7000BFF36F8F8EE72046FFF738FA00F0A8FAFC
:103F800088E7000004ED00E02DE9F047044689468B
:103F900017461E46002C03D0B9F1000F08D011E0DF
:103FA000502080F31188BFF34F8FBFF36F8FFEE770
:103FB000206C38B1502080F31188BFF34F8FBFF3CE
:103FC0006F8FFEE7022E0AD1E06B012807D0502048
:103FD00080F31188BFF34F8FBFF36F8FFEE7FFF7BA
:103FE00001FC5020EFF3118880F31188BFF34F8F4D
:103FF000BFF36F8FA06BE16B884206D3022E04D013
:10400000002088F31188BDE8F08794F94550A06B33
:10401000324649462046FEF7C3FEB5F1FF3F04D0C5
:10402000681C84F845000120EBE7606A0028FAD09C
:1040300004F1240000F010FA0028F4D0002FF2D090
:1040400001203860EFE700002DE9F74783B0044610
:104050008A460025002C03D0BAF1000F08D011E0E9
:10406000502080F31188BFF34F8FBFF36F8FFEE7AF
:10407000206C38B1502080F31188BFF34F8FBFF30D
:104080006F8FFEE700F02EF948B9059838B150203F
:1040900080F31188BFF34F8FBFF36F8FFEE70027C8
:1040A0004FF08058DFF8E490FFF722FBA66BC6B113
:1040B00051462046FEF762FE701EA063206950B193
:1040C00004F1100000F0C8F928B1C9F80080BFF36E
:1040D0004F8FBFF36F8FFFF72BFB06B00120BDE8BA
:1040E000F087059808B135B109E0FFF721FB06B06C
:1040F0000020BDE8F0876846FFF72EFC0125FFF79A
:1041000017FBFFF7B7FCFFF7F3FA94F94400B0F19F
:10411000FF3F01D184F8447094F94500B0F1FF3FAE
:1041200001D184F84570FFF703FB05A9684600F04C
:104130002FF868B12046FFF759F900F0C9F9204679
:10414000FEF7C0FF0028AFD006B00020BDE8F08722
:104150002046FEF7B7FF90B104F124000599FFF760
:1041600009FC2046FFF742F900F0B2F900289BD184
:10417000C9F80080BFF34F8FBFF36F8F94E72046DD
:10418000FFF734F900F0A4F98EE7000004ED00E039
:1041900070B505460C46002D15D0E4B1FFF7A8FA1E
:1041A000DFF868C0DCF80C006B68C11A2268B2F155
:1041B000FF3F18D02E68DCF820C0664515D083423A
:1041C00013D801241DE0502080F31188BFF34F8FD6
:1041D000BFF36F8FFEE7502080F31188BFF34F8F3E
:1041E000BFF36F8FFEE700240BE08A4206D9501A16
:1041F00020602846FFF7B0FB002402E0002020608A
:104200000124FFF795FA204670BD000054000020FD
:104210002DE9F04F85B081460F9F0E9E8A4690464D
:104220009B464FEA8800FFF715F9054628000AD09B
:104230005C20FFF70FF904460CB1256304E0284623
:10424000FFF78CFA00E000249CB1002084F85900AC
:1042500003905B46424651460197009602944846B9
:10426000FEF761FE2046FEF7F7FC05B0012000F0E6
:1042700005B805B04FF0FF3000F000B830BCBDE825
:10428000C08F70B586B00646DDF828C00C9C0B9830
:10429000002816D0ECB15C2504952063022084F838
:1042A0005900002005AD0390CDF800C0019502949F
:1042B0003046FEF738FE2046FEF7CEFC059806B0E5
:1042C00070BD502080F31188BFF34F8FBFF36F8F05
:1042D000FEE7502080F31188BFF34F8FBFF36F8F3D
:1042E000FEE7000005484169002903D0006B18B1C2
:1042F00000207047012070470220704754000020C2
:104300000148C06870470000540000202DE9F041CA
:1043100000262F4F386B002805D0B869401CB861C3
:104320003046BDE8F081F868451CFD609DB9786BAA
:10433000006838B1502080F31188BFF34F8FBFF36E
:104340006F8FFEE7786BB96B7963B863386A401C8E
:104350003862FEF7C5FFB86ADFF8788085420DD372
:10436000786B006838B1786BC068C4686068854253
:1043700012D2B86202E04FF0FF30B8623868C06A0B
:1043800000EB800058F82000012800D90126F869C8
:104390000028C5D00126C3E7201DFFF749F9A06A10
:1043A00018B104F11800FFF743F9E16A3869814256
:1043B00000D9396101EB810008EB8000211DFFF776
:1043C0008AF9E06A3968C96A8842C9D30126C7E711
:1043D000540000203006002070B50446002100285B
:1043E00033D01B4D2868844207D0502080F31188B9
:1043F000BFF34F8FBFF36F8FFEE7206D38B1401EC4
:104400002065E36CE26A9A421FD040B11DE0502063
:1044100080F31188BFF34F8FBFF36F8FFEE7201D2E
:10442000FFF706F9E06CE062C0F13800A061E06AD5
:104430002969884200D92861064900EB800001EB18
:104440008000211DFFF747F90121084670BD0000DB
:10445000540000203006002070B5C068C468002CED
:1044600014D004F11800FFF7E3F8164D286BA8B13B
:1044700004F118011448FFF72EF9E06A2968C96AA7
:1044800088421CD901200121E96170BD502080F3D0
:104490001188BFF34F8FBFF36F8FFEE7201DFFF72B
:1044A000C7F8E06A2969884200D92861074900EB0A
:1044B000800001EB8000211DFFF70DF9DDE70020F2
:1044C00070BD000054000020B80A00203006002013
:1044D0002DE9F047002400272D4D286B002807D038
:1044E000FFF706F9286B401E2863286B40B149E0AE
:1044F000502080F31188BFF34F8FBFF36F8FFEE71B
:10450000A86800283ED0234E30684FF0010800B361
:10451000A6F59169F068C46804F11800FFF788F8FF
:10452000201DFFF785F8E06A2969884200D92861D3
:1045300000EB800009EB8000211DFFF7CCF8E06A5A
:104540002968C96A884201D3C5F81C8030680028F0
:10455000E0D10CB1FEF7C4FEAC694CB1FFF7D6FE5A
:1045600008B1C5F81C80641E002CF7D10020A8619A
:10457000E86938B10127084938070860BFF34F8F51
:10458000BFF36F8FFFF7D4F83846BDE8F08700001F
:1045900054000020B80A002004ED00E030B587B0D8
:1045A0000024FEF79DFB134D2868B0B10020069053
:1045B000059004AA05A906A8FFF758F805990698DA
:1045C000022200920191029000230BA10C48049A50
:1045D000FFF757FE686000B1012414B107B0204610
:1045E00030BD502080F31188BFF34F8FBFF36F8F22
:1045F000FEE7000090000020546D722053766300A7
:10460000D9330008F0B585B084460A9D16461F468A
:104610000022BCF1000F14D0164C206800B30091AA
:104620000196CDF808C006291BDAFFF75BFE0228C9
:104630000FD000231A4669462068FFF7EDFB0246BB
:1046400015E0502080F31188BFF34F8FBFF36F8FB9
:10465000FEE700232A4669462068FFF7DDFB024695
:1046600005E000233A466946FFF78EFC024605B096
:104670001046F0BD90000020C0550008000000006A
:104680000000000000000000000000000002000028
:104690001800000000000000000000007455000831
:1046A000000000000000000000000000000000000A
:1046B00000020000180000000000000000000000E0
:1046C0009C550008000000000000000000000000F1
:1046D00000000000000200001800000000000000C0
:1046E00000000000A85500080000000000000000C5
:1046F00000000000000000000002000018000000A0
:104700000000000000000000B45500080000000098
:104710000000000000000000000000000002000097
:1047200018000000000000000000000040550008D4
:104730000000000000000000000000000000000079
:1047400000000000685500080000000000000000A4
:104750000000000000000000000000005C550008A0
:10476000000000000000000000000000905500085C
:104770000000000000000000000000004C55000890
:10478000000000000000000000000000805500084C
:104790000000000000000000000000000000000019
:1047A0000000000000000000000000000000000009
:1047B00000000000000000000000000000000000F9
:1047C0000000000C000C000C000C000C000C000C95
:1047D000000C000C000C000C0000000C000C000091
:1047E000000000000000001B001B001B001B001B42
:1047F00000000000000000000000000000000000B9
:1048000000000000000000000000801980198019DD
:104810008019C07FC07F80190033C07FC07F003304
:104820000033003300330000000000000000001ED1
:10483000003F807580650074003C001E0007800505
:10484000806580658075003F001E00040004000044
:104850000000007000D840D8C0D880D9007300068E
:10486000000C801BC036C066C046C0068003000036
:10487000000000000000001E003F00330033003342
:10488000001E000CC03CC066806380618063C03E37
:10489000801C0000000000000000000C000C000C58
:1048A000000C000C000000000000000000000000F0
:1048B0000000000000000000000000008000000177
:1048C0000003000600060004000C000C000C000CA5
:1048D000000C000C0004000600060003000180002C
:1048E000002000100018000C000C00040006000658
:1048F00000060006000600060004000C000C00186C
:10490000001000200000000C002D003F001E0033AE
:104910000000000000000000000000000000000097
:104920000000000000000000000000000000000C7B
:10493000000C000C000CC0FFC0FF000C000C000CB1
:10494000000C00000000000000000000000000005B
:104950000000000000000000000000000000000057
:10496000000000000000000C000C0004000400081F
:104970000000000000000000000000000000000037
:104980000000001E001E00000000000000000000EB
:104990000000000000000000000000000000000017
:1049A0000000000000000000000000000000000CFB
:1049B000000C0000000000000000000300030003E2
:1049C0000006000600060006000C000C000C000C9F
:1049D0000018001800180000000000000000001E71
:1049E000003F0033806180618061806D806D8061F7
:1049F000806180610033003F001E00000000000065
:104A000000000006000E001E00360026000600060C
:104A1000000600060006000600060006000600006C
:104A2000000000000000001E003F80738061806174
:104A3000800100030006000C001800300060807F39
:104A4000807F0000000000000000001C003E0063AA
:104A500000630003000E000E0003800180018061EE
:104A60008073003F001E00000000000000000006F0
:104A7000000E000E001E001E0016003600360066F6
:104A8000807F807F00060006000600000000000016
:104A90000000007F007F006000600060006E007F0B
:104AA00080638001800180618073003F001E0000F0
:104AB000000000000000001E003F803380610060A5
:104AC000006E007F80738061806180618033003F71
:104AD000001E0000000000000000807F807F800139
:104AE0000003000300060006000C000C000C000888
:104AF0000018001800180000000000000000001E50
:104B0000003F8063806180610021001E003F806162
:104B1000806180618061003F001E00000000000095
:104B20000000001E003F007380618061806180731F
:104B3000803F801D800180610073003F001E0000E7
:104B40000000000000000000000000000000000C59
:104B5000000C000000000000000000000000000C3D
:104B6000000C000000000000000000000000000039
:104B700000000000000C000C00000000000000001D
:104B80000000000C000C00040004000800000000FD
:104B90000000000080008003000E00380060003834
:104BA000000E8003800000000000000000000000F4
:104BB00000000000000000000000807F807F0000F7
:104BC0000000807F807F00000000000000000000E7
:104BD0000000000000000000000000000040007025
:104BE000001C000780010007001C0070004000004E
:104BF00000000000000000000000001F803FC071A6
:104C0000C060C000C00180030007000E000C000C53
:104C10000000000C000C0000000000000000001E5E
:104C2000003F803180718063806F806D806D806F08
:104C3000806700600032003E001C000000000000A1
:104C40000000000E000E001B001B001B001B80312B
:104C50008031803F803F8031C060C060C060000014
:104C6000000000000000007C007E00630063006321
:104C70000063007E007E0063806180618063007F4E
:104C8000007E0000000000000000001E003F803198
:104C90008061006000600060006000600060806112
:104CA0008031003F001E0000000000000000007C7A
:104CB000007F0063806380618061806180618061CA
:104CC000806100630063007E007C00000000000043
:104CD0000000807F807F0060006000600060007FD7
:104CE000007F0060006000600060807F807F0000C7
:104CF000000000000000807F807F00600060006096
:104D00000060007F007F0060006000600060006065
:104D100000600000000000000000001E003F803125
:104D200080610060006000608063806380618061FA
:104D30008031803F001E0000000000000000806104
:104D400080618061806180618061807F807F80611F
:104D500080618061806180618061000000000000EE
:104D60000000003F003F000C000C000C000C000C89
:104D7000000C000C000C000C000C003F003F000079
:104D8000000000000000800180018001800180019E
:104D90008001800180018001806180618073003F1B
:104DA000001E0000000000000000C0608061006381
:104DB00000660066006C0078007C00660066006398
:104DC00080618061C06000000000000000000060A1
:104DD00000600060006000600060006000600060D3
:104DE000006000600060807F807F000000000000A5
:104DF0000000C071C071C07BC07AC06AC06AC06E5A
:104E0000C064C060C060C060C060C060C0600000BE
:104E100000000000000080718071807980798079C5
:104E2000806D806D806D806580678067806780633E
:104E300080630000000000000000001E003F0033FF
:104E4000806180618061806180618061806180615A
:104E50000033003F001E0000000000000000007E44
:104E6000007F80638061806180618063007F007E5D
:104E70000060006000600060006000000000000052
:104E80000000001E003F003380618061806180610E
:104E900080618061806580670033803F401E000034
:104EA000000000000000007E007F80638061806160
:104EB0008063007F007E0066006300638061806124
:104EC000C0600000000000000000000E001F8031E4
:104ED000803100300038001E00078003806180614F
:104EE0008031003F001E0000000000000000C0FFF5
:104EF000C0FF000C000C000C000C000C000C000C9F
:104F0000000C000C000C000C000C00000000000065
:104F1000000080618061806180618061806180616A
:104F200080618061806180618073003F001E0000AD
:104F3000000000000000C060C060C06080318031AF
:104F40008031001B001B001B001B000E000E000E1A
:104F500000040000000000000000C0C0C0C0C0C0CD
:104F6000C0C0C0C0C0CC804C804C805E805280529B
:104F70008073806180610000000000000000C0C0FC
:104F8000806080610033003B001E000C000C001E9E
:104F9000001F003B80718061C0C000000000000065
:104FA0000000C0C08061806100330033001E001E1D
:104FB000000C000C000C000C000C000C000C00009D
:104FC000000000000000803F803F800100030003DC
:104FD0000006000C000C0018001800300060807FF4
:104FE000807F000000000000000F000F000C000C8C
:104FF000000C000C000C000C000C000C000C000C51
:10500000000C000C000C000C000F000F000000183A
:1050100000180018000C000C000C000C0006000624
:10502000000600060003000300030000000000006B
:10503000001E001E00060006000600060006000610
:105040000006000600060006000600060006000630
:10505000001E001E0000000C000C001E0012003399
:10506000003380618061000000000000000000004B
:105070000000000000000000000000000000000030
:105080000000000000000000000000000000000020
:105090000000000000000000E0FF000000000038F9
:1050A0000018000C000000000000000000000000DC
:1050B00000000000000000000000000000000000F0
:1050C00000000000000000000000001F803F806121
:1050D0008001801F803F80618063807FC038000036
:1050E0000000000000000060006000600060006ED2
:1050F000007F807380618061806180618073007F48
:10510000006E000000000000000000000000000031
:105110000000001E003F80738061006000608061BD
:105120008073003F001E00000000000000008001AE
:10513000800180018001801D803F807380618061DB
:10514000806180618073803F801D0000000000004E
:1051500000000000000000000000001E003F00737F
:105160008061807F807F00608071003F001E0000B2
:10517000000000000000C007C00F000C000C807F82
:10518000807F000C000C000C000C000C000C000CCC
:10519000000C000000000000000000000000000003
:1051A000801D803F80738061806180618061807339
:1051B000803F801D80018063007F003E0000006012
:1051C000006000600060006F807F8071806180619E
:1051D000806180618061806180610000000000006A
:1051E00000000006000600000000003E003E000631
:1051F0000006000600060006000600060006000085
:10520000000000000006000600000000003E003E16
:10521000000600060006000600060006000600065E
:1052200000060046007E003C000000600060006058
:105230000060806100630066006C007C00760063A3
:1052400000638061C0600000000000000000003EBC
:10525000003E0006000600060006000600060006E6
:105260000006000600060006000600000000000020
:105270000000000000000000000080DDC0FFC0CE84
:10528000C0CCC0CCC0CCC0CCC0CCC0CCC0CC00004A
:105290000000000000000000000000000000006F9F
:1052A000807F8071806180618061806180618061C8
:1052B000806100000000000000000000000000000D
:1052C0000000001E003F807380618061806180610A
:1052D0008073003F001E000000000000000000007E
:1052E00000000000006E007F80738061806180613B
:1052F00080618073007F006E00600060006000606D
:105300000000000000000000801D803F807380616D
:105310008061806180618073803F801D8001800199
:105320008001800100000000000000000000006714
:10533000803F003900300030003000300030003055
:10534000003000000000000000000000000000002D
:105350000000001E803F80610060007F803F800170
:105360008061007F001E00000000000000000000BF
:10537000000800180018007F007F001800180018AF
:10538000001800180018801F800F000000000000A7
:10539000000000000000000000008061806180616A
:1053A00080618061806180618063807F803D0000DA
:1053B0000000000000000000000000000000C060CD
:1053C000803180318031001B001B001B000E000E5D
:1053D00000060000000000000000000000000000C7
:1053E000000080DD80DD80DD005500550055007730
:1053F00000770022002200000000000000000000F2
:10540000000000000000806100330033001E000C2B
:10541000000C001E0033003380610000000000001B
:1054200000000000000000008061806180310033D6
:105430000033001B001B001B000E000E000E001CA2
:10544000007C007000000000000000000000C07F31
:10545000C07F800100030006000C00180030C07FF0
:10546000C07F0000000000008003800700060006E7
:10547000000600060006000E001C001C000E0006C0
:1054800000060006000600068007800300060006EE
:1054900000060006000600060006000600060006DC
:1054A00000060006000600060006000600060006CC
:1054B0000038003C000C000C000C000C000C000E2E
:1054C00000070007000E000C000C000C000C000C84
:1054D000003C003800000000000000000000000058
:1054E00000008038807F00470000000000000000BE
:1054F00000000000000000000000000000000000AC
:105500000102030406070809A0860100400D0300FC
:10551000801A060000350C0040420F0080841E00F7
:1055200000093D0000127A000024F40000366E01EC
:105530000048E801006CDC020000000001020304E6
:105540006D79517565756530310000006D7942697E
:105550006E61727953656D30310000006D794D7563
:1055600074657830310000006D795175657565306E
:10557000320000006D795461736B3032000000001E
:105580006D7942696E61727953656D303200000049
:105590006D794D7574657830320000006D79546115
:1055A000736B3033000000006D795461736B3034DD
:1055B000000000006D795461736B3035000000000D
:1055C00064656661756C745461736B00EC5500081A
:1055D00000000020D4000000C6270008C0560008C4
:1055E000D400002094250000D62700080D0A0000F2
:1055F00002000000000000000000000000000000A9
:10560000000000000000000000000000000000009A
:10561000000000000000000000000000000000008A
:1056200000000000000000000B1200009C47000872
:1056300001000000100000000000000000093D0013
:10564000000000000000000000000000000000005A
:10565000000000000000000000000000000000004A
:10566000000000000000000000000000000000003A
:10567000000000000000000000000000000000002A
:10568000000000000000000000000000000000001A
:10569000000000000000000000000000000000000A
:1056A00000000000000000000000000000000000FA
:1056B0000000000000000000AAAAAAAA0000000042
:040000050800018D61
:00000001FF
