:020000040800F2
:100000007029002085020008272A0008A52600087C
:10001000252A00085F0500082138000800000000BC
:10002000000000000000000000000000A501000822
:100030002908000800000000010200088D2F0008B8
:100040009F0200089F0200089F0200089F0200080C
:100050009F0200089F0200089F0200089F020008FC
:100060009F0200089F0200089F0200089F020008EC
:100070009F0200089F0200089F0200089F020008DC
:100080009F0200089F0200089F0200089F020008CC
:100090009F0200089F0200089F0200089F020008BC
:1000A0009F0200088D3000089F0200089F02000890
:1000B0009F02000800000000000000009F020008EE
:1000C0009F02000800000000000000009F020008DE
:1000D00000000000F53700089F0200080000000043
:1000E0009F0200089F0200080000000000000000BE
:1000F0000000000000000000000000000000000000
:100100000000000000000000000000009F02000846
:1001100000000000000000009F0200089F0200088D
:100120009F0200089F0200089F0200089F0200082B
:100130009F02000800000000000000000000000016
:100140009F0200089F0200089F0200089F0200080B
:100150009F0200089F0200089F0200089F020008FB
:100160009F0200089F0200089F0200080000000094
:100170009F0200089F02000800000000000000002D
:100180009F0200089F0200089F020008DFF810D0BD
:1001900000F02CF900480047B1380008AFF30080A8
:1001A000702900202C4B1968086800F05AB880F3B9
:1001B0000988BFF36F8F4FF0000080F311887047FC
:1001C0000000000008480068006880F308884FF0CD
:1001D000000080F3148862B661B6BFF34F8FBFF39F
:1001E0006F8F00DF00BF00BF08ED00E0DFF80C00FC
:1001F000016841F470010160704700BF88ED00E0C4
:10020000EFF30980BFF36F8F134B1A681EF0100FC6
:1002100008BF20ED108A20E9F04F106009B44FF0BC
:10022000500080F31188BFF34F8FBFF36F8F04F03E
:1002300045FD4FF0000080F3118809BC196808687B
:1002400000F014B81EF0100F08BF00F014B880F3CF
:100250000988BFF36F8F704774000020EFF30580AB
:10026000704730C8B0E8C04FFFF7A1BF30C8B0E852
:10027000C04FFFF7E7BFB0EC088AB0EC08CAFFF741
:10028000E6BF00000648804706480047FEE7FEE755
:10029000FEE7FEE7FEE7FEE7FEE7FEE7FEE7FEE736
:1002A000513000088D0100082DE9F05F054600205F
:1002B00092469B4688460646814640241BE02846D7
:1002C00041464746224600F080F853465A46C01A37
:1002D000914110D311461846224600F067F82D1AB6
:1002E00067EB01084F4622460120002100F05EF82E
:1002F00017EB00094E41201EA4F10104DFDC484643
:1003000031462A46434600F000B830BCBDE8C09FE5
:1003100040EA01039B0703D009E008C9121F08C087
:10032000042AFAD203E011F8013B00F8013B521E07
:10033000F9D27047D2B201E000F8012B491EFBD27E
:1003400070470022F6E710B513460A4604461946E0
:10035000FFF7F0FF204610BD421E12F8013F002BB0
:10036000FBD111F8013B02F8013B002BF9D170479A
:10037000421C10F8011B0029FBD1801A704710B5F0
:10038000002200E0521C835C8C5CA34201D1002B54
:10039000F8D1D8B2E1B2401A10BD034611F8012BD2
:1003A00000F8012B002AF9D118467047202A04DBF7
:1003B000203A00FA02F1002070479140C2F1200378
:1003C00020FA03F3194390407047202A04DB203AB7
:1003D00021FA02F00021704721FA02F3D040C2F165
:1003E000200291400843194670470000064C074D13
:1003F00006E0E06840F0010394E8070098471034F5
:10040000AC42F6D3FFF7C6FECC6A0008EC6A0008DF
:100410002DE9F05F3D4D3C4E0A232878012231182A
:10042000401C28703A4802F061F8002863D1394C2A
:100430008146A846C4F810902878304410F8010C82
:100440000A2858D1DFF8C8B000254FF0010A0BF197
:10045000840B3CE005EB45010BEB8106B068FFF730
:1004600087FF0746E068FFF783FF3844401C03F02E
:10047000CDFA6064B168FFF790FFE168606CFFF748
:100480006BFF2149606CFFF77AFFA060606C03F09E
:10049000E7F9A068D0B9C4F810A0B079452804D015
:1004A00046280CD042280AD010E04FF4FA730F22ED
:1004B00019A1174802F09AF84220B07106E04FF4F3
:1004C000FA731B2218A1124802F090F86D1C6068A4
:1004D0008542BFDB206940B94FF4FA730F221AA19D
:1004E0000B4802F083F8C4F810A032210648FFF749
:1004F00028FF88F8009006480068016841F0200154
:10050000016000F029B80000FC0400201100002068
:10051000C805002014000020534C4F54205245536E
:1005200045525645442E0A00506C65617365206340
:10053000686F6F736520616E6F7468657220736C8D
:100540006F742E0A00000000496E76616C696420A9
:10055000496E7075742E0A0030BCBDE8C09FFEE77E
:10056000F0B5ABB0044614211DA8FFF7EAFE002544
:100570002395249525952695279528951C2114A823
:100580002995FFF7DEFE4448002600EB44144FF0A7
:10059000904320684149984202D062689A4207D14C
:1005A000CA6C42F00102CA64C96C01F0010118E092
:1005B0003B4B984201D09A4207D1CA6C42F00202EA
:1005C000CA64C96C01F002010BE0364B984201D0BD
:1005D0009A4207D1CA6C42F00402CA64C96C01F0A5
:1005E00004012291218901272095CDE91D171DA91C
:1005F00000F0AAF960892095CDE91D071DA9606862
:1006000000F0A2F921890022206800F073FA6189C4
:100610000022606800F06EFA0120217F02E04000B5
:10062000761CF6B2B142FAD8A18A1F4A5143A26998
:100630004243B1FBF2F1E268801ECDE90250802016
:100640000690491ECDE900210495684601F0C0FAE4
:100650004FF48050239023A9684601F029FB684697
:1006600001F00EFD279527A96846299501F07AFA31
:100670006020CDE914051695189514A968462269DD
:1006800001F06FFC684601F045FC6846216901F005
:100690002BFD2BB0F0BD0000B06800080010024038
:1006A000000400480008004840420F0010B50E4A00
:1006B00002EB401469B1012914D12189002220687C
:1006C00000F018FA618960680122BDE8104000F06E
:1006D00011BA21890122206800F00CFA61890022F8
:1006E0006068F2E710BD0000B0680008084A02EB3D
:1006F00040100269C0682AB1042A05D0082A05D032
:10070000016470474163704781637047C1637047FC
:10071000B068000870B51546154A02EB401411B1D7
:10072000012909D012E021890122206800F0E2F9B4
:1007300061890022606807E021890022206800F0BA
:10074000D9F961890122606800F0D4F9206930B1DB
:10075000042807D00828E06807D0056470BDE06869
:10076000456370BDE068856370BDC56370BD000002
:10077000B06800082DE9F041294C00210846294BBA
:10078000626808E000EB400503EB8505AD79452D77
:1007900000D10121401C9042F4DB214800254FF498
:1007A0007A77C06C4FF49678012601B178B10128B0
:1007B0001DD000210846FFF799FF61880020FFF750
:1007C00095FF2178BDE8F0410020FFF76FBF4FF49F
:1007D00080714FF0904000F088F90028EDD1E66478
:1007E00060780028E9D167802570667014E0617830
:1007F00041F28830012906D0022909D06580657050
:10080000C4E91205D9E7658002216170A064D4E7CC
:100810006780267003206070C4F84880CDE7000030
:10082000140000204C060020704700002DE9FC4118
:1008300000240646094D1E270BE000BFC4EB041040
:100840004300CDE9007619460022204600F008F862
:10085000641C68688442F1DBBDE8FC811400002060
:100860002DE9F0471D46DDE9088914460E46074686
:1008700002F000FBA1B2B0B202F0DEF907EB4701D3
:1008800009EB810401220949A06802F0DFFA1FFA8E
:1008900088F1A8B202F0D0F9A01D0122034902F0AC
:1008A000D5FABDE8F04702F0E5BA000008000020E4
:1008B00010B590F825100022022905D00421C1634B
:1008C00080F82420012010BD01680B6823F00E037E
:1008D0000B6001680B6823F001030B6090F8441073
:1008E000046C01F01C03012101FA03F3636080F83A
:1008F000251080F82420104610BD10B590F8251062
:100900000024022903D00421C16301241AE00168F4
:100910000A6822F00E020A6001680A6822F00102E9
:100920000A6090F84410036C01F01C02012101FAE6
:1009300002F25A6080F82510002180F82410816BA3
:1009400001B18847204610BD2DE9FC4FDFF880A19A
:10095000002301250AF1040B03244FF00F0C0BF1C7
:10096000040EAEE005FA03F632406FD04F68012F57
:1009700005D0022F03D0112F01D0122F17D1D0F89C
:1009800008905F0004FA07F829EA08090097D1F8EF
:100990000C8008FA07F848EA0908C0F80880476898
:1009A000B7430E79C6F300169E403E434660C668C4
:1009B0004FEA430804FA08F7BE4301978F6807FA25
:1009C00008F73743C7604E68022E01D0122E13D1AC
:1009D000DE0800EB86060096366A5F07FF0E0CFA0B
:1009E00007F926EA0906D1F8109009FA07F949EA49
:1009F0000609009EC6F820900768019EB7430E794D
:100A000006F0030606FA08F63E4306604E68F60056
:100A100056D5304E376E47F001073766366E23F0F5
:100A2000030706F0010600962B4E3E44B146B66819
:100A30009F074FEA17780CFA08F7BE43B0F1904FC2
:100A400005D0264FB84204D1012708E038E000273E
:100A500005E0234FB84201D1022700E0072707FA3B
:100A600008F73743C9F80870DAF800605746D1F83C
:100A7000048096435FEAC83800D516433E60DBF831
:100A800000605F46D1F8048096435FEA883800D55D
:100A900016433E60DEF800607746D1F80480964346
:100AA0005FEAC82800D516433E60094F0C373E6800
:100AB000D1F8048096435FEA882800D516433E604B
:100AC0005B1C0A6832FA03F67FF44CAF00F00AB8F8
:100AD00000040140001002400000014000040048F2
:100AE000000800481CBCBDE8E08F0069084000D049
:100AF000012070470AB18161704781627047000030
:100B000001488068704700006400002090F8412090
:100B1000202A24D190F84020012A20D0012280F8F8
:100B20004020242280F841200268136823F001034A
:100B300013600268136823F480531360026813681B
:100B40000B43136001680A6842F001020A60202129
:100B500080F84110002180F84010084670470220BC
:100B6000704790F84120202A22D190F84020012A95
:100B70001ED0012280F84020242280F84120026803
:100B8000136823F0010313600268136823F4706391
:100B900043EA0121116001680A6842F001020A601B
:100BA000202180F84110002180F84010084670474D
:100BB0000220704770B5040004D094F8410000256D
:100BC00010B106E0012070BD84F84050204600F0CE
:100BD00079F9242084F841002068016821F001019E
:100BE00001606068216820F0706008612068816899
:100BF00021F400418160E0680128A06807D040F43A
:100C0000044021688860E068022803D006E040F4D0
:100C10000040F6E721684FF40060486020684168B2
:100C2000114A114341602068C16821F40041C1604C
:100C3000D4E904010843A16940EA01202168C860A1
:100C4000D4E907010843216808602068016841F081
:100C5000010101606564202084F84100256384F867
:100C60004250002070BD0000008000022DE9FC47CA
:100C700000260446019690F841001F469246894698
:100C800020287ED120688069C043000479D594F87B
:100C90004000012875D0012084F84000242084F809
:100CA000410066644FF02008E068012809D029F46B
:100CB000544040F4205021684860FFF721FF05466A
:100CC0000DE0314949EA010030490840F3E7781C5A
:100CD00005D0FFF715FF401BB84219D8C7B12168EE
:100CE00088698969C0F34010C1F300110843EED050
:100CF000206880693B46C043C0064FF000024FF0B9
:100D000020012046009517D501F036FD68BB09E0AB
:100D100084F8418054F8440F40F0200044F804095E
:100D2000267022E02168C1F81C8084F8418084F894
:100D30004060002000F02CB801F01EFDA8B9216829
:100D40001020C8612168C1F81C800198504512D15B
:100D50002068416841F4804141603B4600222021E7
:100D60002046009501F008FD10B10120E2E708E0FF
:100D70002168C1F81C800198401C0190504593D314
:100D8000C6E70220D6E7000000200002FF23000291
:100D90000CBCBDE8F08700002DE9F84F044690F840
:100DA0004100DDF828A01F4690468B4620287ED1C2
:100DB00094F8400001287AD0012084F84000FFF721
:100DC0009FFE0646012200901923D103204601F020
:100DD000D3FCE0BB212084F84100102084F84200BD
:100DE00000256564C4F8248067856563618D31489A
:100DF000FF274FF080784FF00079FF2903D927852E
:100E00003A46009039E0618D218500903AE05946DC
:100E1000204601F09BFC13E001F000FDB8B9606AC8
:100E2000216800788862606A401C6062608D401EA4
:100E30006085208D401E80B22085618D01B168B132
:100E4000608D3246002851462046E5D100E002E0A0
:100E500001F0BEFCD0B1012000F030B853460022B2
:100E600080212046009601F087FC0028F3D1608D98
:100E7000FF2804D927853A4600954346C7E7608D89
:100E80002085009594F828204B46C0E72168202053
:100E9000C86121684A68084B1A404A6084F84100DA
:100EA00084F8425084F840500020D5E7FFE7022044
:100EB000D2E700000020008000E800FE18BCBDE87A
:100EC000E08F000010B586B0044614216846FFF795
:100ED00038FA13492068884220D1124CE06C40F067
:100EE0000100E064E06C694600F0010005904FF4F9
:100EF000C060009012200190012002900320039016
:100F0000042004904FF09040FFF71EFDA06D40F4C8
:100F10000010A065A06D00F40010059006B010BD93
:100F200000540040001002400248816802781144D9
:100F3000816070476400002010B50024032000F099
:100F40008DF8002000F008F808B1012401E000F05D
:100F50003DF8204610BD000000B5014687B00022D4
:100F6000192000F05BF8192000F04AF81348016ED0
:100F700041F400610166006E05A900F4006006906E
:100F8000684600F09FFA00F0CFFA0D490D4AB0FB19
:100F9000F1F10D48491E0260416040F2E732002144
:100FA000C0E90321816000F013FE10B1012007B0F9
:100FB00000BD054800F050FEF9E7000000100240B7
:100FC00040420F00002C0140B00600200B4882B0C8
:100FD000016E41F001010166016E01F00101009115
:100FE000816D41F080518165806D002200F080505C
:100FF00000900F21901E02B000F010B800100240C7
:10100000002809DB00F01F02012191404009800007
:1010100000F1E020C0F8001170470000F0B40E4B62
:101020001B680C46C3F30223C3F10705042D00D946
:101030000425191D072901D2002300E0DB1E01262B
:1010400006FA05F1491E214099409E40761E164041
:101050003143F0BC02F0E5BB0CED00E0064900F0C6
:10106000070208684FF6FF03184040EA0220034ACF
:1010700010430860704700000CED00E00000FA0526
:101080001649B0F5007F0868C0F3412009D0022856
:1010900005D0086820F4C06040F48060086000203B
:1010A00070470128FBD0086820F4C06040F400704D
:1010B00008600B483222006850430A4AB0FBF2F045
:1010C000401C00E0401E4A69520501D50028F9D1B4
:1010D00048694005E3D503207047000000700040D8
:1010E0007000002040420F000248006800F4C06019
:1010F00070470000007000400248016841F48071B0
:1011000001607047007000400248016841F004012E
:1011100001607047001002402DE9F84F0446002797
:1011200000889C4D3E46000515D5E06B60B1B0F5DA
:10113000000F04D0B0F5400F2BD001270AE0E8687B
:1011400040F48030E86024E00021201D01F06CFCB8
:1011500007001ED03E462068800338D5A86D4FF0AA
:101160000008C00009D4A86D40F08050A865A86DA3
:101170004FF0010800F080500090DFF81CA2DAF870
:10118000001041F48071CAF80010FFF7B9FC8146E5
:1011900010E0D5F88800E16B20F440000843C5F862
:1011A0008800D8E7FFF7ACFCA0EB0900022801D9C2
:1011B000032704E0DAF80000C005F3D5EFB33E469C
:1011C000B8F1000F03D0A86D20F08050A8652078FA
:1011D000C00707D0D5F88800216A20F00300084333
:1011E000C5F888002078800707D5D5F88800616A9F
:1011F00020F00C000843C5F888002078800607D549
:10120000D5F88800A16A20F440600843C5F888003A
:101210002088800507D5D5F88800616B20F4402030
:101220000843C5F888002088400509D5D5F888000E
:10123000A16B20F44010084300E02EE0C5F88800C0
:101240002078400607D5D5F88800E16A20F44050A0
:101250000843C5F888002088C00507D5D5F8880060
:10126000216B20F440300843C5F8880020884FF0F7
:10127000006780044FF080684ED5D5F88800216C57
:1012800020F040600843C5F88800206CB8423BD18C
:10129000E86840F48010E8603EE0D5F8900010F473
:1012A000407014D0216D814211D0D5F89000D5F84E
:1012B000901020F4407041F48031C5F89010D5F8BA
:1012C000901021F48031C5F89010C5F89000C00747
:1012D00011D0FFF715FC074641F2883907E000BF3F
:1012E000FFF70EFCC11B494501D9032668E7D5F875
:1012F00090008007F4D5D5F89000216D20F440705F
:101300000843C5F890005BE7404505D10121201D49
:1013100001F08AFB00B106462068400317D5D5F8D6
:101320008800616C20F040600843C5F88800606C5C
:10133000B84204D1E86840F48010E86007E0404516
:1013400005D10121201D01F06FFB00B10646208868
:10135000400411D5D5F88800A16C20F04050084316
:10136000C5F88800A06CB0F1805F05D10221201D76
:1013700001F05AFB00B106462088000406D555F856
:10138000880FE16C20F0804008432860304600F070
:1013900005B80000001002400070004018BCBDE815
:1013A000E08F00002DE9F0470F46050058D0404E71
:1013B000306800F00700B84209D2306820F007001A
:1013C00038433060306800F00700B84248D12878D0
:1013D000384CC0072CD06868032811D0022812D0DE
:1013E000216898B1490500293ADAA16821F0030182
:1013F0000143A160FFF784FB804641F2883910E089
:1014000021688901EFE721688903ECE78907EAE7AA
:10141000FFF776FBA0EB0801494502D90320BDE8A0
:10142000F087A068696800F00C00B0EB810FEFD185
:101430002878800705D5A068A96820F0F000084347
:10144000A060306800F00700B8420BD9306820F087
:10145000070038433060306800F00700B84201D020
:101460000120DCE72878400705D5A068E96820F46A
:10147000E0600843A0602878000706D5A0682969C5
:1014800020F4605040EAC100A06000F05FF8A1685D
:10149000094AC1F30311515C01F01F01C84007491B
:1014A000086007480068BDE8F047FFF755BD000039
:1014B0000020024000100240F46900087000002083
:1014C000680000200F2202600C4A936803F00303B7
:1014D0004360936803F0F0038360936803F4E06370
:1014E000C36092684FF4E06303EAD20202610448E9
:1014F000006800F00700086070470000001002401C
:10150000002002400548064900688968054AC1F381
:101510000221515C01F01F01C8407047700000209B
:1015200000100240346A00080548064900688968CE
:10153000054AC1F3C221515C01F01F01C840704748
:101540007000002000100240346A000870B5254980
:10155000002318468A68CC6812F00C0204F00306D7
:10156000214C4FEA640509D00C2A05D0042A32D058
:10157000082A00D1284670BD012E10D10B681B0728
:1015800004D4D1F89430C3F3032302E00B68C3F30F
:101590000313164E56F82330DAB10C2AEBD1C86883
:1015A00000F00300022818D0032818D01846CA6893
:1015B000CB68C2F30212C3F306234343521CB3FBAE
:1015C000F2F2C868C0F34160401C4000B2FBF0F08A
:1015D00070BD184670BD204670BD2046E7E728461E
:1015E000E5E70000001002400024F400046A00084F
:1015F0002DE9F84304006FD0FE4DA86800F00C06FA
:10160000E86800F003072078C00664D576B10C2E98
:1016100001D1012F0AD0A069002828687AD040F0B3
:1016200001002860FFF76CFA80465DE028688007BB
:1016300002D5A0690028DED0216A2868000703D5FA
:10164000286800F0F00004E0D5F89400F02202EAE7
:101650001010814216D9084601F07CFA00283BD1CF
:10166000286840F0080028602868216A20F0F0000F
:10167000084328606868E16920F47F4040EA01205F
:10168000686016E0286840F0080028602868216A31
:1016900020F0F000084328606868E16920F47F408A
:1016A00040EA0120686026B9206A01F053FA002858
:1016B000D5D1FFF74BFFA968CF4AC1F30311515CA5
:1016C00001F01F01C840CD490860CD480068FFF710
:1016D00043FC00287ED12EE0CAE000BFFFF710FADD
:1016E000A0EB0800022876D828688007F6D528687D
:1016F00040F0080028602868216A20F0F0000843C4
:1017000028606868E16920F47F4040EA0120686051
:1017100011E0FFE720F001002860FFF7F1F98046B3
:1017200006E000BFFFF7ECF9A0EB08000228DAD8CA
:1017300028688007F6D42078C00740D0082E18D03B
:101740000C2E01D1032F14D06068B0F5803F17D064
:10175000B0F5A02F286817D020F4803028602868C2
:1017600020F4802028606068E0B1FFF7C9F9804666
:1017700014E02868800322D56068002878D01EE035
:10178000286840F48030EDE740F480202860F7E7D7
:10179000FFF7B6F9A0EB08006428A4D828688003F6
:1017A000F6D50CE0FFF7ACF9804605E0FFF7A8F9A5
:1017B000A0EB0800642896D828688003F6D4207827
:1017C00080073BD5042E11D00C2E01D1022F0DD055
:1017D000E06801E0B6E1FFE0002828681ED040F490
:1017E00080702860FFF78CF907460CE028684005F8
:1017F0000CD5E0680028C1D008E000BFFFF780F9F1
:10180000C01B022893D828684005F7D56868217C5A
:1018100020F0F85040EA016068600FE020F480702A
:101820002860FFF76DF9074605E000BFFFF768F98C
:10183000C01B0228B1D828684005F7D420780007DB
:1018400029D560690028D5F8940012D040F0010035
:10185000C5F89400FFF754F9074604E0FFF750F984
:10186000C01B022899D8D5F894008007F6D512E05D
:101870002BE120F00100C5F89400FFF741F907467D
:1018800005E000BFFFF73CF9C01B022885D8D5F85A
:1018900094008007F6D42078400766D5A86D00270D
:1018A000C00008D4A86D40F08050A865A86D01273D
:1018B00000F08050009053480168C90512D40168B7
:1018C000814641F480710160FFF71AF9804605E016
:1018D000FFF716F9A0EB080002287DD8D9F8000020
:1018E000C005F5D5A068012816D00528D5F89000C8
:1018F00017D020F00100C5F89000D5F8900020F036
:10190000040000BFC5F89000A06841F28839C0B15A
:10191000FFF7F6F880460FE0D5F8900040F00100A0
:10192000F0E740F00400C5F89000F5E7FFF7E8F8AD
:10193000A0EB080149454FD8D5F890008007F5D5B0
:101940000EE0FFF7DDF8804606E000BFFFF7D8F8AD
:10195000A0EB080149453FD8D5F890008007F5D4A1
:101960001FB1A86D20F08050A8652078800628D58A
:10197000606A0028D5F8980012D040F00100C5F840
:101980009800FFF7BDF8074605E000BFFFF7B8F87D
:10199000C01B022820D8D5F898008007F6D510E0A3
:1019A00020F00100C5F89800FFF7AAF8074604E008
:1019B000FFF7A6F8C01B02280ED8D5F898008007BC
:1019C000F6D4A06AA8B1022824D00C2E7DD02868B5
:1019D00020F08070286000E0B3E02868000103D4A4
:1019E000E86820F00300E860E86807490840E8601C
:1019F0000CE09FE000100240F46900087000002035
:101A00006800002000700040FFFFEEFEFFF778F84E
:101A1000044699E0E868E26A00F00301914226D1A9
:101A2000216B00F070020901103991421FD1626BE5
:101A300000F4FE41B1EB022F19D194F8382000F0E8
:101A40007841B1EBC26F12D1A18F00F4C0024908F6
:101A50004905A1F50011914209D194F8401000F018
:101A6000C06049084906A1F1007181424BD00C2E9B
:101A70006FD0286840016CD4286820F080702860FE
:101A8000FFF73EF8064604E0FFF73AF8801B02280D
:101A900057D828688001F7D4F4E90B016FF00F02E2
:101AA00002EB01110843218A5204490802EB41511B
:101AB000A26841EA02210843217D4FF07E42490895
:101AC00002EB41610843217B00E042E040EAC16053
:101AD000E968214A11400843E860286840F08070B6
:101AE0002860E86840F08070E860FFF709F8044675
:101AF00005E000BFFFF704F8001B022821D8286882
:101B00008001F7D523E02868800120D4286840F0C0
:101B100080702860E86840F08070E860FEF7F0FFB1
:101B2000044604E0FEF7ECFF001B022809D82868F1
:101B30008001F7D50BE000BFFEF7E2FF001B022893
:101B400002D90320BDE8F88328688001F4D400207E
:101B5000F8E70120F6E700008C809D017047704790
:101B600070470000F0B590F83C20012A29D00124EC
:101B700080F83C40022280F83D2003685A689D6846
:101B8000114EB34203D122F470074A683A4322F05F
:101B900070070A683A435A600268B24205D0B2F14F
:101BA000804F02D0094B9A4204D1896825F0800306
:101BB0001943916080F83D40002180F83C100846B0
:101BC000F0BD0220F0BD0000002C014000400140AB
:101BD00010B5040003D094F83D0010B107E00120D7
:101BE00010BD002084F83C00204600F023F80220BD
:101BF00084F83D00211D206801F04EFA012084F890
:101C0000480084F83E0084F83F0084F8400084F8DF
:101C1000410084F8420084F8430084F8440084F8CA
:101C2000450084F8460084F8470084F83D00002011
:101C300010BD000008B50068B0F1804F08D105481C
:101C4000816D41F001018165806D00F0010000901F
:101C500008BD00000010024090F83D10012901D09D
:101C600001207047022180F83D100168CA6842F0E7
:101C70000102CA6000680B49884205D0B0F1804F6C
:101C800002D00949884207D18168084A11400629D3
:101C900006D0B1F5803F03D0016841F00101016039
:101CA00000207047002C0140004001400700010067
:101CB00070B5044690F83C00012817D0012584F83F
:101CC0003C50022084F83D00226890682E4B18405A
:101CD00020F47F4090600868502830D00DDC202828
:101CE0004DD005DC98B310283BD148E0022070BDF0
:101CF000302844D0402834D139E0602828D07028DA
:101D000006D0B0F5805F2CD0B0F5005F29D10AE095
:101D1000CB68D1E90121206801F001FA20688168CF
:101D200041F0770109E0CB68D1E90121206801F099
:101D3000F6F92068816841F48041816011E0CA6849
:101D40004968206801F03CFB5021206807E016E05C
:101D5000CA684968206801F044FB6021206801F0EE
:101D6000E8F984F83D50002084F83C0070BDCA6852
:101D70004968206801F024FB40212068EFE72268D1
:101D800001461046EBE7000088FFFEFF704770B584
:101D90000446006801694FF00005C943890715D45E
:101DA000C168C943890711D4E91E01610120207768
:101DB000206880698007204602D0FFF7E7FF04E033
:101DC00000F0CEF8204600F08DF9257720680169F3
:101DD000C943490717D4C168C943490713D46FF0F1
:101DE00004010161022020772068806910F4407F9F
:101DF000204602D0FFF7CAFF04E000F0B1F8204609
:101E000000F070F9257720680169C943090716D4E5
:101E1000C168C943090712D46FF0080101610420A9
:101E200020772068C0698007204602D0FFF7AEFF08
:101E300004E000F095F8204600F054F9257720687A
:101E40000169C943C90617D4C168C943C90613D477
:101E50006FF010010161082020772068C06910F43C
:101E6000407F204602D0FFF791FF04E000F078F8B1
:101E7000204600F037F9257720680169C943C90772
:101E800008D1C168C943C90704D1891E0161204630
:101E900000F092F920680169C943090609D4C168B4
:101EA000C943090605D46FF0800101612046FFF7A0
:101EB00056FE20680169C943C90509D4C168C943F0
:101EC000090605D46FF4807101612046FFF746FED4
:101ED00020680169C943490609D4C168C943490654
:101EE00005D46FF040010161204600F06FF92068D1
:101EF0000169C94389060BD4C168C943890607D45F
:101F00006FF0200101612046BDE87040FFF728BE58
:101F100070BD000010B586B0044614216846FEF777
:101F200010FA2068B0F1804F16D10C48C16C41F016
:101F30000101C164C06C694600F0010005902020D9
:101F40000090022001900020029003900120049054
:101F50004FF09040FEF7F8FC06B010BD00100240B4
:101F6000704770B5044690F83C000D4601280BD030
:101F7000012084F83C000C2A45D007DC5AB1042A21
:101F80001BD0082A78D12CE0022070BD102A4ED038
:101F9000142A71D15DE0206801F0D4F820688169CD
:101FA00041F0080181612068816921F004018161AB
:101FB000206881692A69114311E0206801F0FEF868
:101FC0002068816941F4006181612068816921F4A0
:101FD00080618161206881692A6941EA0221816109
:101FE0004AE0206801F026F92068C16941F0080143
:101FF000C1612068C16921F00401C1612068C16923
:102000002A69114311E0206801F04EF92068C16986
:1020100041F40061C1612068C16921F48061C1613E
:102020002068C1692A6941EA0221C16124E020686F
:1020300001F06AF92068416D41F0080141652068AE
:10204000416D21F0040141652068416D2A69114309
:1020500011E0206801F086F92068416D41F40061CB
:1020600041652068416D21F4806141652068416DC2
:102070002A6941EA02214165002084F83C0070BDD4
:1020800010B5040003D094F83D0010B107E0012022
:1020900010BD002084F83C00204600F022F8022009
:1020A00084F83D00211D206800F0F6FF012084F82F
:1020B000480084F83E0084F83F0084F8400084F82B
:1020C000410084F8420084F8430084F8440084F816
:1020D000450084F8460084F8470084F83D0000205D
:1020E00010BD70477047000010B50446022269B168
:1020F000042912D0082917D00C291CD0102921D06E
:1021000094F84300012824D0012010BD94F83E002B
:102110000128F9D184F83E201DE094F83F00012801
:10212000F2D184F83F2016E094F840000128EBD16A
:1021300084F840200FE094F841000128E4D184F8AD
:10214000412008E094F842000128DDD184F84220C3
:1021500001E084F843200122206800F0D3FF1249F7
:102160002068124A884204D0904202D0104B984214
:1021700003D1436C43F4004343642068884204D095
:10218000B0F1804F01D0904207D18168094A1140D7
:10219000062906D0B1F5803F03D0016841F0010166
:1021A0000160002010BD0000002C014000400140F3
:1021B000004401400700010000680349884201D142
:1021C000FEF7B2BE70470000002C01407047704718
:1021D000704770472DE9F04102680446D0691168E4
:1021E000936840F60F0528424FF0000505D186069A
:1021F00078D58E0676D5616EF3E0834F03F0010645
:102200000F4037437ED0C70709D0CF0507D5012738
:102210001762D4F8802042F00102C4F880208207BF
:102220000AD5DA0708D0276802223A62D4F880205B
:1022300042F00402C4F8802042070AD5DA0708D029
:10224000236804221A62D4F8802042F00202C4F803
:10225000802002070CD501F02002324308D0236809
:1022600008221A62D4F8802042F00802C4F88020C4
:1022700002050BD54A0109D523684FF400621A62A2
:10228000D4F8802042F02002C4F88020D4F88020C6
:10229000002A2FD0800605D5880603D5616E09B1C6
:1022A00020468847D4F8800021688968490602D40E
:1022B00010F0280F20D0204601F041F920688168F5
:1022C000490614D5816821F040018160206F70B10A
:1022D0004E498163206FFEF710FB00280AD0206F63
:1022E000816B01E00EE02046BDE8F0410847204642
:1022F000FFF76FFFBDE8F0812046FFF76AFFC4F8E3
:102300008050F7E7276E2026012F59D1C70657D5F1
:10231000CF0655D5102010622268906840062ED551
:10232000216F086840680004000CE3D0B4F858300E
:102330008342DFD9A4F85A0008680068800617D4E1
:10234000106820F4807010602068816821F001011D
:1023500081602068816821F040018160E667256620
:102360002068016821F010010160206FFEF7A0FADB
:10237000B4F85800B4F85A10401A81B21CE0B4F80E
:102380005800B4F85A10401A81B2B4F85A00002824
:10239000B0D00029AED0106820F490701060206892
:1023A000826822F001028260E66725666566206821
:1023B000026822F0100202602046FFF708FF99E74A
:1023C000C70209D55B0207D54FF480101062204682
:1023D000BDE8F041FFF7FCBE030606D50B0604D5A9
:1023E000A16E00297FF47FAF84E7400682D54806BE
:1023F00080D5106820F040001060A6672046A566D2
:1024000000F04FF976E70000200100042B350008AA
:1024100010B5040002D0A06F10B107E0012010BD7C
:10242000002084F87400204600F026F82420A067DD
:102430002068016821F001010160204601F098F850
:102440000128ECD0606A10B1204600F0DCFF206863
:10245000416821F4904141602068816821F02A019F
:1024600081602068016841F0010101602046BDE8FB
:10247000104001F02CB8000010B586B004461421BD
:102480006846FDF75EFF16492068884226D1154848
:10249000016E41F480410166016E01F480410591B5
:1024A000C16C41F00201C164C06C694600F00200D9
:1024B0000590C0200090022001900020029003208F
:1024C0000390072004900848FEF73EFA00220521F9
:1024D0002520FEF7A3FD2520FEF792FD06B010BDD6
:1024E0000038014000100240000400482DE9F84F78
:1024F0000446C06F9A4616460D46202870D10DB38B
:1025000006B394F8740001286AD0012084F874009E
:102510004FF00008C4F880802221E167C4F8608091
:102520005834FEF7EDFA24F8026B814624F852691C
:102530004FF4805354F80809FF21984208D12269CA
:102540001AB11CE0012000F04DB840F2FF1116E076
:102550007F2290B1B0F1805F14D0A4F85C8000BFFE
:10256000B4F85C70984201D1206990B12E460025E4
:1025700084F8748007F0FF0825E0266936B9A4F8CE
:102580005C10EDE7216909B13F21F8E7A4F85C2070
:10259000E6E70026ECE74B46002220212046CDF856
:1025A00000A001F0D5F808B10320CCE72068808CAA
:1025B0008EB100EA080006F8010B00BFB4F85A001B
:1025C000401EA4F85A00B4F85A000028E3D1202095
:1025D000E0670020B7E7384025F8020BEEE7FFE799
:1025E0000220B0E718BCBDE8E08F00002DE9F843F9
:1025F0000446806F1F4616460D4620284FD1CDB1A8
:10260000C6B194F87400012849D0012084F8740000
:102610004FF00008C4F880802120A067FEF770FA10
:10262000A4F850608146A4F85260A068B0F5805FBD
:1026300003D004E00120BDE8F883206928B12E46CC
:102640005FF0000584F8748010E00026FAE780212E
:10265000204601F07DF8B8B9C6B116F8010B216823
:102660000885B4F85200401EA4F85200B4F8520095
:102670004B464FF0000200970028E8D14FF0400190
:10268000204601F065F830B10320D4E735F8020B9D
:10269000C0F30800E3E72020A0670020CBE702207A
:1026A000C9E77047FEE701688A69D243920701D4FF
:1026B00000228A6200688169C943C90703D0816921
:1026C00041F00101816170472DE9F0410446006845
:1026D00090460E468069C043C00633D400252027AB
:1026E00020688069C043800615D5701CF8D0FEF7BD
:1026F00007FAA0EB0800B04201D8002EF0D154F840
:10270000440F40F0200044F804096770A57025705C
:102710000120BDE8F08121681020C8612068C761F0
:102720002046FFF7C0FF54F8440B4168064A1140A9
:102730004160206840F0040044F820096777A577DD
:102740002577E5E70020E4E700E800FEF0B505683E
:10275000059C68684FF48066064FC1F3090106EADC
:10276000545641EA02413E431943B04321430843D2
:102770006860F0BDFF63FF032DE9F0411D46174679
:102780000E460446DDF8188008E0681C06D0FEF707
:10279000B7F9A0EB0800A8420BD855B120688069B2
:1027A00036EA000012D00020B842EED00020BDE88A
:1027B000F08154F8440F40F0200044F80409202030
:1027C00060700020A07020700120F0E70120EBE78E
:1027D00070B516460D4604460DE0324629462046A1
:1027E000FFF772FF08B1012070BDFEF789F9801B69
:1027F000A84207D835B120688069C0438006ECD470
:10280000002070BD54F8440F40F0200044F8040943
:10281000202060700020A0702070E4E770B516469C
:102820000D4604460FE0324629462046FFF74CFF8E
:1028300008B1012070BD681C05D0FEF761F9801B4E
:10284000A84207D835B120688069C0438007EAD420
:10285000002070BD54F8440F40F0200044F80409F3
:10286000202060700020A0702070E2E730B587B0B3
:1028700014216846FDF765FD1E48C16C41F0040156
:10288000C164C16C01F004010591C16C41F001010A
:10289000C164C16C01F001010591C16C41F00201FC
:1028A000C164C06C4FF0904500F00200059000221A
:1028B000C0212846FEF71EF9002440F20310CDE99E
:1028C0000004694628460294FEF73EF8C0200090B6
:1028D0000120CDE90104694628460394FEF734F847
:1028E0000320CDE90004694603480294FEF72CF862
:1028F00007B030BD0010024000040048124810B577
:10290000104901601149416000210122C0E9021211
:10291000016141618161C1610162FEF74BF908B15A
:1029200072B6FEE700210848FEF7F0F808B172B66B
:10293000FEE700210448FEF714F9002801D072B622
:10294000FEE710BD005400403005002091297000C2
:1029500010B58EB000240794089409940A940B943F
:102960000C941C2168460D94FDF7EBFC1E484FF0BB
:10297000804101604FF43471C0E9011440F2CF711D
:10298000C0E903148461FFF723F908B172B6FEE7CA
:102990004FF48050079007A91348FFF789F908B151
:1029A00072B6FEE71048FFF76BFB08B172B6FEE7A0
:1029B0000B940BA90C480D94FFF7D4F808B172B62C
:1029C000FEE76020CDE90004029400226946064833
:1029D0000494FFF7C6FA08B172B6FEE70248FFF7A3
:1029E00099FA0EB010BD00007C0500200C4810B50F
:1029F0000A4901604FF416514160002181600C22A8
:102A0000C160C0E904128161C16101624162FFF7E6
:102A1000FFFC002801D072B6FEE710BD003801406F
:102A2000C8050020FEE7FEE72DE9F041444C0546CD
:102A30008846E0680026810728680DD0E16801F02B
:102A40000301814216D1A8B1E0686968C0F30210A1
:102A5000401C88420ED120E0012804D0022805D075
:102A6000032807D108E02168890701E021684905AA
:102A7000002907DB01265FE02168890302D4216871
:102A80004903F5E7E1686A686FF00F0321F073010D
:102A900003EB021211430143E160206820F08060E3
:102AA0002060FEF72DF8074605E000BFFEF728F886
:102AB000C01B022837D820680001F7D4B8F1000FF6
:102AC00018D0B8F1010F1DD0287D4FF07E4140088D
:102AD00001EB4060A96840EA01202169194A1140D0
:102AE00008432061206840F080602060FEF708F80D
:102AF00007461AE0A868297B000240EAC160216904
:102B0000114AECE7288A1149400801EB4050A968B6
:102B100040EA012021690E4AE1E700BFFDF7F0FF1E
:102B2000C01B022801D9032606E020680001F5D564
:102B30002069A969084320613046BDE8F0810000A2
:102B400000100240FF80FFF9FF80FF070000E0FF58
:102B5000FF809FFFF8B51C4D06460024A86DC000FD
:102B600002D5FEF7C1FA0DE0A86D40F08050A865CF
:102B7000A86D00F080500090FEF7B6FAA96D21F024
:102B80008051A965B0F5007F04D0802E07D94FF0A1
:102B900003040AE0802E08D9A02E01D804E001D158
:102BA000022402E0702E00D101240848016821F0BF
:102BB000070121430160006800F00700A04201D036
:102BC0000120F8BD0020F8BD0010024000200240A6
:102BD00010B5002000F024F8BDE8104000F04AB91C
:102BE00070B5802813D2402911D20B4B012401F07B
:102BF00007051E79AC40094BC90800EBC1100EB1A6
:102C000032B101E0012A03D0195CA143195470BD0F
:102C1000195C2143FAE7000000000020FC000020BE
:102C200028B1FF224FF480610248FDF783BB0022E8
:102C3000F8E70000FC000020014A10805180704736
:102C40000000002010B501F093FD44F6206301223E
:102C500078215448FEF70AF808B1002010BD40F66C
:102C6000C210401EFDD1AE220021782001F086FD69
:102C700020220021782001F081FD102200217820FF
:102C800001F07CFDB0220021782001F077FDC82200
:102C90000021782001F072FD00221146782001F019
:102CA0006DFD10220021782001F068FD40220021F6
:102CB000782001F063FD81220021782001F05EFD83
:102CC000FF220021782001F059FDA1220021782067
:102CD00001F054FDA6220021782001F04FFDA8222A
:102CE0000021782001F04AFD3F220021782001F0E8
:102CF00045FDA4220021782001F040FDD3220021CF
:102D0000782001F03BFD00221146782001F036FDCD
:102D1000D5220021782001F031FDF0220021782019
:102D200001F02CFDD9220021782001F027FD22227C
:102D30000021782001F022FDDA220021782001F024
:102D40001DFD12220021782001F018FDDB22002158
:102D5000782001F013FD20220021782001F00EFDE3
:102D60008D220021782001F009FD14220021782015
:102D700001F004FDAF220021782001F0FFFC2E229B
:102D80000021782001F0FAFC0020FFF749FF00F055
:102D900071F80548002101804180012141710846F8
:102DA00010BD000030050020000000202DE9F04794
:102DB000814625480D46924601882A78114480298B
:102DC00005D28046408869780844402802D3002014
:102DD000BDE8F08700262AE0A9F1200111FB006080
:102DE0006A68002432F810701DE000BF07FA04F092
:102DF000000409D5B8F80210B8F8000031442044A6
:102E000089B280B252460BE0BAF1000F1AD000220C
:102E1000B8F80210B8F800003144204489B280B2FA
:102E2000FFF7DEFE641C2878A042DFD8761C6878A5
:102E3000B042D1D8B8F800102A7848461144A8F812
:102E40000010C5E70122E3E70000002070B5154639
:102E50000E46044609E02A463146FFF7A7FF2178CF
:102E6000884201D0C8B270BD641C20780028F2D11D
:102E7000C0B270BD70B5104D002400BF04F1B000A9
:102E8000C2B20021782001F079FC0022114678209E
:102E900001F074FC10220021782001F06FFC05EB9A
:102EA000C41280234021782001F078FC641CE4B235
:102EB000082CE3D370BD0000FC000020012000F0CE
:102EC000DBFDFBE712484FF0904310A103608160E7
:102ED00001228280452181710EA44461C3600223D6
:102EE000038281740CA404620C4C84618283817718
:102EF0000BA24462C262038580F82A10044801F0E4
:102F000013FC012000F0B8FDF8E70000503100008C
:102F10004C060020503200005033000000040048EE
:102F200050340000FFF754FE0348FDF77FFC0120FA
:102F300000F0A2FDF8E700004C0600200C4D0D4CFF
:102F40004FF47A762946A06B02F08EFA60B13146D2
:102F5000206C02F089FA38B1FDF75AFA00231A46BC
:102F60001946206C02F074F8012000F085FDE9E7B5
:102F70007F96980014000020034C00BFFDF7FAFB79
:102F8000A06C00F079FDF9E71400002010B54FF0B7
:102F9000E020006902F0D4FB012803D0BDE8104016
:102FA00001F044BF10BD000010B5ACB0442168462C
:102FB000FDF7C7F9142126A8FDF7C3F9542111A87C
:102FC000FDF7BFF9FEF798F8204850F8901F21F060
:102FD000180101601420009001200290002460215B
:102FE0000690CDE907410221CDE90A100C90282076
:102FF0000D900720CDE90E0168461091FEF7F8FA12
:1030000008B172B6FEE70F2026900320CDE9270411
:103010002994042126A82A94FEF7C4F908B172B6AF
:10302000FEE74120119019941C9411A8FEF774F842
:1030300008B172B6FEE74FF40070FEF721F808B150
:1030400072B6FEE7FEF760F82CB010BD001002402B
:103050000B48016841F4700101600A48016841F0C1
:1030600001010160002181600268074B1A40026083
:103070008214C260026822F480220260816170477B
:1030800088ED00E000100240FFFFF6EA0148FEF77D
:103090007EBE0000B006002070B50268164B4FF0EF
:1030A0008046984201D0B04203D122F070044A68B1
:1030B0002243124C124D984205D0B04203D0A04298
:1030C00001D0A84203D122F44076CA6832434E6947
:1030D00022F08002324302608A68C2620A68826219
:1030E000984203D0A04201D0A84201D109690163EE
:1030F0000121416170BD0000002C014000400140F1
:103100000044014010B501F01F030121046A9940F9
:103110008C430462016A9A401143016210BD10B5EC
:10312000846842EA032224F47F440A4322438260F3
:1031300010BD826822F070020A4342F007018160EC
:1031400070470000F0B5026A22F001020262056ACF
:1031500043688269154C25F0020522400C6822F074
:10316000030214438A68134E2A43114D124FA8429A
:1031700003D0B04201D0B84206D122F0080CCA6890
:1031800042EA0C0222F00402A84203D0B04201D06D
:10319000B84205D14D6923F440731D438B692B431D
:1031A00043608461496841630262F0BD8FFFFEFFA6
:1031B000002C0140004001400044014030B5026A4B
:1031C00022F010020262046A42688369154D2B40A6
:1031D0000D6823F4407343EA052524F020038C682E
:1031E00043EA0413104CA04207D1CC6823F08003BB
:1031F00043EA041323F0400305E00C4CA04202D044
:103200000B4CA04207D14C6922F4406242EA84028E
:103210008C6942EA84024260856149688163036285
:1032200030BD0000FF8FFFFE002C01400040014038
:103230000044014030B5026A22F480720262046ADE
:103240004268C369144D2B400D6823F003031D43EE
:1032500024F400738C6843EA0423104CA04207D185
:10326000CC6823F4006343EA042323F4806305E07D
:103270000B4CA04202D00B4CA04207D14C6922F467
:10328000405242EA04128C6942EA04124260C5616B
:103290004968C163036230BD8FFFFEFF002C01400F
:1032A000004001400044014030B5026A22F48052DF
:1032B0000262046A4268C3690F4D24F400542B4033
:1032C0000D6823F4407343EA05238D6844EA05340E
:1032D0000A4DA84205D00A4DA84202D0094DA84285
:1032E00004D14D6922F4804242EA85124260C361F2
:1032F00049680164046230BDFF8FFFFE002C01406D
:10330000004001400044014030B5026A22F480329E
:103310000262046A4268436D0E4D2B400D681D43E6
:1033200024F400330C8943EA04430B4CA04205D03B
:103330000A4CA04202D00A4CA04204D14C6922F4AB
:10334000803242EA04224260456549688165036231
:1033500030BD00008FFFFEFF002C01400040014007
:103360000044014030B5026A22F480120262046A0D
:103370004268436D0E4D24F400142B400D6843EA5F
:1033800005230D8944EA05540A4DA84205D00A4D8B
:10339000A84202D0094DA84204D14D6922F48022EE
:1033A00042EA8522426043654968C165046230BDD6
:1033B000FF8FFFFE002C014000400140004401400F
:1033C00010B5036A046A24F001040462846924F0DD
:1033D000F00444EA021423F00A020A438461026200
:1033E00010BD10B5036A23F0100303628369046AF9
:1033F00023F4704343EA023224F0A00343EA0111AC
:103400008261016210BD90F82410C90706D00168DE
:103410004A68836A22F400321A434A6090F8241002
:10342000890706D501684A68C36A22F480321A43C4
:103430004A6090F82410490706D501684A68036B72
:1034400022F480221A434A6090F82410090706D516
:1034500001684A68436B22F400421A434A6090F8BC
:103460002410C90606D501688A68836B22F480524D
:103470001A438A6090F82410890606D501688A6884
:10348000C36B22F400521A438A6090F82410490654
:1034900011D501684A68036C22F480121A434A600D
:1034A000016CB1F5801F06D101684A68436C22F4B3
:1034B000C0021A434A6090F82410090606D5016834
:1034C0004A68806C22F4002202434A607047F8B5D3
:1034D00000260446C0F88060FDF712FB0546206810
:1034E00000686FF07E47000708D52B4600224FF496
:1034F00000112046009700F02BF960B920680068A1
:1035000040070AD52B4600224FF480012046009741
:1035100000F01EF908B10320F8BD2020A067E06785
:10352000266684F874600020F8BD10B5806A00211A
:10353000A0F85A10A0F85210FEF74BFE10BD01681B
:103540000A6822F490720A6001688A6822F0010217
:103550008A60016E012904D101680A6822F0100214
:103560000A602021C16700210166416670470000A2
:103570002DE9F041044600682269A168E66911431B
:1035800062690025324311436A4B02686A4E324039
:103590000A43026020684168E26821F44051114307
:1035A00041602168A069994201D0226A10438A686B
:1035B00022F4306202438A606049276860488F4283
:1035C0000DD1D0F8880010F0030006D0012838D0C3
:1035D000022834D0032821D135E001211FE05949C8
:1035E0008F420BD1D0F8880010F00C0025D00428B1
:1035F00027D0082823D00C2810D124E09F420DD1D9
:10360000D0F8880010F4406017D0B0F5806F18D063
:10361000B0F5006F13D0B0F5406F14D010214A48B8
:1036200000264FF400429F422DD171B1022912D0E1
:1036300004290DD0082971D123E00021EFE70221F0
:10364000EDE70421EBE70821E9E7FDF75BFF01E087
:10365000FDF77CFFE8B3626802EB420181425DD86E
:10366000B0EB023F5AD8010E0302500818187141FE
:103670000023FCF719FE354AA0F54071914251D95B
:103680004CE01046E7E7E3694FF6EF77934229D124
:10369000092943D2DFE801F005080E420B424242FD
:1036A0002400FDF72FFF04E0FDF73EFF01E0FDF7EA
:1036B0004DFF70B14100606801EB5001B1FBF0F0CB
:1036C00080B2A0F11001B94228D84FF6F071014044
:1036D00000E029E0C0F3420001432068C16023E01C
:1036E0001046E7E7092919D2DFE801F005080E18AE
:1036F0000B1818181A00FDF705FF04E0FDF714FF7A
:1037000001E0FDF723FF78B1616800EB5100B0FBE9
:10371000F1F080B2A0F11001B94203D9012503E014
:103720001046F1E72168C86066662846A666BDE8CF
:10373000F081000000800040F369FFEF0038014095
:1037400000100240004400400024F400FFFC0F0081
:103750002DE9F0479A4617460E4604464FF00009F9
:103760004FF02008089D39E0681C37D0FDF7C8F9F4
:10377000A0EB0A00A84222D80DB3206801684907CF
:103780002CD5C069C043000528D421684FF40060DF
:1037900008622068016821F4D071016020688168A6
:1037A00021F001018160C4F87880C4F87C80C4F8FD
:1037B000808000BF84F874900320BDE8F087206803
:1037C000016821F4D07101602068816821F0010155
:1037D0008160C4F87880C4F87C80EBE72068C06919
:1037E00036EA000004D00020B842BDD00020E4E753
:1037F0000120F9E7084810B50068016821F02001B0
:10380000016006480021006801F039FDBDE8104064
:103810000148FEF7DFBC0000C80500204C00002076
:10382000FEE70907090E002804DB00F1E02080F81C
:103830000014704700F00F0000F1E02080F8141D24
:10384000704702E008C8121F08C1002AFAD1704769
:103850007047002001E001C1121F002AFBD1704710
:1038600010B5002821D0114B0022001F196803E079
:10387000814203D80A4649680029F9D152B1136838
:10388000841A9C4204D1006818441060104602E07B
:10389000506000E0186039B102680B1A934203D1FE
:1038A0000B681A4402604968416010BDF4000020B2
:1038B000FDF742FBFFF778FBFEF7D8FFFFF71EF896
:1038C000FFF794F8FFF744F832214348FCF739FD3D
:1038D00032214248FCF735FD4148FEF7BDF940482A
:1038E0004C300068016841F020010160FFF7AAF93F
:1038F000FFF76EF90020FFF793F9FFF7BBFA0021FD
:103900000846FFF799F90122364937A0FFF79EFADA
:10391000FFF7B0FA0020FCF723FE00221146104604
:10392000FCF7F8FE324C00204FF4FA616080A1648D
:1039300020706070E06400F0AFF82E4800F020F9CD
:1039400020632C48103000F01BF96063012001F067
:10395000C2FA284A012120642032084600F05EF9AC
:10396000244A0121A0633032084600F057F9214A69
:10397000E063303A0221102000F0BEF81D4AA06238
:10398000183A0221102000F0B7F81A4AE062E43A2F
:103990000021194800F09CF9164A6061C03A0021E4
:1039A000164800F095F9134AA0619C3A002114488A
:1039B00000F08EF90F4AE061783A0021114800F0DA
:1039C00087F90C4A2062543A00210F4800F080F930
:1039D000606200F075F8FEE7FC0400207C06002021
:1039E0007C0500200800002048454C4C4F0000009A
:1039F00014000020B4690008BD2E0008C52E000880
:103A0000252F00083D2F0008792F0008F0B50B3056
:103A1000154D20F007010024144A0FE003688B4283
:103A20000BD38B4205D95E1A43184768C3E9006778
:103A300000E04368136002C004E0021D1068002823
:103A4000ECD12046002802D1286808B10020F0BD42
:103A5000064A07481060074A121A22F00702C0E916
:103A6000002401202860D7E7F8000020F40000209F
:103A7000742300207025002010B50146EFF3058067
:103A800010B16FF0050404E0002411B1084601F004
:103A90000DF8204610BD0000EFF30580002802D08D
:103AA0006FF0050070470548016811B14FF0FF3015
:103AB000704701210160002070470000C400002011
:103AC00010B5EFF30580002802D06FF0050010BD9F
:103AD00007480168012902D04FF0FF3010BD054AA8
:103AE000002111700221016001F098F8002010BD42
:103AF000C40000201FED00E0F8B5844614464FF0E6
:103B00000005EFF30580002838D1BCF1000F35D057
:103B1000002933D0421EB4B1A06858B1E368502BDD
:103B200008D3236933B163690CFB01F6B34201D3B7
:103B3000012209E040B9E06830B9206920B9606924
:103B400010B9002200E00022012A01D04AB10DE0A4
:103B5000002000906046A368226901F0F8F905464C
:103B600004E00022604601F0D0F9054635B10CB101
:103B7000216800E00021284600F030FF2846F8BD0B
:103B800070B504464FF00005EFF30580002843D1DF
:103B90000CB1606800E0002010F0010F01D0012698
:103BA00000E0002610F0080F36D14FF0FF305CB176
:103BB000A16821B1E268502A01D3012005E021B9B2
:103BC000E16811B9002000E00020012801D068B1AF
:103BD00016E02EB10420A16801F089F905460FE036
:103BE0000120A16801F083F9054609E026B104200F
:103BF00001F071F9054603E0012001F06CF905467A
:103C000035B10CB1216800E00021284600F0E6FE45
:103C100015B10EB145F00105284670BDF8B50E4648
:103C200014464FF00005EFF3058100294ED100281E
:103C30004CD086424AD84A1E5CB1A36823B1E168E1
:103C4000502901D3012205E023B9E16811B900220E
:103C500000E00022B2F1FF3F38D0012809D0012A4C
:103C60002AD0314601F0F8F805467DB354B32168F7
:103C700029E0012A16D003220021012001F045F994
:103C80000546002DF1D0002EEFD000231A4619462C
:103C9000284601F0DDF90128E7D0284600F0B2FE01
:103CA0000025E2E703200090002211460120A368CE
:103CB00001F04DF90546E4E73146A26801F0EAF863
:103CC0000546D2E70021284600F088FE2846F8BDC8
:103CD0002DE9F04385B00B464FF000070497EFF352
:103CE000058100294ED100284CD080244FF0180CBB
:103CF0008946491E52B3166806B1B146956905B1A9
:103D0000AC46ACF10105382D03D2157915F0010F41
:103D100003D005B00020BDE8F083556905B1AC08BB
:103D2000D2F80880B8F1000F07D0D6685C2E04D313
:103D3000166916B10DB1012109E0B8F1000F06D1E5
:103D4000D56825B9156915B9002100E000210129C0
:103D500001D061B116E09168126901920291CDF82B
:103D600000C02246494601F0BAFC04900AE004A9CA
:103D70000191A2B2CDF800C0494601F077FC0128BC
:103D800000D00497049805B0BDE8F0832DE9F04118
:103D900004460F46134EF5683068001D00F01AFD0A
:103DA000B4F1FF3F07D137B13068BDE8F041011DE4
:103DB0000D4800F062BD2C4430684460AC4206D22D
:103DC0003068011DB06BBDE8F04100F03BBD3068CC
:103DD000011D706B00F036FDB06A844200D2B462FF
:103DE000BDE8F08174000020EC0B002070B50446A3
:103DF00000F050FD1C4DA868401CA860286810B158
:103E0000686938B10CE02C60A868012808D100F07E
:103E1000ABF905E02868E16AC06A884200D82C60E6
:103E2000686A401C68626064E06A2969884200D957
:103E300028610E4900EB800001EB8000211D00F09D
:103E40001CFD00F047FD686900280CD02868E16A75
:103E5000C06A884207D206494FF080500860BFF31D
:103E60004F8FBFF36F8F70BD740000203C070020A0
:103E700004ED00E038B500F00DFD0F4C2068B8B936
:103E80000E4800F0D1FC0E4800F0CEFC0B48E0607C
:103E90001430206100200B4B009003F150021021E0
:103EA0000A2001F054F8206010B107A100F096FD3F
:103EB000BDE8384000F00EBDB0000020F00C00203E
:103EC000040D0020000C0020546D72510000000011
:103ED00070B50D4C6068002815D00C4E00F0DAFC6F
:103EE000F068C568281D00F075FCA068401EA06041
:103EF0006068401E606000F0EDFC284600F051F85C
:103F000060680028EAD170BD74000020D80B002042
:103F10000B46026C002A0CD0C1681144C160D0F875
:103F200008C0614501D30168C160C1681846FCF74B
:103F3000EFB970472DE9F041044616460027A56BFE
:103F4000226C002A10D0C6B1E068FCF7E1F9E16804
:103F5000206C091AE1602268914202D2A168081A15
:103F6000E060022E16D017E02068A8B9A06801F022
:103F700061FC07460020A0600EE06068FCF7C8F90D
:103F8000216C606808446060A168884204D320689E
:103F9000606001E005B16D1E681CA0633846BDE895
:103FA000F08110B5044694F8591000290BD001296E
:103FB00011D0022914D0502080F31188BFF34F8F05
:103FC000BFF36F8FFEE7206B00F09AFC2046BDE840
:103FD000104000F095BC2046BDE8104000F090BCB9
:103FE00010BD416A002904D0006B0068C0F13800A0
:103FF00070470020704700000749CA68116800290F
:1040000004D00021016019B1002070470121F9E7B7
:10401000D068006870470000B00000204FF47A615B
:10402000104810F0070F06D0C01D20F007000D4902
:10403000411AC1F57A610C4A1060002353600144B3
:10404000083921F00701183A11604B600B600B1A18
:10405000436001604068906050604FF000405061E4
:1040600070470000D0130020E0000020074E4FF002
:104070008054074DFFF72CFF30680128FAD92C60D7
:10408000BFF34F8FBFF36F8FF4E700003C070020B2
:1040900004ED00E0002808D0002181600160C160CB
:1040A00000231A46194600F0D3BF704770B51D466D
:1040B000049C002909D02260E0632164012120468C
:1040C00000F07EFF84F84C5070BD2460F4E72DE9C9
:1040D000F05F82460B9F0A9D0C9C0E4690469B46C5
:1040E0004FEA8801A522206BFCF724F9206BA8F188
:1040F000010100EB810020F007094FF0000866B1D4
:1041000000202218315C82F83410315C11B1401C5F
:104110001028F6D384F8438001E084F83480382DE9
:1041200000D33725E562E564C4F85080201D00F017
:1041300086FB04F1180000F082FB2461C5F1380011
:10414000A0616462C4F8548084F858805A4651468D
:10415000484600F0D3FA2060002F00D03C6000F009
:1041600000B830BCBDE8C09F70B500240F4D04EB13
:10417000840005EB800000F057FB641C382CF6D35C
:104180000B4800F051FB0B4800F04EFB0A4800F0D2
:104190004BFB0A4800F048FB094800F045FB094882
:1041A000034941631431816370BD00003C07002066
:1041B0009C0B0020B00B0020C40B0020D80B00206B
:1041C000EC0B00207400002010B4144900E01146EC
:1041D0000A688242FBD34B6803EB010C844503D190
:1041E00040681844486008460C68D0F804C00CEBDE
:1041F0000003A3420CD10A4B1B689A4206D05268B6
:10420000624442600A681268026002E0036000E0F3
:104210000260814200D0086010BC7047E0000020BE
:10422000C800002010B5002441600061DFF838C0EC
:1042300091420BD8D11A8269914201D3012410E036
:10424000011DDCF8100000F0FDFA0AE09A4203D2EA
:10425000994201D3012404E0011DDCF80C0000F0B8
:10426000F1FA204610BD0000B000002010B5044651
:1042700000F010FBA06B20B1002400F02BFB2046C7
:1042800010BD0124F9E710B5044600F003FBA06B54
:10429000E16B884201D1012400E0002400F01AFB08
:1042A000204610BDF8B505460E461748C068C068E0
:1042B000C468201D00F08EFA94F8280010F0040F56
:1042C00018D0A0692B46411932462046FFF7AAFFB5
:1042D000A0B100200346014600902A46204601F086
:1042E000FFFB58B9502080F31188BFF34F8FBFF305
:1042F0006F8FFEE720F0010084F82800216A01B0EA
:104300002046BDE8F0400847B000002030B587B037
:10431000414D002202A9286801F002F8002875D05A
:104320000298002803DA039A0599049890470298A6
:10433000002864DB049C606910B1201D00F04AFA7B
:1043400001A800F0B3F8024602980A2857D2DFE825
:1043500000F00505052F364D05052F3694F8280089
:1043600040F0010084F828000398A1690346014445
:104370002046FFF757FF002841D0216A2046884792
:1043800094F8280010F0040F39D000200090039812
:10439000A169002342181946204601F0A1FB70BB19
:1043A000502080F31188BFF34F8FBFF36F8FFEE76C
:1043B00094F8280020F0010084F828001FE094F809
:1043C000280040F0010084F828000398A06128B17B
:1043D000811813462046FFF725FF10E0502080F398
:1043E0001188BFF34F8FBFF36F8FFEE794F828005B
:1043F00010F0020F0CD020F0010084F828000022F9
:1044000002A9286800F08CFF002889D107B030BDD0
:10441000204600F075FAF2E7B0000020F8B5054636
:104420000C4600F043FC684600F040F80646009851
:1044300010B101F0BBFAF8BD44B9B54206D801F09D
:10444000B5FA31462846FFF72DFFF8BD0C481CB1E0
:104450000169096891B10024A91B2246006800F097
:10446000FFFA01F0A3FA0028EFD106494FF080507F
:104470000860BFF34F8FBFF36F8FF8BD0124EBE7E8
:10448000B000002004ED00E00749486B00680028F8
:1044900005D0486BC068C0684068886270474FF0BC
:1044A000FF308862704700007400002070B5044639
:1044B00001F054F90546074EB068854204D200F079
:1044C0000BF80120206001E000202060B560284644
:1044D00070BD0000B0000020F8B51C4EF068006808
:1044E000002826D00027F068C0680568C468201D31
:1044F00000F070F9216A2046884794F8280010F0EF
:10450000040F12D0A0692844A84206D96060246133
:10451000211DF06800F096F907E000232A461946AD
:104520002046009701F0DCFA40B1F06800680028EE
:10453000D9D1F0683169F1603061F8BD502080F365
:104540001188BFF34F8FBFF36F8FFEE7B0000020DD
:104550000A484068B0F1FF3F07D0502080F311882F
:10456000BFF34F8FBFF36F8FFEE7502080F31188AA
:10457000BFF34F8FBFF36F8FFEE70000E80000200E
:1045800082B001A8FFF738FD0199FFF747FFFFF759
:10459000BDFEF6E770B5044600F07CF994F945508D
:1045A000002D0CDD606A50B104F1240001F0C2F965
:1045B00008B100F0ABFA681E45B2002DF2DC4FF0F6
:1045C000FF3684F8456000F085F900F063F994F94E
:1045D0004450002D0CDD206950B104F1100001F0B1
:1045E000A9F908B100F092FA681E45B2002DF2DC7C
:1045F00084F84460BDE8704000F06CB92DE9F041EA
:104600000546002600F052FB344F386808B9FFF722
:1046100005FD7869054251D19DB1083515F0070FA8
:104620000FD005F00700C0F10800054415F0070F92
:1046300007D0502080F31188BFF34F8FBFF36F8FE7
:10464000FEE7002D3AD07868854237D824490846DD
:10465000046801E0214604466068A84202D220684E
:104660000028F7D13868844228D0086800F108068D
:10467000206808606068411B10290FD9601910F08C
:10468000070F07D0502080F31188BFF34F8FBFF37F
:104690006F8FFEE741606560FFF796FD616878689F
:1046A000401A7860BA68904200D2B86078690843CE
:1046B000606000202060F868401CF86001F076F926
:1046C00016F0070F07D0502080F31188BFF34F8FEB
:1046D000BFF36F8FFEE73046BDE8F081C8000020D1
:1046E000E000002004490868002803D00868026D33
:1046F000521C02650868704774000020001F4FF0CC
:1047000080730360001F21F001010160001F054953
:10471000016014380260001F6FF002010160203850
:1047200070470000514500082DE9F04706460F4F3D
:1047300000244FF046084FF045090FE004EB440019
:1047400006EB800556F82000A988FCF7CEF950B199
:10475000A879422801D085F80690641C78688442C4
:10476000ECDBBDE8F08785F80680F6E71400002052
:104770000148401EFDD1704790D003001CB50223B4
:104780008DF804100A2100918DF80520014601AA38
:104790000148FCF701FB1CBD3005002070B5C2B01C
:1047A00000248DF8041001A904E0155D0E19641CA5
:1047B0007570E4B29C42F8D30A2100915B1C01465B
:1047C0009BB201AA0248FCF7E7FA42B070BD0000B4
:1047D000300500200169436882689A6083684268F6
:1047E0005A604A68824201D182684A6000220261AE
:1047F0000868401E0860086870470000034B0360AB
:1048000003F15C000860802010607047180D0020E4
:10481000044B036003F15C0008604FF4807010608B
:1048200070470000740F002000F1080141604FF054
:10483000FF328260C1600161002101607047002188
:104840000161704710B4D1F800C0BCF1FF3F02D045
:1048500000F1080202E0026904E01A4653681C688D
:104860006445FAD953684B6099608A605160086169
:104870000168491C016010BC704742684A60936837
:104880008B6093685960916008610168491C016000
:1048900070470000502080F31188BFF34F8FBFF3A3
:1048A0006F8F0A494868401C486001280CD10848AD
:1048B000006810F0FF0F07D0502080F31188BFF37D
:1048C0004F8FBFF36F8FFEE770470000E8000020B6
:1048D00004ED00E009494868002806D0401E486001
:1048E000002801D180F311887047502080F311888F
:1048F000BFF34F8FBFF36F8FFEE70000E80000208B
:1049000070B500282AD0A0F10804154D60686969C7
:10491000084207D1502080F31188BFF34F8FBFF3B7
:104920006F8FFEE722683AB1502080F31188BFF301
:104930004F8FBFF36F8FFEE78843606000F0B6F9DA
:1049400060686968084468602046FFF73DFC286994
:10495000401C2861BDE8704001F028B870BD00001F
:10496000C80000204FF0E02000210161816105496D
:104970004FF47A720968B1FBF2F1491E41610721D7
:10498000016170477000002010B5FBF767FC11490A
:1049900010280ED300F1E02090F8F0030A7890423E
:1049A00007D2502080F31188BFF34F8FBFF36F8F72
:1049B000FEE709480068896800F4E060884207D98A
:1049C000502080F31188BFF34F8FBFF36F8FFEE746
:1049D00010BD0000E80000200CED00E00022084BB4
:1049E00053F832C0BCF1000F03D0521C082AF7D391
:1049F000704743F8321003EBC20148607047000073
:104A0000FC06002010B50446002C0BD0204600F018
:104A100013F894F8460000280CD12046BDE8104059
:104A2000FFF76EBF502080F31188BFF34F8FBFF3A5
:104A30006F8FFEE710BD00000021084A02EBC103A2
:104A40005B68834206D1002042F8310002EBC101CD
:104A500048607047491C0829F0D37047FC060020C5
:104A600070B504460D461646FFF714FF94F944004E
:104A7000B0F1FF3F4FF0000001D184F8440094F9F9
:104A80004510B1F1FF3F01D184F84500FFF722FF47
:104A9000A06B28B93246294604F1240000F056F8EC
:104AA0002046BDE87040FFF775BD000010B5024616
:104AB0000020002A12D00F48006B38B1502080F33C
:104AC0001188BFF34F8FBFF36F8FFEE700F0EEF852
:104AD00000211046FFF75AF900F068FF002807D1BF
:104AE00005494FF080500860BFF34F8FBFF36F8FC1
:104AF00010BD00007400002004ED00E002490A6AC5
:104B00000260C968416070477400002001490120BB
:104B1000C86170477400002010B50C4600280BD007
:104B2000094A126802F11801FFF78CFE2046BDE821
:104B300010400121FFF72AB9502080F31188BFF3FC
:104B40004F8FBFF36F8FFEE77400002070B50D46E6
:104B5000144600280DD00B4909681831FFF78DFE67
:104B60000CB14FF0FF3521462846BDE87040FFF7F5
:104B70000DB9502080F31188BFF34F8FBFF36F8FB3
:104B8000FEE700007400002070B5044600283FD006
:104B9000226DA2B1E06C884200D30146E06A8842EF
:104BA00036D0012A34D11B4D2A6894420FD15020AF
:104BB00080F31188BFF34F8FBFF36F8FFEE7502054
:104BC00080F31188BFF34F8FBFF36F8FFEE7E16271
:104BD000A26912F0004F02D1C1F13801A1610E4E5D
:104BE00000EB8000616906EB8000814210D1201D3E
:104BF000FFF7F0FDE06A2969884200D9286100EBDF
:104C0000800006EB8000211DBDE87040FFF735BE37
:104C100070BD0000740000203C07002030B587B054
:104C200000250695059504AA05A906A8FFF7E6FD47
:104C300006980599019102900023009517A1194843
:104C4000049A00F04CFD184CE06208B1012000E02D
:104C50000020012801D100F00FFF01280AD0B0F197
:104C6000FF3F19D1502080F31188BFF34F8FBFF35E
:104C70006F8FFEE7502080F31188BFF34F8FBFF393
:104C80006F8F4FF0FF30A06201206061E56007B0D8
:104C9000BDE8304000F048B807B030BD49444C454D
:104CA000000000006D400008740000200248016B05
:104CB000491C01637047000074000020184B186BFA
:104CC000002802D00120D86170470020D8611869FF
:104CD000144900EB800251F822203AB9C0B1401EBD
:104CE00000EB800251F82220002AF7D000EB80026E
:104CF00001EB82014A6852684A6001F1080C624582
:104D000001D152684A604968C968196018617047E2
:104D1000502080F31188BFF34F8FBFF36F8FFEE7F2
:104D2000740000203C07002010B582B038480168AC
:104D3000384A914207D1502080F31188BFF34F8F3A
:104D4000BFF36F8FFEE700683349884207D15020D8
:104D500080F31188BFF34F8FBFF36F8FFEE72F49AA
:104D600008780190FF200870087800909DF80000F6
:104D70009DF8002000F0F000904207D0502080F312
:104D80001188BFF34F8FBFF36F8FFEE79DF80000D0
:104D9000234C00F0500020700720A0609DF8000018
:104DA00010F0800F0BD0A068401EA0609DF800009E
:104DB000400000909DF8000010F0800FF3D1A06833
:104DC000032807D0502080F31188BFF34F8FBFF323
:104DD0006F8FFEE74FF44070A06001980870114893
:104DE000016841F470010160016841F070410160A7
:104DF000FFF7B8FD00206060FBF7F8F90A4801688A
:104E000041F040410160FBF7DDF902B0002010BD28
:104E100000ED00E071C20F4170C20F4100E400E0FC
:104E2000E800002020ED00E034EF00E010B5502055
:104E300080F31188BFF34F8FBFF36F8F00F094FCA6
:104E400018B104494FF080500860002080F31188A9
:104E500010BD000004ED00E010B50C46002809D09C
:104E600084420FD9502080F31188BFF34F8FBFF3D6
:104E70006F8FFEE7502080F31188BFF34F8FBFF391
:104E80006F8FFEE70222002100F03FF8002800D0DB
:104E9000846310BD38B50C46002809D084420FD970
:104EA000502080F31188BFF34F8FBFF36F8FFEE761
:104EB000502080F31188BFF34F8FBFF36F8FFEE751
:104EC0000221134600220091114600F040F800280C
:104ED00000D0846338BD10B502460021012000F0E7
:104EE00014F804462046FFF7D5F8204610BD38B523
:104EF0000B46002200901146012000F028F80446DD
:104F00002046FFF7C7F8204638BDF8B505460E46DF
:104F10001746002D13D005FB06F05030FFF76EFB4F
:104F2000044654B104F15002002084F846003B4688
:104F3000314628460094FFF7B9F82046F8BD5020C6
:104F400080F31188BFF34F8FBFF36F8FFEE738B543
:104F5000049D002804D05BB102B189B1C2B120E048
:104F6000502080F31188BFF34F8FBFF36F8FFEE7A0
:104F7000502080F31188BFF34F8FBFF36F8FFEE790
:104F8000502080F31188BFF34F8FBFF36F8FFEE780
:104F900039B1502080F31188BFF34F8FBFF36F8F6B
:104FA000FEE74FF0500CCDF800C01C46012384F8FA
:104FB00046302B460094FFF779F8204638BD0000B4
:104FC00070B504460D46002C25D0FFF763FC226C1B
:104FD000E16B206801FB0200A0600020A063206854
:104FE0006060E16B226C2068491E01FB0200E060FA
:104FF0004FF0FF3084F8440084F845009DB104F17F
:105000001000FFF711FC04F12400FFF70DFCFFF77F
:1050100061FC012070BD502080F31188BFF34F8FD9
:10502000BFF36F8FFEE720690028F0D004F1100075
:1050300000F080FC0028EAD004494FF0805008605E
:10504000BFF34F8FBFF36F8FE1E7000004ED00E087
:105050002DE9FF4782B004468A461F460025002CF2
:1050600003D0BAF1000F08D011E0502080F311886E
:10507000BFF34F8FBFF36F8FFEE7206C38B1502026
:1050800080F31188BFF34F8FBFF36F8FFEE7022FBE
:105090000AD1E06B012807D0502080F31188BFF3BC
:1050A0004F8FBFF36F8FFEE700F04AFB48B90498BB
:1050B00038B1502080F31188BFF34F8FBFF36F8F4B
:1050C000FEE700264FF08058DFF8F090FFF7E2FB94
:1050D000A06BE16B884205D3022F03D0049808B37C
:1050E00035B329E03A4651462046FEF723FF616A70
:1050F00059B104F1240000F01DFC68B1C9F800802A
:10510000BFF34F8FBFF36F8F06E028B1C9F800805F
:10511000BFF34F8FBFF36F8FFFF7DCFB06B00120AB
:10512000BDE8F087FFF7D6FB06B00020BDE8F087AA
:105130006846FFF7E3FC0125FFF7CCFBFFF7B6FD60
:10514000FFF7A8FB94F94400B0F1FF3F01D184F8C8
:10515000446094F94500B0F1FF3F01D184F8456007
:10516000FFF7B8FB04A9684600F040FA40B12046BA
:10517000FFF710FA00F01AFC06B00020BDE8F08737
:105180002046FFF780F890B104F110000499FFF772
:10519000C3FC2046FFF7FEF900F008FC002895D17B
:1051A000C9F80080BFF34F8FBFF36F8F8EE72046A3
:1051B000FFF7F0F900F0FAFB88E7000004ED00E0EB
:1051C0002DE9F0470446894617461E46002C03D0B9
:1051D000B9F1000F08D011E0502080F31188BFF31F
:1051E0004F8FBFF36F8FFEE7206C38B1502080F3F4
:1051F0001188BFF34F8FBFF36F8FFEE7022E0AD1E6
:10520000E06B012807D0502080F31188BFF34F8F47
:10521000BFF36F8FFEE7FFF7B7FB5020EFF3118866
:1052200080F31188BFF34F8FBFF36F8FA06BE16BDB
:10523000884206D3022E04D0002088F31188BDE8EE
:10524000F08794F94550A06B324649462046FEF758
:1052500071FEB5F1FF3F04D0681C84F845000120C1
:10526000EBE7606A0028FAD004F1240000F062FB4A
:105270000028F4D0002FF2D001203860EFE770B59D
:1052800004460D46002C09D0206C78B1502080F3E4
:105290001188BFF34F8FBFF36F8FFEE7502080F36D
:1052A0001188BFF34F8FBFF36F8FFEE7206848B9B7
:1052B000A06838B1502080F31188BFF34F8FBFF33F
:1052C0006F8FFEE7FFF760FB5020EFF3118680F34E
:1052D0001188BFF34F8FBFF36F8FA06BE16B8142DB
:1052E00019D994F94520401CA063B2F1FF3F04D0C6
:1052F000501C84F8450001200EE0606A0028FAD0B6
:1053000004F1240000F016FB0028F4D0002DF2D0A8
:1053100001202860EFE7002086F3118870BD0000AF
:105320002DE9F74783B004468A460025002C03D0B8
:10533000BAF1000F08D011E0502080F31188BFF3BC
:105340004F8FBFF36F8FFEE7206C38B1502080F392
:105350001188BFF34F8FBFF36F8FFEE700F0F0F9B6
:1053600048B9059838B1502080F31188BFF34F8FAA
:10537000BFF36F8FFEE700274FF08058DFF8E4900F
:10538000FFF788FAA66BC6B151462046FEF7C0FD6E
:10539000701EA063206950B104F1100000F0CAFA39
:1053A00028B1C9F80080BFF34F8FBFF36F8FFFF7AD
:1053B00091FA06B00120BDE8F087059808B135B133
:1053C00009E0FFF787FA06B00020BDE8F0876846DD
:1053D000FFF794FB0125FFF77DFAFFF767FCFFF766
:1053E00059FA94F94400B0F1FF3F01D184F84470B8
:1053F00094F94500B0F1FF3F01D184F84570FFF703
:1054000069FA05A9684600F0F1F868B12046FFF78F
:10541000C1F800F0CBFA2046FEF728FF0028AFD0F5
:1054200006B00020BDE8F0872046FEF71FFF90B1D0
:1054300004F124000599FFF76FFB2046FFF7AAF857
:1054400000F0B4FA00289BD1C9F80080BFF34F8F59
:10545000BFF36F8F94E72046FFF79CF800F0A6FAA1
:105460008EE7000004ED00E02DE9F34383B004462D
:1054700000250026002C09D0206C78B1502080F344
:105480001188BFF34F8FBFF36F8FFEE7502080F37B
:105490001188BFF34F8FBFF36F8FFEE700F050F915
:1054A00048B9049838B1502080F31188BFF34F8F6A
:1054B000BFF36F8FFEE700274FF08058DFF8289189
:1054C000FFF7E8F9A06BC8B1401EA063206810B9CF
:1054D000FFF708F9A060206950B104F1100000F056
:1054E00029FA28B1C9F80080BFF34F8FBFF36F8F3F
:1054F000FFF7F0F905B00120BDE8F083049808B18A
:105500007DB112E03EB1502080F31188BFF34F8F80
:10551000BFF36F8FFEE7FFF7DDF905B00020BDE8B0
:10552000F0836846FFF7EAFA0125FFF7D3F9FFF7A2
:10553000BDFBFFF7AFF994F94400B0F1FF3F01D193
:1055400084F8447094F94500B0F1FF3F01D184F82C
:105550004570FFF7BFF904A9684600F047F8D0B1DD
:105560002046FFF717F800F021FA2046FEF77EFEEE
:105570000028A5D05EB1FFF78DF92046FEF731FD7A
:10558000A26801461046FFF7FFFAFFF7A3F905B03E
:105590000020BDE8F0832046FEF768FEE8B12068F1
:1055A00038B9FFF777F9A06800F084F90646FFF7ED
:1055B00091F904F124000499FFF7AEFA2046FEF7B2
:1055C000E9FF00F0F3F900287FF47AAFC9F8008012
:1055D000BFF34F8FBFF36F8F72E72046FEF7DAFFFE
:1055E00000F0E4F96CE7000004ED00E070B505465A
:1055F0000C46002D15D0E4B1FFF74CF9DFF868C078
:10560000DCF80C006B68C11A2268B2F1FF3F18D0B9
:105610002E68DCF820C0664515D0834213D80124DB
:105620001DE0502080F31188BFF34F8FBFF36F8FC1
:10563000FEE7502080F31188BFF34F8FBFF36F8FC9
:10564000FEE700240BE08A4206D9501A2060284663
:10565000FFF754FA002402E0002020600124FFF745
:1056600039F9204670BD0000740000202DE9F04F8C
:1056700085B081460F9F0E9E8A4690469B464FEA14
:105680008800FEF7BBFF054628000AD05C20FEF725
:10569000B5FF04460CB1256304E02846FFF730F956
:1056A00000E000249CB1002084F8590003905B4680
:1056B000424651460197009602944846FEF707FD80
:1056C0002046FEF793FB05B0012000F005B805B0B9
:1056D0004FF0FF3000F000B830BCBDE8C08F70B5AF
:1056E00086B00646DDF828C00C9C0B98002816D022
:1056F000ECB15C2504952063022084F85900002059
:1057000005AD0390CDF800C0019502943046FEF738
:10571000DEFC2046FEF76AFB059806B070BD5020FF
:1057200080F31188BFF34F8FBFF36F8FFEE75020D8
:1057300080F31188BFF34F8FBFF36F8FFEE7000038
:1057400005484169002903D0006B18B1002070475B
:105750000120704702207047740000200148C06893
:1057600070470000740000202DE9F04100262F4F03
:10577000386B002805D0B869401CB8613046BDE8D8
:10578000F081F868451CFD609DB9786B006838B100
:10579000502080F31188BFF34F8FBFF36F8FFEE768
:1057A000786BB96B7963B863386A401C3862FEF76E
:1057B0006BFEB86ADFF8788085420DD3786B00689D
:1057C00038B1786BC068C4686068854212D2B8622C
:1057D00002E04FF0FF30B8623868C06A00EB80002A
:1057E00058F82000012800D90126F8690028C5D002
:1057F0000126C3E7201DFEF7EDFFA06A18B104F1F2
:105800001800FEF7E7FFE16A3869814200D9396183
:1058100001EB810008EB8000211DFFF72EF8E06A04
:105820003968C96A8842C9D30126C7E774000020D5
:105830003C07002070B504460021002833D01B4DE2
:105840002868844207D0502080F31188BFF34F8F1F
:10585000BFF36F8FFEE7206D38B1401E2065E36C0B
:10586000E26A9A421FD040B11DE0502080F31188B7
:10587000BFF34F8FBFF36F8FFEE7201DFEF7AAFF28
:10588000E06CE062C0F13800A061E06A29698842FA
:1058900000D92861064900EB800001EB8000211D42
:1058A000FEF7EBFF0121084670BD000074000020E8
:1058B0003C07002070B504460020002C2DD01B4D65
:1058C000E16A2A68D26A914228D2A06910F0004F9A
:1058D00004D12868C06AC0F13800A061E06A144EA3
:1058E00000EB8000616906EB8000814211D1201D30
:1058F000FEF770FF2868C06AE0622969884200D913
:10590000286100EB800006EB8000211DFEF7B5FF4B
:1059100002E02868C06AE062012070BDE16C2A687C
:10592000D26A9142F9D2012070BD000074000020BB
:105930003C07002070B5C068C468002C14D004F186
:105940001800FEF747FF164D286BA8B104F11801A7
:105950001448FEF792FFE06A2968C96A88421CD998
:1059600001200121E96170BD502080F31188BFF34F
:105970004F8FBFF36F8FFEE7201DFEF72BFFE06A0E
:105980002969884200D92861074900EB800001EBB2
:105990008000211DFEF771FFDDE7002070BD0000D3
:1059A00074000020C40B00203C0700202DE9F047C4
:1059B000002400272D4D286B002807D0FEF76AFF32
:1059C000286B401E2863286B40B149E0502080F3CB
:1059D0001188BFF34F8FBFF36F8FFEE7A8680028D1
:1059E0003ED0234E30684FF0010800B3A6F5916910
:1059F000F068C46804F11800FEF7ECFE201DFEF705
:105A0000E9FEE06A2969884200D9286100EB80003C
:105A100009EB8000211DFEF730FFE06A2968C96AA2
:105A2000884201D3C5F81C8030680028E0D10CB151
:105A3000FEF72AFDAC694CB1FFF796FE08B1C5F838
:105A40001C80641E002CF7D10020A861E86938B1E1
:105A50000127084938070860BFF34F8FBFF36F8FE6
:105A6000FEF738FF3846BDE8F087000074000020DC
:105A7000C40B002004ED00E030B587B00024FEF731
:105A8000F9F9134D2868B0B100200690059004AADA
:105A900005A906A8FEF7BCFE059906980222009209
:105AA0000191029000230BA10C48049AFFF717FE06
:105AB000686000B1012414B107B0204630BD502009
:105AC00080F31188BFF34F8FBFF36F8FFEE70000A5
:105AD000B0000020546D72205376630081450008A9
