:020000040800F2
:10000000F01F00208502000863230008012000087B
:1000100061230008E1030008412F000800000000F0
:10002000000000000000000000000000A501000822
:10003000E30300080000000001020008892800080E
:100040009F0200089F0200089F0200089F0200080C
:100050009F0200089F0200089F0200089F020008FC
:100060009F0200089F0200089F0200089F020008EC
:100070009F0200089F0200089F0200089F020008DC
:100080009F0200089F0200089F0200089F020008CC
:100090009F0200089F0200089F0200089F020008BC
:1000A0009F0200088D2900089F0200089F02000897
:1000B0009F02000800000000000000009F020008EE
:1000C0009F02000800000000000000009F020008DE
:1000D000000000005D2E0008352F00080000000021
:1000E0009F0200089F0200080000000000000000BE
:1000F0000000000000000000000000000000000000
:100100000000000000000000000000009F02000846
:1001100000000000000000009F0200089F0200088D
:100120009F0200089F0200089F0200089F0200082B
:100130009F02000800000000000000000000000016
:100140009F0200089F0200089F0200089F0200080B
:100150009F0200089F0200089F0200089F020008FB
:100160009F0200089F0200089F0200080000000094
:100170009F0200089F02000800000000000000002D
:100180009F0200089F0200089F020008DFF810D0BD
:1001900000F014F900480047812F0008AFF30080F9
:1001A000F01F00202C4B1968086800F05AB880F343
:1001B0000988BFF36F8F4FF0000080F311887047FC
:1001C0000000000008480068006880F308884FF0CD
:1001D000000080F3148862B661B6BFF34F8FBFF39F
:1001E0006F8F00DF00BF00BF08ED00E0DFF80C00FC
:1001F000016841F470010160704700BF88ED00E0C4
:10020000EFF30980BFF36F8F134B1A681EF0100FC6
:1002100008BF20ED108A20E9F04F106009B44FF0BC
:10022000500080F31188BFF34F8FBFF36F8F03F03F
:10023000EDFC4FF0000080F3118809BC19680868D4
:1002400000F014B81EF0100F08BF00F014B880F3CF
:100250000988BFF36F8F704758000020EFF30580C7
:10026000704730C8B0E8C04FFFF7A1BF30C8B0E852
:10027000C04FFFF7E7BFB0EC088AB0EC08CAFFF741
:10028000E6BF00000648804706480047FEE7FEE755
:10029000FEE7FEE7FEE7FEE7FEE7FEE7FEE7FEE736
:1002A000512900088D0100082DE9F05F0546002066
:1002B00092469B4688460646814640241BE02846D7
:1002C00041464746224600F069F853465A46C01A4E
:1002D000914110D311461846224600F050F82D1ACD
:1002E00067EB01084F4622460120002100F047F845
:1002F00017EB00094E41201EA4F10104DFDC484643
:1003000031462A46434600F000B830BCBDE8C09FE5
:1003100040EA01039B0703D009E008C9121F08C087
:10032000042AFAD203E011F8013B00F8013B521E07
:10033000F9D27047D2B201E000F8012B491EFBD27E
:1003400070470022F6E710B513460A4604461946E0
:10035000FFF7F0FF204610BD10B5044604E00B780F
:1003600000F8013B03B1491C521EF8D2204610BDD3
:10037000421C10F8011B0029FBD1801A7047202A6B
:1003800004DB203A00FA02F1002070479140C2F1EC
:10039000200320FA03F3194390407047202A04DB1E
:1003A000203A21FA02F00021704721FA02F3D040EE
:1003B000C2F120029140084319467047064C074D90
:1003C00006E0E06840F0010394E807009847103425
:1003D000AC42F6D3FFF7DEFE6053000880530008FE
:1003E000FEE770472DE9FC4100240646094D1E2713
:1003F0000BE000BFC4EB04104300CDE900761946C2
:100400000022204600F008F8641C28688442F1DBD2
:10041000BDE8FC81100000202DE9F0471D46DDE914
:10042000088914460E46074602F0C2F9A1B2B0B2DE
:1004300002F0A0F807EB470109EB8104012209490A
:10044000A06802F0A1F91FFA88F1A8B202F092F8B0
:10045000A01D0122034902F097F9BDE8F04702F020
:10046000A7B900000800002010B590F82510002260
:10047000022905D00421C16380F82420012010BD89
:1004800001680B6823F00E030B6001680B6823F012
:1004900001030B6090F84410046C01F01C0301216F
:1004A00001FA03F3636080F8251080F824201046D9
:1004B00010BD10B590F825100024022903D00421A6
:1004C000C16301241AE001680A6822F00E020A6082
:1004D00001680A6822F001020A6090F84410036C77
:1004E00001F01C02012101FA02F25A6080F8251085
:1004F000002180F82410816B01B18847204610BD8F
:100500002DE9FC4FDFF880A1002301250AF1040B3F
:1005100003244FF00F0C0BF1040EAEE005FA03F6C6
:1005200032406FD04F68012F05D0022F03D0112F1A
:1005300001D0122F17D1D0F808905F0004FA07F805
:1005400029EA08090097D1F80C8008FA07F848EA68
:100550000908C0F808804768B7430E79C6F300164B
:100560009E403E434660C6684FEA430804FA08F7D7
:10057000BE4301978F6807FA08F73743C7604E6894
:10058000022E01D0122E13D1DE0800EB8606009653
:10059000366A5F07FF0E0CFA07F926EA0906D1F85A
:1005A000109009FA07F949EA0609009EC6F820905A
:1005B0000768019EB7430E7906F0030606FA08F6AF
:1005C0003E4306604E68F60056D5304E376E47F013
:1005D00001073766366E23F0030706F00106009622
:1005E0002B4E3E44B146B6689F074FEA17780CFA87
:1005F00008F7BE43B0F1904F05D0264FB84204D162
:10060000012708E038E0002705E0234FB84201D178
:10061000022700E0072707FA08F73743C9F80870F0
:10062000DAF800605746D1F8048096435FEAC8388C
:1006300000D516433E60DBF800605F46D1F80480C9
:1006400096435FEA883800D516433E60DEF80060C6
:100650007746D1F8048096435FEAC82800D5164350
:100660003E60094F0C373E68D1F8048096435FEA3C
:10067000882800D516433E605B1C0A6832FA03F6F0
:100680007FF44CAF00F00AB80004014000100240B3
:100690000000014000040048000800481CBCBDE800
:1006A000E08F0069084000D0012070470148806851
:1006B000704700004800002090F84120202A24D1F3
:1006C00090F84020012A20D0012280F840202422E6
:1006D00080F841200268136823F001031360026868
:1006E000136823F480531360026813680B4313608C
:1006F00001680A6842F001020A60202180F8411076
:10070000002180F84010084670470220704790F89A
:100710004120202A22D190F84020012A1ED0012217
:1007200080F84020242280F841200268136823F0DA
:10073000010313600268136823F4706343EA012124
:10074000116001680A6842F001020A60202180F805
:100750004110002180F84010084670470220704781
:1007600070B5040004D094F84100002510B106E0F3
:10077000012070BD84F84050204600F079F9242013
:1007800084F841002068016821F00101016060687F
:10079000216820F0706008612068816821F40041C0
:1007A0008160E0680128A06807D040F40440216817
:1007B0008860E068022803D006E040F40040F6E7D5
:1007C00021684FF40060486020684168114A114375
:1007D00041602068C16821F40041C160D4E904018E
:1007E0000843A16940EA01202168C860D4E90701F3
:1007F0000843216808602068016841F00101016038
:100800006564202084F84100256384F8425000206C
:1008100070BD0000008000022DE9FC470026044660
:10082000019690F841001F469246894620287ED1C5
:1008300020688069C043000479D594F840000128FD
:1008400075D0012084F84000242084F841006664BB
:100850004FF02008E068012809D029F4544040F402
:10086000205021684860FFF721FF05460DE031491F
:1008700049EA010030490840F3E7781C05D0FFF74A
:1008800015FF401BB84219D8C7B12168886989692A
:10089000C0F34010C1F300110843EED02068806916
:1008A0003B46C043C0064FF000024FF020012046F7
:1008B000009517D501F00EFC68BB09E084F8418073
:1008C00054F8440F40F0200044F80409267022E058
:1008D0002168C1F81C8084F8418084F840600020C1
:1008E00000F02CB801F0F6FBA8B921681020C8610F
:1008F0002168C1F81C800198504512D120684168D8
:1009000041F4804141603B46002220212046009571
:1009100001F0E0FB10B10120E2E708E02168C1F836
:100920001C800198401C0190504593D3C6E70220DB
:10093000D6E7000000200002FF2300020CBCBDE847
:10094000F08700002DE9F84F044690F84100DDF8EB
:1009500028A01F4690468B4620287ED194F8400060
:1009600001287AD0012084F84000FFF79FFE064658
:10097000012200901923D103204601F0ABFBE0BB1C
:10098000212084F84100102084F84200002565648D
:10099000C4F8248067856563618D3148FF274FF077
:1009A00080784FF00079FF2903D927853A460090D7
:1009B00039E0618D218500903AE05946204601F0EA
:1009C00073FB13E001F0D8FBB8B9606A21680078C6
:1009D0008862606A401C6062608D401E6085208D68
:1009E000401E80B22085618D01B168B1608D3246B4
:1009F000002851462046E5D100E002E001F096FBD8
:100A0000D0B1012000F030B85346002280212046AA
:100A1000009601F05FFB0028F3D1608DFF2804D918
:100A200027853A4600954346C7E7608D20850095A7
:100A300094F828204B46C0E721682020C86121682F
:100A40004A68084B1A404A6084F8410084F84250D2
:100A500084F840500020D5E7FFE70220D2E70000ED
:100A60000020008000E800FE18BCBDE8E08F000018
:100A700010B586B0044614216846FFF762FC13499E
:100A80002068884220D1124CE06C40F00100E06404
:100A9000E06C694600F0010005904FF4C0600090E2
:100AA0001220019001200290032003900420049062
:100AB0004FF09040FFF724FDA06D40F40010A065BA
:100AC000A06D00F40010059006B010BD0054004069
:100AD000001002400248816802781144816070472A
:100AE0004800002010B50024032000F08DF80020FD
:100AF00000F008F808B1012401E000F03DF82046BC
:100B000010BD000000B5014687B00022192000F09A
:100B10005BF8192000F04AF81348016E41F40061B7
:100B20000166006E05A900F400600690684600F0BA
:100B30009FFA00F0CFFA0D490D4AB0FBF1F10D48D4
:100B4000491E0260416040F2E7320021C0E9032102
:100B5000816000F013FE10B1012007B000BD054810
:100B600000F050FEF9E700000010024040420F0084
:100B7000002C0140C80600200B4882B0016E41F0F5
:100B800001010166016E01F001010091816D41F0EA
:100B900080518165806D002200F0805000900F210F
:100BA000901E02B000F010B800100240002809DBCF
:100BB00000F01F02012191404009800000F1E02077
:100BC000C0F8001170470000F0B40E4B1B680C46D3
:100BD000C3F30223C3F10705042D00D90425191D11
:100BE000072901D2002300E0DB1E012606FA05F1E9
:100BF000491E214099409E40761E16403143F0BC6C
:100C000002F09FB90CED00E0064900F00702086809
:100C10004FF6FF03184040EA0220034A10430860E1
:100C2000704700000CED00E00000FA051649B0F531
:100C3000007F0868C0F3412009D0022805D0086869
:100C400020F4C06040F480600860002070470128F4
:100C5000FBD0086820F4C06040F4007008600B48C6
:100C60003222006850430A4AB0FBF2F0401C00E018
:100C7000401E4A69520501D50028F9D1486940054E
:100C8000E3D50320704700000070004054000020AE
:100C900040420F000248006800F4C0607047000046
:100CA000007000400248016841F4807101607047A3
:100CB000007000400248016841F004010160704783
:100CC000001002402DE9F84F0446002700889C4D93
:100CD0003E46000515D5E06B60B1B0F5000F04D0BD
:100CE000B0F5400F2BD001270AE0E86840F48030CF
:100CF000E86024E00021201D01F034FB07001ED035
:100D00003E462068800338D5A86D4FF00008C0002B
:100D100009D4A86D40F08050A865A86D4FF0010877
:100D200000F080500090DFF81CA2DAF8001041F4C7
:100D30008071CAF80010FFF7B9FC814610E0D5F8C1
:100D40008800E16B20F440000843C5F88800D8E72C
:100D5000FFF7ACFCA0EB0900022801D9032704E04F
:100D6000DAF80000C005F3D5EFB33E46B8F1000F46
:100D700003D0A86D20F08050A8652078C00707D068
:100D8000D5F88800216A20F003000843C5F88800E0
:100D90002078800707D5D5F88800616A20F00C001C
:100DA0000843C5F888002078800607D5D5F8880064
:100DB000A16A20F440600843C5F8880020888005B7
:100DC00007D5D5F88800616B20F440200843C5F8AA
:100DD00088002088400509D5D5F88800A16B20F44B
:100DE0004010084300E02EE0C5F888002078400657
:100DF00007D5D5F88800E16A20F440500843C5F8CB
:100E000088002088C00507D5D5F88800216B20F41C
:100E100040300843C5F8880020884FF00067800400
:100E20004FF080684ED5D5F88800216C20F04060E6
:100E30000843C5F88800206CB8423BD1E86840F40C
:100E40008010E8603EE0D5F8900010F4407014D0B7
:100E5000216D814211D0D5F89000D5F8901020F482
:100E6000407041F48031C5F89010D5F8901021F40D
:100E70008031C5F89010C5F89000C00711D0FFF779
:100E800015FC074641F2883907E000BFFFF70EFC6A
:100E9000C11B494501D9032668E7D5F890008007B2
:100EA000F4D5D5F89000216D20F440700843C5F8C2
:100EB00090005BE7404505D10121201D01F052FA69
:100EC00000B106462068400317D5D5F88800616C4C
:100ED00020F040600843C5F88800606CB84204D137
:100EE000E86840F48010E86007E0404505D1012142
:100EF000201D01F037FA00B106462088400411D5C4
:100F0000D5F88800A16C20F040500843C5F888004F
:100F1000A06CB0F1805F05D10221201D01F022FA02
:100F200000B106462088000406D555F8880FE16C0C
:100F300020F0804008432860304600F005B80000EB
:100F4000001002400070004018BCBDE8E08F0000B7
:100F50002DE9F0470F46050058D0404E306800F0AC
:100F60000700B84209D2306820F0070038433060EB
:100F7000306800F00700B84248D12878384CC007E4
:100F80002CD06868032811D0022812D0216898B1AB
:100F9000490500293ADAA16821F003010143A16063
:100FA000FFF784FB804641F2883910E0216889010F
:100FB000EFE721688903ECE78907EAE7FFF776FBAB
:100FC000A0EB0801494502D90320BDE8F087A068DD
:100FD000696800F00C00B0EB810FEFD12878800732
:100FE00005D5A068A96820F0F0000843A06030682B
:100FF00000F00700B8420BD9306820F007003843F2
:101000003060306800F00700B84201D00120DCE712
:101010002878400705D5A068E96820F4E060084317
:10102000A0602878000706D5A068296920F46050E0
:1010300040EAC100A06000F05FF8A168094AC1F36E
:101040000311515C01F01F01C840074908600748BF
:101050000068BDE8F047FFF755BD000000200240E2
:10106000001002408C520008540000204C00002068
:101070000F2202600C4A936803F0030343609368F5
:1010800003F0F0038360936803F4E063C360926845
:101090004FF4E06303EAD20202610448006800F002
:1010A0000700086070470000001002400020024066
:1010B0000548064900688968054AC1F30221515C68
:1010C00001F01F01C840704754000020001002408A
:1010D000CC5200080548064900688968054AC1F3F2
:1010E000C221515C01F01F01C8407047540000202C
:1010F00000100240CC52000870B525490023184664
:101100008A68CC6812F00C0204F00306214C4FEA06
:10111000640509D00C2A05D0042A32D0082A00D14F
:10112000284670BD012E10D10B681B0704D4D1F8DE
:101130009430C3F3032302E00B68C3F30313164E8A
:1011400056F82330DAB10C2AEBD1C86800F003005E
:10115000022818D0032818D01846CA68CB68C2F3F2
:101160000212C3F306234343521CB3FBF2F2C868D6
:10117000C0F34160401C4000B2FBF0F070BD184667
:1011800070BD204670BD2046E7E72846E5E7000031
:10119000001002400024F4009C5200082DE9F8439E
:1011A00004006FD0FE4DA86800F00C06E86800F05F
:1011B00003072078C00664D576B10C2E01D1012F2B
:1011C0000AD0A069002828687AD040F00100286081
:1011D000FFF76CFA80465DE02868800702D5A069B9
:1011E0000028DED0216A2868000703D5286800F0AF
:1011F000F00004E0D5F89400F02202EA10108142D9
:1012000016D9084601F044F900283BD1286840F07F
:10121000080028602868216A20F0F0000843286050
:101220006868E16920F47F4040EA0120686016E0C8
:10123000286840F0080028602868216A20F0F00043
:10124000084328606868E16920F47F4040EA012093
:10125000686026B9206A01F01BF90028D5D1FFF794
:101260004BFFA968CF4AC1F30311515C01F01F0184
:10127000C840CD490860CD480068FFF743FC00280E
:101280007ED12EE0CAE000BFFFF710FAA0EB080005
:10129000022876D828688007F6D5286840F008002C
:1012A00028602868216A20F0F000084328606868F8
:1012B000E16920F47F4040EA0120686011E0FFE727
:1012C00020F001002860FFF7F1F9804606E000BF3A
:1012D000FFF7ECF9A0EB08000228DAD828688007AD
:1012E000F6D42078C00740D0082E18D00C2E01D19B
:1012F000032F14D06068B0F5803F17D0B0F5A02F51
:10130000286817D020F480302860286820F48020D6
:1013100028606068E0B1FFF7C9F9804614E02868EA
:10132000800322D56068002878D01EE0286840F449
:101330008030EDE740F480202860F7E7FFF7B6F94A
:10134000A0EB08006428A4D828688003F6D50CE038
:10135000FFF7ACF9804605E0FFF7A8F9A0EB08001D
:10136000642896D828688003F6D4207880073BD577
:10137000042E11D00C2E01D1022F0DD0E06801E017
:10138000B6E1FFE0002828681ED040F48070286095
:10139000FFF78CF907460CE0286840050CD5E0689B
:1013A0000028C1D008E000BFFFF780F9C01B022869
:1013B00093D828684005F7D56868217C20F0F8505C
:1013C00040EA016068600FE020F480702860FFF759
:1013D0006DF9074605E000BFFFF768F9C01B02285A
:1013E000B1D828684005F7D42078000729D560696E
:1013F0000028D5F8940012D040F00100C5F8940000
:10140000FFF754F9074604E0FFF750F9C01B022824
:1014100099D8D5F894008007F6D512E02BE120F09A
:101420000100C5F89400FFF741F9074605E000BF49
:10143000FFF73CF9C01B022885D8D5F89400800737
:10144000F6D42078400766D5A86D0027C00008D4E0
:10145000A86D40F08050A865A86D012700F080506D
:10146000009053480168C90512D40168814641F4CF
:1014700080710160FFF71AF9804605E0FFF716F961
:10148000A0EB080002287DD8D9F80000C005F5D5EA
:10149000A068012816D00528D5F8900017D020F0B4
:1014A0000100C5F89000D5F8900020F0040000BFBE
:1014B000C5F89000A06841F28839C0B1FFF7F6F88E
:1014C00080460FE0D5F8900040F00100F0E740F0D2
:1014D0000400C5F89000F5E7FFF7E8F8A0EB080175
:1014E00049454FD8D5F890008007F5D50EE0FFF7B5
:1014F000DDF8804606E000BFFFF7D8F8A0EB080152
:1015000049453FD8D5F890008007F5D41FB1A86DA4
:1015100020F08050A8652078800628D5606A0028D1
:10152000D5F8980012D040F00100C5F89800FFF7F8
:10153000BDF8074605E000BFFFF7B8F8C01B02285A
:1015400020D8D5F898008007F6D510E020F00100EB
:10155000C5F89800FFF7AAF8074604E0FFF7A6F8D9
:10156000C01B02280ED8D5F898008007F6D4A06AD0
:10157000A8B1022824D00C2E7DD0286820F08070DD
:10158000286000E0B3E02868000103D4E86820F098
:101590000300E860E86807490840E8600CE09FE065
:1015A000001002408C520008540000204C00002023
:1015B00000700040FFFFEEFEFFF778F8044699E068
:1015C000E868E26A00F00301914226D1216B00F045
:1015D00070020901103991421FD1626B00F4FE4183
:1015E000B1EB022F19D194F8382000F07841B1EB1B
:1015F000C26F12D1A18F00F4C00249084905A1F5BC
:101600000011914209D194F8401000F0C0604908DF
:101610004906A1F1007181424BD00C2E6FD0286891
:1016200040016CD4286820F080702860FFF73EF8F5
:10163000064604E0FFF73AF8801B022857D82868CE
:101640008001F7D4F4E90B016FF00F0202EB0111F6
:101650000843218A5204490802EB4151A26841EA39
:1016600002210843217D4FF07E42490802EB41618F
:101670000843217B00E042E040EAC160E968214A7A
:1016800011400843E860286840F080702860E868EE
:1016900040F08070E860FFF709F8044605E000BFFD
:1016A000FFF704F8001B022821D828688001F7D52D
:1016B00023E02868800120D4286840F080702860EA
:1016C000E86840F08070E860FEF7F0FF044604E050
:1016D000FEF7ECFF001B022809D828688001F7D527
:1016E0000BE000BFFEF7E2FF001B022802D9032037
:1016F000BDE8F88328688001F4D40020F8E70120D1
:10170000F6E700008C809D0170477047704700002D
:10171000F0B590F83C20012A29D0012480F83C4003
:10172000022280F83D2003685A689D68114EB3423A
:1017300003D122F470074A683A4322F070070A681E
:101740003A435A600268B24205D0B2F1804F02D0EB
:10175000094B9A4204D1896825F0800319439160AE
:1017600080F83D40002180F83C100846F0BD022082
:10177000F0BD0000002C01400040014010B5040005
:1017800003D094F83D0010B107E0012010BD002007
:1017900084F83C00204600F023F8022084F83D0045
:1017A000211D206801F0F8F8012084F8480084F831
:1017B0003E0084F83F0084F8400084F8410084F83B
:1017C000420084F8430084F8440084F8450084F81B
:1017D000460084F8470084F83D00002010BD00005A
:1017E00008B50068B0F1804F08D10548816D41F01F
:1017F00001018165806D00F00100009008BD0000CE
:101800000010024090F83D10012901D001207047DE
:10181000022180F83D100168CA6842F00102CA60E6
:1018200000680B49884205D0B0F1804F02D00949C9
:10183000884207D18168084A1140062906D0B1F5CF
:10184000803F03D0016841F0010101600020704732
:10185000002C0140004001400700010070B5044623
:1018600090F83C00012817D0012584F83C50022054
:1018700084F83D00226890682E4B184020F47F4089
:1018800090600868502830D00DDC20284DD005DC51
:1018900098B310283BD148E0022070BD302844D0D6
:1018A000402834D139E0602828D0702806D0B0F51F
:1018B000805F2CD0B0F5005F29D10AE0CB68D1E978
:1018C0000121206801F09EF82068816841F07701CD
:1018D00009E0CB68D1E90121206801F093F8206884
:1018E000816841F48041816011E0CA6849682068DC
:1018F00001F09AF85021206807E016E0CA684968AC
:10190000206801F0A2F86021206801F085F884F8D1
:101910003D50002084F83C0070BDCA6849682068CA
:1019200001F082F840212068EFE722680146104666
:10193000EBE7000088FFFEFF704770B504460068C3
:1019400001694FF00005C943890715D4C168C9432F
:10195000890711D4E91E0161012020772068806980
:101960008007204602D0FFF7E7FF04E000F0A7F869
:10197000204600F0A5F8257720680169C94349078A
:1019800017D4C168C943490713D46FF0040101613A
:10199000022020772068806910F4407F204602D022
:1019A000FFF7CAFF04E000F08AF8204600F088F84C
:1019B000257720680169C943090716D4C168C9435E
:1019C000090712D46FF00801016104202077206814
:1019D000C0698007204602D0FFF7AEFF04E000F0A8
:1019E0006EF8204600F06CF8257720680169C9433D
:1019F000C90617D4C168C943C90613D46FF01001D2
:101A00000161082020772068C06910F4407F2046DB
:101A100002D0FFF791FF04E000F051F8204600F0FB
:101A20004FF8257720680169C943C90708D1C16803
:101A3000C943C90704D1891E0161204600F042F85C
:101A400020680169C943090609D4C168C943090668
:101A500005D46FF0800101612046FFF756FE206833
:101A60000169C943C90509D4C168C943090605D438
:101A70006FF4807101612046FFF746FE206801691E
:101A8000C943490609D4C168C943490605D46FF062
:101A900040010161204600F01FF820680169C94338
:101AA00089060BD4C168C943890607D46FF02001A9
:101AB00001612046BDE87040FFF728BE70BD704749
:101AC0007047000000680349884201D1FFF702B85F
:101AD00070470000002C0140704770477047704706
:101AE0002DE9F04102680446D0691168936840F618
:101AF0000F0528424FF0000505D1860678D58E06E1
:101B000076D5616EF3E0834F03F001060F40374353
:101B10007ED0C70709D0CF0507D501271762D4F8B3
:101B2000802042F00102C4F8802082070AD5DA073B
:101B300008D0276802223A62D4F8802042F00402DA
:101B4000C4F8802042070AD5DA0708D023680422A7
:101B50001A62D4F8802042F00202C4F88020020702
:101B60000CD501F02002324308D0236808221A6203
:101B7000D4F8802042F00802C4F8802002050BD57A
:101B80004A0109D523684FF400621A62D4F8802014
:101B900042F02002C4F88020D4F88020002A2FD000
:101BA000800605D5880603D5616E09B120468847B1
:101BB000D4F8800021688968490602D410F0280F03
:101BC00020D0204600F0EFFF20688168490614D538
:101BD000816821F040018160206F70B14E498163BE
:101BE000206FFEF766FC00280AD0206F816B01E0B1
:101BF0000EE02046BDE8F04108472046FFF76FFFA2
:101C0000BDE8F0812046FFF76AFFC4F88050F7E78F
:101C1000276E2026012F59D1C70657D5CF0655D597
:101C2000102010622268906840062ED5216F086847
:101C300040680004000CE3D0B4F858308342DFD988
:101C4000A4F85A0008680068800617D4106820F4C9
:101C5000807010602068816821F001018160206837
:101C6000816821F040018160E6672566206801688F
:101C700021F010010160206FFEF7F6FBB4F8580068
:101C8000B4F85A10401A81B21CE0B4F85800B4F805
:101C90005A10401A81B2B4F85A000028B0D0002976
:101CA000AED0106820F4907010602068826822F036
:101CB00001028260E667256665662068026822F098
:101CC000100202602046FFF708FF99E7C70209D516
:101CD0005B0207D54FF4801010622046BDE8F0414A
:101CE000FFF7FCBE030606D50B0604D5A16E00293E
:101CF0007FF47FAF84E7400682D5480680D5106820
:101D000020F040001060A6672046A56600F077F935
:101D100076E7000020010004932B000810B50400B2
:101D200002D0A06F10B107E0012010BD002084F8A0
:101D30007400204600F026F82420A067206801687F
:101D400021F001010160204600F046FF0128ECD09F
:101D5000606A10B1204600F08AFE2068416821F4D4
:101D6000904141602068816821F02A0181602068EB
:101D7000016841F0010101602046BDE8104000F01B
:101D8000DABE000070B586B0044614216846FEF73E
:101D9000D8FA294E25680021284802220323072467
:101DA000B54220D1056E45F480450566056E05F403
:101DB00080450595C56C45F00205C564C06C02AD53
:101DC00000F00200059085E81A00C020CDE900026D
:101DD00069461B48FEF794FB002205212520FEF7EB
:101DE000F3FE252023E0174EB54222D1856D45F440
:101DF00000358565856D05F400350595C56C45F0A4
:101E00000105C564C06C02AD00F00100059085E8D5
:101E10001A000C20CDE9000269464FF09040FEF711
:101E20006FFB002205212620FEF7CEFE2620FEF7BE
:101E3000BDFE06B070BD0000003801400010024039
:101E400000040048004400402DE9F84F0446C06FEC
:101E50009A4616460D46202870D10DB306B394F865
:101E6000740001286AD0012084F874004FF0000843
:101E7000C4F880802221E167C4F860805834FEF7FE
:101E800015FC24F8026B814624F852694FF4805304
:101E900054F80809FF21984208D122691AB11CE0C0
:101EA000012000F04DB840F2FF1116E07F2290B102
:101EB000B0F1805F14D0A4F85C8000BFB4F85C700F
:101EC000984201D1206990B12E46002584F8748093
:101ED00007F0FF0825E0266936B9A4F85C10EDE7A5
:101EE000216909B13F21F8E7A4F85C20E6E7002664
:101EF000ECE74B46002220212046CDF800A000F060
:101F00005BFF08B10320CCE72068808C8EB100EA2B
:101F1000080006F8010B00BFB4F85A00401EA4F8F0
:101F20005A00B4F85A000028E3D12020E0670020CE
:101F3000B7E7384025F8020BEEE7FFE70220B0E7ED
:101F400018BCBDE8E08F00002DE9F8430446806F1F
:101F50001F4616460D4620284FD1CDB1C6B194F884
:101F60007400012849D0012084F874004FF0000863
:101F7000C4F880802120A067FEF798FBA4F8506089
:101F80008146A4F85260A068B0F5805F03D004E0F9
:101F90000120BDE8F883206928B12E465FF00005D6
:101FA00084F8748010E00026FAE78021204600F0D3
:101FB00003FFB8B9C6B116F8010B21680885B4F85B
:101FC0005200401EA4F85200B4F852004B464FF0A5
:101FD000000200970028E8D14FF04001204600F0B1
:101FE000EBFE30B10320D4E735F8020BC0F3080054
:101FF000E3E72020A0670020CBE70220C9E7704775
:10200000FEE701688A69D243920701D400228A62FE
:1020100000688169C943C90703D0816941F00101A2
:10202000816170472DE9F0410446006890460E46F4
:102030008069C043C00633D400252027206880690A
:10204000C043800615D5701CF8D0FEF72FFBA0EB1F
:102050000800B04201D8002EF0D154F8440F40F0EF
:10206000200044F804096770A57025700120BDE8C0
:10207000F08121681020C8612068C7612046FFF701
:10208000C0FF54F8440B4168064A11404160206883
:1020900040F0040044F820096777A5772577E5E745
:1020A0000020E4E700E800FEF0B50568059C6868DC
:1020B0004FF48066064FC1F3090106EA545641EA1F
:1020C00002413E431943B043214308436860F0BDD9
:1020D000FF63FF032DE9F0411D4617460E460446F7
:1020E000DDF8188008E0681C06D0FEF7DFFAA0EBE8
:1020F0000800A8420BD855B12068806936EA000074
:1021000012D00020B842EED00020BDE8F08154F893
:10211000440F40F0200044F80409202060700020A3
:10212000A07020700120F0E70120EBE770B51646A3
:102130000D4604460DE0324629462046FFF772FF61
:1021400008B1012070BDFEF7B1FA801BA84207D884
:1021500035B120688069C0438006ECD4002070BD92
:1021600054F8440F40F0200044F804092020607027
:102170000020A0702070E4E770B516460D460446B6
:102180000FE0324629462046FFF74CFF08B10120F8
:1021900070BD681C05D0FEF789FA801BA84207D8DD
:1021A00035B120688069C0438007EAD4002070BD43
:1021B00054F8440F40F0200044F8040920206070D7
:1021C0000020A0702070E2E730B587B01421684687
:1021D000FEF7B7F81548C16C41F00401C164C16C49
:1021E00001F004010591C16C41F00101C164C16CB1
:1021F00001F001010591C16C41F00201C164C06CA4
:10220000002400F0020005900325CDE90054694642
:102210004FF090400294FEF773F9CDE900546946FF
:1022200003480294FEF76CF907B030BD001002407D
:1022300000040048124810B510490160114941607E
:1022400000210122C0E90212016141618161C16185
:102250000162FEF785FA08B172B6FEE70021084870
:10226000FEF72AFA08B172B6FEE700210448FEF72D
:102270004EFA002801D072B6FEE710BD00540040AF
:10228000C40400209129700010B588B000241748BC
:102290000094019402940394049405944FF08041B7
:1022A000069401604FF43471C0E9011440F2CF711B
:1022B000C0E903148461FFF761FA08B172B6FEE762
:1022C0004FF48050009069460848FFF7C7FA08B1FC
:1022D00072B6FEE7049404A904480694FFF718FABE
:1022E000002801D072B6FEE708B010BD100500202E
:1022F0000C4810B50A4901604FF4165141600021A5
:1023000081600C22C160C0E904128161C161016277
:102310004162FFF703FD002801D072B6FEE710BD51
:10232000003801405C0500200C4810B50A490160E6
:102330004FF416514160002181600C22C160C0E958
:1023400004128161C16101624162FFF7E7FC00286C
:1023500001D072B6FEE710BD00440040E005002049
:10236000FEE7FEE72DE9F041444C05468846E0686B
:102370000026810728680DD0E16801F00301814241
:1023800016D1A8B1E0686968C0F30210401C884209
:102390000ED120E0012804D0022805D0032807D15F
:1023A00008E02168890701E021684905002907DB69
:1023B00001265FE02168890302D421684903F5E71B
:1023C000E1686A686FF00F0321F0730103EB0212FA
:1023D00011430143E160206820F080602060FEF737
:1023E00065F9074605E000BFFEF760F9C01B02284B
:1023F00037D820680001F7D4B8F1000F18D0B8F131
:10240000010F1DD0287D4FF07E41400801EB406058
:10241000A96840EA01202169194A11400843206156
:10242000206840F080602060FEF740F907461AE01F
:10243000A868297B000240EAC1602169114AECE7E3
:10244000288A1149400801EB4050A96840EA012060
:1024500021690E4AE1E700BFFEF728F9C01B0228F8
:1024600001D9032606E020680001F5D52069A96995
:10247000084320613046BDE8F081000000100240B2
:10248000FF80FFF9FF80FF070000E0FFFF809FFF54
:10249000F8B51C4D06460024A86DC00002D5FEF715
:1024A000F9FB0DE0A86D40F08050A865A86D00F024
:1024B00080500090FEF7EEFBA96D21F08051A965D8
:1024C000B0F5007F04D0802E07D94FF003040AE056
:1024D000802E08D9A02E01D804E001D1022402E008
:1024E000702E00D101240848016821F00701214322
:1024F0000160006800F00700A04201D00120F8BD93
:102500000020F8BD001002400020024010B500205D
:1025100000F024F8BDE8104000F04AB970B58028FA
:1025200013D2402911D20B4B012401F007051E796B
:10253000AC40094BC90800EBC1100EB132B101E04B
:10254000012A03D0195CA143195470BD195C2143C1
:10255000FAE7000000000020C400002028B1FF229C
:102560004FF480610248FDF7E5BE0022F8E7000065
:10257000C4000020014A10805180704700000020F4
:1025800010B501F0B1F944F62063012278215448D6
:10259000FEF742F908B1002010BD40F6C210401EFF
:1025A000FDD1AE220021782001F0A4F920220021E3
:1025B000782001F09FF910220021782001F09AF98B
:1025C000B0220021782001F095F9C822002178205E
:1025D00001F090F900221146782001F08BF91022C9
:1025E0000021782001F086F940220021782001F0B6
:1025F00081F981220021782001F07CF9FF2200215D
:10260000782001F077F9A1220021782001F072F9F9
:10261000A6220021782001F06DF9A822002178205F
:1026200001F068F93F220021782001F063F9A4222B
:102630000021782001F05EF9D3220021782001F0FA
:1026400059F900221146782001F054F9D5220021D1
:10265000782001F04FF9F0220021782001F04AF9AA
:10266000D9220021782001F045F92222002178208A
:1026700001F040F9DA220021782001F03BF9122222
:102680000021782001F036F9DB220021782001F0CA
:1026900031F920220021782001F02CF98D2200212F
:1026A000782001F027F914220021782001F022F986
:1026B000AF220021782001F01DF92E220021782080
:1026C00001F018F90020FFF749FF00F071F8054804
:1026D00000210180418001214171084610BD0000A8
:1026E000C4040020000000202DE9F0478146254861
:1026F0000D46924601882A781144802905D28046E9
:10270000408869780844402802D30020BDE8F0875B
:1027100000262AE0A9F1200111FB00606A6800246C
:1027200032F810701DE000BF07FA04F0000409D56C
:10273000B8F80210B8F800003144204489B280B2E1
:1027400052460BE0BAF1000F1AD00022B8F802107E
:10275000B8F800003144204489B280B2FFF7DEFEB1
:10276000641C2878A042DFD8761C6878B042D1D8A3
:10277000B8F800102A7848461144A8F80010C5E7B8
:102780000122E3E70000002070B515460E4604461E
:1027900009E02A463146FFF7A7FF2178884201D099
:1027A000C8B270BD641C20780028F2D1C0B270BDE0
:1027B00070B5104D002400BF04F1B000C2B200217A
:1027C000782001F097F800221146782001F092F865
:1027D00010220021782001F08DF805EBC41280232F
:1027E0004021782001F096F8641CE4B2082CE3D371
:1027F00070BD0000C4000020012000F051FCFBE788
:1028000012484FF0904310A1036081600122828042
:10281000452181710EA44461C36002230382817447
:102820000CA404620C4C8461828381770BA2446205
:10283000C262038580F82A10044801F033F80120B1
:1028400000F02EFCF8E70000503100006406002084
:1028500050320000503300000004004850340000A3
:10286000FFF754FE0348FDF7BDFD012000F018FC02
:10287000F8E7000064060020012000F011FCFBE7EF
:10288000012000F00DFCFBE710B54FF0E0200069DF
:1028900001F066FC012803D0BDE8104001F0ECB95E
:1028A00010BD000010B5ACB044216846FDF749FDED
:1028B000142126A8FDF745FD542111A8FDF741FD7F
:1028C000FEF7F0F9214850F8901F21F0180101603F
:1028D0001420009001200290002460210690CDE990
:1028E00007410221CDE90A100C9028200D90072005
:1028F000CDE90E0168461091FEF750FC08B172B6A2
:10290000FEE70F2026900320CDE927042994042117
:1029100026A82A94FEF71CFB08B172B6FEE74320F6
:10292000119019941A941C9411A8FEF7CBF908B1D0
:1029300072B6FEE74FF40070FEF778F908B172B690
:10294000FEE7FEF7B7F92CB010BD00000010024002
:102950000B48016841F4700101600A48016841F0C8
:1029600001010160002181600268074B1A4002608A
:102970008214C260026822F4802202608161704782
:1029800088ED00E000100240FFFFF6EA0148FEF784
:10299000D4BF0000C806002070B50268164B4FF087
:1029A0008046984201D0B04203D122F070044A68B8
:1029B0002243124C124D984205D0B04203D0A0429F
:1029C00001D0A84203D122F44076CA6832434E694E
:1029D00022F08002324302608A68C2620A68826220
:1029E000984203D0A04201D0A84201D109690163F5
:1029F0000121416170BD0000002C014000400140F8
:102A00000044014010B5846842EA032224F47F4464
:102A10000A432243826010BD826822F070020A439A
:102A200042F007018160704710B5036A046A24F020
:102A300001040462846924F0F00444EA021423F0DF
:102A40000A020A438461026210BD10B5036A23F0D2
:102A5000100303628369046A23F4704343EA023279
:102A600024F0A00343EA01118261016210BD90F8D5
:102A70002410C90706D001684A68836A22F400322C
:102A80001A434A6090F82410890706D501684A68FD
:102A9000C36A22F480321A434A6090F8241049072E
:102AA00006D501684A68036B22F480221A434A6003
:102AB00090F82410090706D501684A68436B22F490
:102AC00000421A434A6090F82410C90606D50168EE
:102AD0008A68836B22F480521A438A6090F824102B
:102AE000890606D501688A68C36B22F400521A432E
:102AF0008A6090F82410490611D501684A68036C71
:102B000022F480121A434A60016CB1F5801F06D18D
:102B100001684A68436C22F4C0021A434A6090F884
:102B20002410090606D501684A68806C22F4002248
:102B300002434A607047F8B500260446C0F880603A
:102B4000FDF7B4FD0546206800686FF07E4700077A
:102B500008D52B4600224FF400112046009700F0C4
:102B60002BF960B92068006840070AD52B4600227F
:102B70004FF480012046009700F01EF908B10320B1
:102B8000F8BD2020A067E067266684F87460002006
:102B9000F8BD10B5806A0021A0F85A10A0F85210B4
:102BA000FEF79DFF10BD01680A6822F490720A606A
:102BB00001688A6822F001028A60016E012904D14D
:102BC00001680A6822F010020A602021C167002112
:102BD00001664166704700002DE9F0410446006837
:102BE0002269A168E66911436269002532431143F5
:102BF0006A4B02686A4E32400A43026020684168AC
:102C0000E26821F44051114341602168A069994272
:102C100001D0226A10438A6822F4306202438A603B
:102C20006049276860488F420DD1D0F8880010F0C5
:102C3000030006D0012838D0022834D0032821D13F
:102C400035E001211FE059498F420BD1D0F88800AF
:102C500010F00C0025D0042827D0082823D00C28F9
:102C600010D124E09F420DD1D0F8880010F44060CC
:102C700017D0B0F5806F18D0B0F5006F13D0B0F555
:102C8000406F14D010214A4800264FF400429F4262
:102C90002DD171B1022912D004290DD0082971D18A
:102CA00023E00021EFE70221EDE70421EBE7082113
:102CB000E9E7FEF7FDF901E0FEF71EFAE8B3626806
:102CC00002EB420181425DD8B0EB023F5AD8010EBF
:102CD00003025008181871410023FDF7E5FA354A40
:102CE000A0F54071914251D94CE01046E7E7E36905
:102CF0004FF6EF77934229D1092943D2DFE801F05B
:102D000005080E420B4242422400FEF7D1F904E0CE
:102D1000FEF7E0F901E0FEF7EFF970B141006068FD
:102D200001EB5001B1FBF0F080B2A0F11001B9420B
:102D300028D84FF6F071014000E029E0C0F34200CE
:102D400001432068C16023E01046E7E7092919D252
:102D5000DFE801F005080E180B1818181A00FEF726
:102D6000A7F904E0FEF7B6F901E0FEF7C5F978B17E
:102D7000616800EB5100B0FBF1F080B2A0F11001EE
:102D8000B94203D9012503E01046F1E72168C86084
:102D900066662846A666BDE8F08100000080004017
:102DA000F369FFEF0038014000100240004400408A
:102DB0000024F400FFFC0F002DE9F0479A46174667
:102DC0000E4604464FF000094FF02008089D39E0F8
:102DD000681C37D0FDF76AFCA0EB0A00A84222D895
:102DE0000DB32068016849072CD5C069C0430005B0
:102DF00028D421684FF4006008622068016821F43B
:102E0000D07101602068816821F001018160C4F8FF
:102E10007880C4F87C80C4F8808000BF84F8749007
:102E20000320BDE8F0872068016821F4D0710160BB
:102E30002068816821F001018160C4F87880C4F8BD
:102E40007C80EBE72068C06936EA000004D00020EF
:102E5000B842BDD00020E4E70120F9E770B5254C69
:102E6000234D0A23207801222918401C2070224873
:102E7000FEF7EAFF2078284410F8010C0A282ED12A
:102E80002846FDF775FA024629461C48FDF764FA04
:102E90002846FDF76DFA82B24FF4FA752B461449B5
:102EA0001748FFF751F81248FDF762FA82B215A1F0
:102EB0000F4800F04BFD15490128086014D00C485C
:102EC000FDF756FA28B12B46122211A10A48FFF746
:102ED0003BF832210648FDF734FA00202070BDE8A7
:102EE00070400548FEF7FCBD2B460F220DA1EDE713
:102EF00014070020450000205C05002094060020F7
:102F0000E005002053310D0A0000000040000020C1
:102F100054727920616E6F7468657220536C6F749F
:102F20002E0A0000534C4F542052455345525645EB
:102F3000442E0A000148FEF7D3BD0000E005002042
:102F4000FEE70907090E002804DB00F1E02080F805
:102F50000014704700F00F0000F1E02080F8141D0D
:102F6000704702E008C8121F08C1002AFAD1704752
:102F70007047002001E001C1121F002AFBD17047F9
:102F8000FDF7B0FDFFF78EFCFFF71EF9FFF7CCF958
:102F9000FFF750F9FFF7ACF9FFF776F93221364821
:102FA000FDF7CFF932213548FDF7CBF93448FEF76C
:102FB00029FC33484C300068016841F02001016071
:102FC0002E48B4380068016841F020010160FFF725
:102FD000D7FAFFF79BFA0020FFF7C0FAFFF7E8FBEC
:102FE00000F06EF8274800F0C3F8274C206225480F
:102FF000103000F0BDF8234A0121606220320846FB
:1030000000F004F91F4A0121A0623032084600F0A6
:10301000FDF81C4AE062303A0221102000F064F80A
:10302000184AA061183A0221102000F05DF8154AF4
:10303000E061E43A0021154800F042F9114A60606D
:10304000C03A0021124800F03BF90E4AA0609C3AB9
:103050000021104800F034F90A4AE060783A002173
:103060000D4800F02DF9074A2061543A00210B4821
:1030700000F026F96061FEE71407002094060020A6
:10308000100500204C52000810000020F92700080D
:103090000128000861280008792800088128000814
:1030A00010B50146EFF3058010B16FF0050404E0A0
:1030B000002411B1084600F051FD204610BD00006B
:1030C000EFF30580002802D06FF005007047054837
:1030D000016811B14FF0FF307047012101600020FD
:1030E0007047000094000020F8B5844614464FF065
:1030F0000005EFF30580002838D1BCF1000F35D072
:10310000002933D0421EB4B1A06858B1E368502BF7
:1031100008D3236933B163690CFB01F6B34201D3D1
:10312000012209E040B9E06830B9206920B960693E
:1031300010B9002200E00022012A01D04AB10DE0BE
:10314000002000906046A368226900F026FE054634
:1031500004E00022604600F0FEFD054635B10CB1EA
:10316000216800E00021284600F0B6FC2846F8BDA2
:1031700070B504464FF00005EFF30580002843D1F9
:103180000CB1606800E0002010F0010F01D00126B2
:1031900000E0002610F0080F36D14FF0FF305CB190
:1031A000A16821B1E268502A01D3012005E021B9CC
:1031B000E16811B9002000E00020012801D068B1C9
:1031C00016E02EB10420A16800F0B7FD05460FE01F
:1031D0000120A16800F0B1FD054609E026B10420F8
:1031E00000F09FFD054603E0012000F09AFD054632
:1031F00035B10CB1216800E00021284600F06CFCDC
:1032000015B10EB145F00105284670BDF8B50E4662
:1032100014464FF00005EFF3058100294ED1002838
:103220004CD086424AD84A1E5CB1A36823B1E168FB
:10323000502901D3012205E023B9E16811B9002228
:1032400000E00022B2F1FF3F38D0012809D0012A66
:103250002AD0314600F026FD05467DB354B32168DF
:1032600029E0012A16D003220021012000F073FD7D
:103270000546002DF1D0002EEFD000231A46194646
:10328000284600F00BFE0128E7D0284600F038FC65
:103290000025E2E703200090002211460120A368E8
:1032A00000F07BFD0546E4E73146A26800F018FD1A
:1032B0000546D2E70021284600F00EFC2846F8BD5E
:1032C0002DE9F04385B00B464FF000070497EFF36C
:1032D000058100294ED100284CD080244FF0180CD5
:1032E0008946491E52B3166806B1B146956905B1C3
:1032F000AC46ACF10105382D03D2157915F0010F5C
:1033000003D005B00020BDE8F083556905B1AC08D5
:10331000D2F80880B8F1000F07D0D6685C2E04D32D
:10332000166916B10DB1012109E0B8F1000F06D1FF
:10333000D56825B9156915B9002100E000210129DA
:1033400001D061B116E09168126901920291CDF845
:1033500000C02246494600F0D2FE04900AE004A9CB
:103360000191A2B2CDF800C0494600F08FFE0128BD
:1033700000D00497049805B0BDE8F0832DE9F04132
:1033800004460F46134EF5683068001D00F0F4FA4D
:10339000B4F1FF3F07D137B13068BDE8F041011DFE
:1033A0000D4800F025BB2C4430684460AC4206D286
:1033B0003068011DB06BBDE8F04100F0FEBA306826
:1033C000011D706B00F0F9FAB06A844200D2B46259
:1033D000BDE8F08158000020380C002070B504468C
:1033E00000F012FB1C4DA868401CA860286810B1B2
:1033F000686938B10CE02C60A868012808D100F099
:10340000FBF805E02868E16AC06A884200D82C60B1
:10341000686A401C68626064E06A2969884200D971
:1034200028610E4900EB800001EB8000211D00F0B7
:10343000DFFA00F009FB686900280CD02868E16A0F
:10344000C06A884207D206494FF080500860BFF337
:103450004F8FBFF36F8F70BD58000020880700208A
:1034600004ED00E02DE9F041044616460027A56B67
:10347000226C002A10D0C6B1E068FCF749FFE16871
:10348000206C091AE1602268914202D2A168081AF0
:10349000E060022E16D017E02068A8B9A06800F0FE
:1034A000D3FE07460020A0600EE06068FCF730FF06
:1034B000216C606808446060A168884204D3206879
:1034C000606001E005B16D1E681CA0633846BDE870
:1034D000F08100004FF47A61104810F0070F06D019
:1034E000C01D20F007000D49411AC1F57A610C4A50
:1034F0001060002353600144083921F00701183A95
:1035000011604B600B600B1A436001604068906073
:1035100050604FF000405061704700004C0C00209C
:10352000B0000020002808D0002181600160C16047
:1035300000231A46194600F0B1BC704770B51D460D
:10354000049C002909D02260E06321640121204607
:1035500000F05CFC84F84C5070BD2460F4E72DE969
:10356000F05F82460B9F0A9D0C9C0E4690469B4640
:103570004FEA8801A522206BFCF7DCFE206BA8F146
:10358000010100EB810020F007094FF0000866B14F
:1035900000202218315C82F83410315C11B1401CDB
:1035A0001028F6D384F8438001E084F83480382D65
:1035B00000D33725E562E564C4F85080201D00F093
:1035C000F9F904F1180000F0F5F92461C5F13800AB
:1035D000A0616462C4F8548084F858805A46514609
:1035E000484600F049F92060002F00D03C6000F010
:1035F00000B830BCBDE8C09F70B500240F4D04EB8F
:10360000840005EB800000F0CAF9641C382CF6D366
:103610000B4800F0C4F90B4800F0C1F90A4800F06B
:10362000BEF90A4800F0BBF9094800F0B8F90948AA
:10363000034941631431816370BD00008807002095
:10364000E80B0020FC0B0020100C0020240C0020B4
:10365000380C00205800002010B4144900E0114636
:103660000A688242FBD34B6803EB010C844503D10B
:1036700040681844486008460C68D0F804C00CEB59
:103680000003A3420CD10A4B1B689A4206D0526831
:10369000624442600A681268026002E0036000E06F
:1036A0000260814200D0086010BC7047B00000206A
:1036B0009800002010B5044600F0A6F9A06BE16B5D
:1036C000884201D1012400E0002400F0BDF9204629
:1036D00010BD00000749486B0068002805D0486B02
:1036E000C068C0684068886270474FF0FF308862E9
:1036F00070470000580000200A484068B0F1FF3FC2
:1037000007D0502080F31188BFF34F8FBFF36F8F26
:10371000FEE7502080F31188BFF34F8FBFF36F8F08
:10372000FEE70000B800002070B5044600F06CF918
:1037300094F94550002D0CDD606A50B104F124006D
:1037400000F0C2FD08B100F039FA681E45B2002D44
:10375000F2DC4FF0FF3684F8456000F075F900F0B8
:1037600053F994F94450002D0CDD206950B104F157
:10377000100000F0A9FD08B100F020FA681E45B263
:10378000002DF2DC84F84460BDE8704000F05CB9C4
:103790002DE9F0410546002600F030FA344F386834
:1037A00008B9FFF797FE7869054251D19DB10835F8
:1037B00015F0070F0FD005F00700C0F10800054411
:1037C00015F0070F07D0502080F31188BFF34F8FFB
:1037D000BFF36F8FFEE7002D3AD07868854237D867
:1037E00024490846046801E0214604466068A8426E
:1037F00002D220680028F7D13868844228D00868AF
:1038000000F10806206808606068411B10290FD984
:10381000601910F0070F07D0502080F31188BFF314
:103820004F8FBFF36F8FFEE741606560FFF714FFB6
:1038300061687868401A7860BA68904200D2B860CF
:1038400078690843606000202060F868401CF860D8
:1038500000F076FD16F0070F07D0502080F3118896
:10386000BFF34F8FBFF36F8FFEE73046BDE8F081A7
:1038700098000020B0000020001F4FF0807303600C
:10388000001F21F001010160001F0549016014388B
:103890000260001F6FF002010160203870470000D5
:1038A000F93600082DE9F04706460E4F00244FF088
:1038B00046084FF045090CE004EB440006EB800598
:1038C00056F82000A988FCF7ECFE38B185F8069080
:1038D000641C38688442EFDBBDE8F08785F8068019
:1038E000F6E70000100000200148401EFDD170479F
:1038F00090D003001CB502238DF804100A2100911A
:103900008DF80520014601AA0148FDF71BF81CBDF2
:10391000C404002070B5C2B000248DF8041001A9C1
:1039200004E0155D0E19641C7570E4B29C42F8D376
:103930000A2100915B1C01469BB201AA0248FDF7D7
:1039400001F842B070BD0000C404002070B500242E
:10395000234609E0C55CCE5CB54202D1641CE4B2EA
:1039600000E000245B1CDBB29342F3D3944201D10C
:10397000012070BD002070BD0169436882689A60B3
:10398000836842685A604A68824201D182684A600C
:10399000002202610868401E08600868704700F154
:1039A000080141604FF0FF328260C1600161002177
:1039B0000160704700210161704710B4D1F800C068
:1039C000BCF1FF3F02D000F1080202E0026904E00E
:1039D0001A4653681C686445FAD953684B6099606D
:1039E0008A60516008610168491C016010BC704721
:1039F00042684A6093688B6093685960916008617F
:103A00000168491C01607047502080F31188BFF3A2
:103A10004F8FBFF36F8F0A494868401C48600128E8
:103A20000CD10848006810F0FF0F07D0502080F339
:103A30001188BFF34F8FBFF36F8FFEE77047000011
:103A4000B800002004ED00E009494868002806D0CD
:103A5000401E4860002801D180F311887047502033
:103A600080F31188BFF34F8FBFF36F8FFEE7000025
:103A7000B800002070B500282AD0A0F10804154D28
:103A800060686969084207D1502080F31188BFF34C
:103A90004F8FBFF36F8FFEE722683AB1502080F35B
:103AA0001188BFF34F8FBFF36F8FFEE788436060CD
:103AB00000F0A4F860686968084468602046FFF771
:103AC000CBFD2869401C2861BDE8704000F038BC7F
:103AD00070BD0000980000200022084B53F832C04F
:103AE000BCF1000F03D0521C082AF7D3704743F8EB
:103AF000321003EBC2014860704700004807002005
:103B000010B50446002C0BD0204600F013F894F8B2
:103B1000460000280CD12046BDE81040FFF7AABFA0
:103B2000502080F31188BFF34F8FBFF36F8FFEE7F4
:103B300010BD00000021084A02EBC1035B6883420C
:103B400006D1002042F8310002EBC1014860704705
:103B5000491C0829F0D370474807002010B50246D9
:103B60000020002A12D00F48006B38B1502080F39B
:103B70001188BFF34F8FBFF36F8FFEE700F03EF861
:103B800000211046FFF7FAFB00F0DAFB002807D10E
:103B900005494FF080500860BFF34F8FBFF36F8F20
:103BA00010BD00005800002004ED00E002490A6A40
:103BB0000260C96841607047580000200149012037
:103BC000C86170475800002010B50C4600280BD083
:103BD000094A126802F11801FFF7EFFE2046BDE81E
:103BE00010400121FFF7CABB502080F31188BFF3BA
:103BF0004F8FBFF36F8FFEE7580000200248016B24
:103C0000491C01637047000058000020184B186BD6
:103C1000002802D00120D86170470020D8611869BF
:103C2000144900EB800251F822203AB9C0B1401E7D
:103C300000EB800251F82220002AF7D000EB80022E
:103C400001EB82014A6852684A6001F1080C624542
:103C500001D152684A604968C968196018617047A3
:103C6000502080F31188BFF34F8FBFF36F8FFEE7B3
:103C7000580000208807002010B5502080F31188DC
:103C8000BFF34F8FBFF36F8F00F078FA18B104497C
:103C90004FF080500860002080F3118810BD0000B4
:103CA00004ED00E010B50C46002809D084420FD97D
:103CB000502080F31188BFF34F8FBFF36F8FFEE763
:103CC000502080F31188BFF34F8FBFF36F8FFEE753
:103CD0000222002100F03FF8002800D0846310BDCC
:103CE00038B50C46002809D084420FD9502080F303
:103CF0001188BFF34F8FBFF36F8FFEE7502080F323
:103D00001188BFF34F8FBFF36F8FFEE70221134679
:103D100000220091114600F040F8002800D0846392
:103D200038BD10B502460021012000F014F8044609
:103D30002046FFF7F7FB204610BD38B50B460022A2
:103D400000901146012000F028F804462046FFF7B5
:103D5000E9FB204638BDF8B505460E461746002D4E
:103D600013D005FB06F05030FFF712FD044654B1A6
:103D700004F15002002084F846003B4631462846B4
:103D80000094FFF7DBFB2046F8BD502080F311883C
:103D9000BFF34F8FBFF36F8FFEE738B5049D002848
:103DA00004D05BB102B189B1C2B120E0502080F3F0
:103DB0001188BFF34F8FBFF36F8FFEE7502080F362
:103DC0001188BFF34F8FBFF36F8FFEE7502080F352
:103DD0001188BFF34F8FBFF36F8FFEE739B15020CB
:103DE00080F31188BFF34F8FBFF36F8FFEE74FF063
:103DF000500CCDF800C01C46012384F846302B46F9
:103E00000094FFF79BFB204638BD000070B50446C8
:103E10000D46002C25D0FFF7F7FD226CE16B2068E2
:103E200001FB0200A0600020A06320686060E16BDD
:103E3000226C2068491E01FB0200E0604FF0FF3059
:103E400084F8440084F845009DB104F11000FFF7A8
:103E5000A6FD04F12400FFF7A2FDFFF7F5FD012008
:103E600070BD502080F31188BFF34F8FBFF36F8F69
:103E7000FEE720690028F0D004F1100000F024FAD9
:103E80000028EAD004494FF080500860BFF34F8FFC
:103E9000BFF36F8FE1E7000004ED00E02DE9FF477D
:103EA00082B004468A461F460025002C03D0BAF192
:103EB000000F08D011E0502080F31188BFF34F8F1E
:103EC000BFF36F8FFEE7206C38B1502080F311886C
:103ED000BFF34F8FBFF36F8FFEE7022F0AD1E06B66
:103EE000012807D0502080F31188BFF34F8FBFF314
:103EF0006F8FFEE700F034F948B9049838B15020CC
:103F000080F31188BFF34F8FBFF36F8FFEE700265A
:103F10004FF08058DFF8F090FFF776FDA06BE16B73
:103F2000884205D3022F03D0049808B335B329E0A3
:103F30003A4651462046FFF795FA616A59B104F1B5
:103F4000240000F0C1F968B1C9F80080BFF34F8FB9
:103F5000BFF36F8F06E028B1C9F80080BFF34F8F21
:103F6000BFF36F8FFFF770FD06B00120BDE8F0874B
:103F7000FFF76AFD06B00020BDE8F0876846FFF74E
:103F800015FE0125FFF760FDFFF738FEFFF73CFD4A
:103F900094F94400B0F1FF3F01D184F8446094F9F2
:103FA0004500B0F1FF3F01D184F84560FFF74CFDBB
:103FB00004A9684600F02AF840B12046FFF7B4FB98
:103FC00000F0BEF906B00020BDE8F0872046FFF7FC
:103FD00071FB90B104F110000499FFF7F5FD204644
:103FE000FFF7A2FB00F0ACF9002895D1C9F80080DA
:103FF000BFF34F8FBFF36F8F8EE72046FFF794FB21
:1040000000F09EF988E7000004ED00E070B5054679
:104010000C46002D15D0E4B1FFF7F6FCDFF868C0C0
:10402000DCF80C006B68C11A2268B2F1FF3F18D0AF
:104030002E68DCF820C0664515D0834213D80124D1
:104040001DE0502080F31188BFF34F8FBFF36F8FB7
:10405000FEE7502080F31188BFF34F8FBFF36F8FBF
:10406000FEE700240BE08A4206D9501A2060284659
:10407000FFF79CFD002402E0002020600124FFF7F0
:10408000E3FC204670BD0000580000202DE9F04FF1
:1040900085B081460F9F0E9E8A4690469B464FEA0A
:1040A0008800FFF775FB054628000AD05C20FFF763
:1040B0006FFB04460CB1256304E02846FFF7DAFCE9
:1040C00000E000249CB1002084F8590003905B4676
:1040D000424651460197009602944846FFF73FFA40
:1040E0002046FFF77BF905B0012000F005B805B0C8
:1040F0004FF0FF3000F000B830BCBDE8C08F70B5A5
:1041000086B00646DDF828C00C9C0B98002816D017
:10411000ECB15C2504952063022084F8590000204E
:1041200005AD0390CDF800C0019502943046FFF72D
:1041300016FA2046FFF752F9059806B070BD5020D8
:1041400080F31188BFF34F8FBFF36F8FFEE75020CE
:1041500080F31188BFF34F8FBFF36F8FFEE700002E
:1041600005484169002903D0006B18B10020704751
:104170000120704702207047580000202DE9F041CF
:1041800000262F4F386B002805D0B869401CB86155
:104190003046BDE8F081F868451CFD609DB9786B3C
:1041A000006838B1502080F31188BFF34F8FBFF300
:1041B0006F8FFEE7786BB96B7963B863386A401C20
:1041C0003862FFF787FAB86ADFF8788085420DD346
:1041D000786B006838B1786BC068C46860688542E5
:1041E00012D2B86202E04FF0FF30B8623868C06A9D
:1041F00000EB800058F82000012800D90126F8695A
:104200000028C5D00126C3E7201DFFF7B5FBA06A33
:1042100018B104F11800FFF7AFFBE16A3869814279
:1042200000D9396101EB810008EB8000211DFFF707
:10423000DFFBE06A3968C96A8842C9D30126C7E74B
:10424000580000208807002070B50446002100288F
:1042500033D01B4D2868844207D0502080F311884A
:10426000BFF34F8FBFF36F8FFEE7206D38B1401E55
:104270002065E36CE26A9A421FD040B11DE05020F5
:1042800080F31188BFF34F8FBFF36F8FFEE7201DC0
:10429000FFF772FBE06CE062C0F13800A061E06AF9
:1042A0002969884200D92861064900EB800001EBAA
:1042B0008000211DFFF79CFB0121084670BD000016
:1042C000580000208807002070B5C068C468002C22
:1042D00014D004F11800FFF74FFB164D286BA8B15E
:1042E00004F118011448FFF783FBE06A2968C96AE2
:1042F00088421CD901200121E96170BD502080F362
:104300001188BFF34F8FBFF36F8FFEE7201DFFF7BC
:1043100033FBE06A2969884200D92861074900EB2C
:10432000800001EB8000211DFFF762FBDDE700202C
:1043300070BD000058000020100C002088070020ED
:104340002DE9F047002400272D4D286B002807D0C9
:10435000FFF75AFB286B401E2863286B40B149E0E9
:10436000502080F31188BFF34F8FBFF36F8FFEE7AC
:10437000A86800283ED0234E30684FF0010800B3F3
:10438000A6F59169F068C46804F11800FFF7F4FA23
:10439000201DFFF7F1FAE06A2969884200D92861F7
:1043A00000EB800009EB8000211DFFF721FBE06A94
:1043B0002968C96A884201D3C5F81C803068002882
:1043C000E0D10CB1FFF786F9AC694CB1FFF7D6FE2E
:1043D00008B1C5F81C80641E002CF7D10020A8612C
:1043E000E86938B10127084938070860BFF34F8FE3
:1043F000BFF36F8FFFF728FB3846BDE8F08700005A
:1044000058000020100C002004ED00E00000000027
:10441000000000000000000000000000000000009C
:10442000000000000000000000000000000000008C
:104430000000000C000C000C000C000C000C000C28
:10444000000C000C000C000C0000000C000C000024
:10445000000000000000001B001B001B001B001BD5
:10446000000000000000000000000000000000004C
:104470000000000000000000000080198019801971
:104480008019C07FC07F80190033C07FC07F003398
:104490000033003300330000000000000000001E65
:1044A000003F807580650074003C001E0007800599
:1044B000806580658075003F001E000400040000D8
:1044C0000000007000D840D8C0D880D90073000622
:1044D000000C801BC036C066C046C00680030000CA
:1044E000000000000000001E003F003300330033D6
:1044F000001E000CC03CC066806380618063C03ECB
:10450000801C0000000000000000000C000C000CEB
:10451000000C000C00000000000000000000000083
:10452000000000000000000000000000800000010A
:104530000003000600060004000C000C000C000C38
:10454000000C000C000400060006000300018000BF
:10455000002000100018000C000C000400060006EB
:1045600000060006000600060004000C000C0018FF
:10457000001000200000000C002D003F001E003342
:10458000000000000000000000000000000000002B
:104590000000000000000000000000000000000C0F
:1045A000000C000C000CC0FFC0FF000C000C000C45
:1045B000000C0000000000000000000000000000EF
:1045C00000000000000000000000000000000000EB
:1045D000000000000000000C000C000400040008B3
:1045E00000000000000000000000000000000000CB
:1045F0000000001E001E000000000000000000007F
:1046000000000000000000000000000000000000AA
:104610000000000000000000000000000000000C8E
:10462000000C000000000000000000030003000375
:104630000006000600060006000C000C000C000C32
:104640000018001800180000000000000000001E04
:10465000003F0033806180618061806D806D80618A
:10466000806180610033003F001E000000000000F8
:1046700000000006000E001E0036002600060006A0
:104680000006000600060006000600060006000000
:10469000000000000000001E003F80738061806108
:1046A000800100030006000C001800300060807FCD
:1046B000807F0000000000000000001C003E00633E
:1046C00000630003000E000E000380018001806182
:1046D0008073003F001E0000000000000000000684
:1046E000000E000E001E001E00160036003600668A
:1046F000807F807F000600060006000000000000AA
:104700000000007F007F006000600060006E007F9E
:1047100080638001800180618073003F001E000083
:10472000000000000000001E003F80338061006038
:10473000006E007F80738061806180618033003F04
:10474000001E0000000000000000807F807F8001CC
:104750000003000300060006000C000C000C00081B
:104760000018001800180000000000000000001EE3
:10477000003F8063806180610021001E003F8061F6
:10478000806180618061003F001E00000000000029
:104790000000001E003F00738061806180618073B3
:1047A000803F801D800180610073003F001E00007B
:1047B0000000000000000000000000000000000CED
:1047C000000C000000000000000000000000000CD1
:1047D000000C0000000000000000000000000000CD
:1047E00000000000000C000C0000000000000000B1
:1047F0000000000C000C0004000400080000000091
:104800000000000080008003000E003800600038C7
:10481000000E800380000000000000000000000087
:1048200000000000000000000000807F807F00008A
:104830000000807F807F000000000000000000007A
:1048400000000000000000000000000000400070B8
:10485000001C000780010007001C007000400000E1
:1048600000000000000000000000001F803FC07139
:10487000C060C000C00180030007000E000C000CE7
:104880000000000C000C0000000000000000001EF2
:10489000003F803180718063806F806D806D806F9C
:1048A000806700600032003E001C00000000000035
:1048B0000000000E000E001B001B001B001B8031BF
:1048C0008031803F803F8031C060C060C0600000A8
:1048D000000000000000007C007E006300630063B5
:1048E0000063007E007E0063806180618063007FE2
:1048F000007E0000000000000000001E003F80312C
:1049000080610060006000600060006000608061A5
:104910008031003F001E0000000000000000007C0D
:10492000007F00638063806180618061806180615D
:10493000806100630063007E007C000000000000D6
:104940000000807F807F0060006000600060007F6A
:10495000007F0060006000600060807F807F00005A
:10496000000000000000807F807F00600060006029
:104970000060007F007F00600060006000600060F9
:1049800000600000000000000000001E003F8031B9
:10499000806100600060006080638063806180618E
:1049A0008031803F001E0000000000000000806198
:1049B00080618061806180618061807F807F8061B3
:1049C0008061806180618061806100000000000082
:1049D0000000003F003F000C000C000C000C000C1D
:1049E000000C000C000C000C000C003F003F00000D
:1049F0000000000000008001800180018001800132
:104A00008001800180018001806180618073003FAE
:104A1000001E0000000000000000C0608061006314
:104A200000660066006C0078007C0066006600632B
:104A300080618061C0600000000000000000006034
:104A40000060006000600060006000600060006066
:104A5000006000600060807F807F00000000000038
:104A60000000C071C071C07BC07AC06AC06AC06EED
:104A7000C064C060C060C060C060C060C060000052
:104A80000000000000008071807180798079807959
:104A9000806D806D806D80658067806780678063D2
:104AA00080630000000000000000001E003F003393
:104AB00080618061806180618061806180618061EE
:104AC0000033003F001E0000000000000000007ED8
:104AD000007F80638061806180618063007F007EF1
:104AE00000600060006000600060000000000000E6
:104AF0000000001E003F00338061806180618061A2
:104B000080618061806580670033803F401E0000C7
:104B1000000000000000007E007F806380618061F3
:104B20008063007F007E00660063006380618061B7
:104B3000C0600000000000000000000E001F803177
:104B4000803100300038001E0007800380618061E2
:104B50008031003F001E0000000000000000C0FF88
:104B6000C0FF000C000C000C000C000C000C000C32
:104B7000000C000C000C000C000C000000000000F9
:104B800000008061806180618061806180618061FE
:104B900080618061806180618073003F001E000041
:104BA000000000000000C060C060C0608031803143
:104BB0008031001B001B001B001B000E000E000EAE
:104BC00000040000000000000000C0C0C0C0C0C061
:104BD000C0C0C0C0C0CC804C804C805E805280522F
:104BE0008073806180610000000000000000C0C090
:104BF000806080610033003B001E000C000C001E32
:104C0000001F003B80718061C0C0000000000000F8
:104C10000000C0C08061806100330033001E001EB0
:104C2000000C000C000C000C000C000C000C000030
:104C3000000000000000803F803F8001000300036F
:104C40000006000C000C0018001800300060807F87
:104C5000807F000000000000000F000F000C000C1F
:104C6000000C000C000C000C000C000C000C000CE4
:104C7000000C000C000C000C000F000F00000018CE
:104C800000180018000C000C000C000C00060006B8
:104C900000060006000300030003000000000000FF
:104CA000001E001E000600060006000600060006A4
:104CB00000060006000600060006000600060006C4
:104CC000001E001E0000000C000C001E001200332D
:104CD00000338061806100000000000000000000DF
:104CE00000000000000000000000000000000000C4
:104CF00000000000000000000000000000000000B4
:104D00000000000000000000E0FF0000000000388C
:104D10000018000C0000000000000000000000006F
:104D20000000000000000000000000000000000083
:104D300000000000000000000000001F803F8061B4
:104D40008001801F803F80618063807FC0380000C9
:104D50000000000000000060006000600060006E65
:104D6000007F807380618061806180618073007FDB
:104D7000006E0000000000000000000000000000C5
:104D80000000001E003F8073806100600060806151
:104D90008073003F001E0000000000000000800142
:104DA000800180018001801D803F8073806180616F
:104DB000806180618073803F801D000000000000E2
:104DC00000000000000000000000001E003F007313
:104DD0008061807F807F00608071003F001E000046
:104DE000000000000000C007C00F000C000C807F16
:104DF000807F000C000C000C000C000C000C000C60
:104E0000000C000000000000000000000000000096
:104E1000801D803F807380618061806180618073CC
:104E2000803F801D80018063007F003E00000060A5
:104E3000006000600060006F807F80718061806131
:104E400080618061806180618061000000000000FD
:104E500000000006000600000000003E003E0006C4
:104E60000006000600060006000600060006000018
:104E7000000000000006000600000000003E003EAA
:104E800000060006000600060006000600060006F2
:104E900000060046007E003C0000006000600060EC
:104EA0000060806100630066006C007C0076006337
:104EB00000638061C0600000000000000000003E50
:104EC000003E00060006000600060006000600067A
:104ED00000060006000600060006000000000000B4
:104EE0000000000000000000000080DDC0FFC0CE18
:104EF000C0CCC0CCC0CCC0CCC0CCC0CCC0CC0000DE
:104F00000000000000000000000000000000006F32
:104F1000807F80718061806180618061806180615B
:104F200080610000000000000000000000000000A0
:104F30000000001E003F807380618061806180619D
:104F40008073003F001E0000000000000000000011
:104F500000000000006E007F8073806180618061CE
:104F600080618073007F006E006000600060006000
:104F70000000000000000000801D803F8073806101
:104F80008061806180618073803F801D800180012D
:104F900080018001000000000000000000000067A8
:104FA000803F0039003000300030003000300030E9
:104FB00000300000000000000000000000000000C1
:104FC0000000001E803F80610060007F803F800104
:104FD0008061007F001E0000000000000000000053
:104FE000000800180018007F007F00180018001843
:104FF000001800180018801F800F0000000000003B
:1050000000000000000000000000806180618061FD
:1050100080618061806180618063807F803D00006D
:105020000000000000000000000000000000C06060
:10503000803180318031001B001B001B000E000EF0
:10504000000600000000000000000000000000005A
:10505000000080DD80DD80DD0055005500550077C3
:105060000077002200220000000000000000000085
:10507000000000000000806100330033001E000CBF
:10508000000C001E003300338061000000000000AF
:10509000000000000000000080618061803100336A
:1050A0000033001B001B001B000E000E000E001C36
:1050B000007C007000000000000000000000C07FC5
:1050C000C07F800100030006000C00180030C07F84
:1050D000C07F00000000000080038007000600067B
:1050E000000600060006000E001C001C000E000654
:1050F0000006000600060006800780030006000682
:10510000000600060006000600060006000600066F
:10511000000600060006000600060006000600065F
:105120000038003C000C000C000C000C000C000EC1
:1051300000070007000E000C000C000C000C000C17
:10514000003C0038000000000000000000000000EB
:1051500000008038807F0047000000000000000051
:105160000000000000000000545300080000000090
:10517000000000000000000000000000000200002D
:1051800018000000000000000000000008530008A4
:10519000000000000000000000000000000000000F
:1051A00000020000180000000000000000000000E5
:1051B0003053000800000000000000000000000064
:1051C00000000000000200001800000000000000C5
:1051D000000000003C530008000000000000000038
:1051E00000000000000000000002000018000000A5
:1051F000000000000000000048530008000000000C
:10520000000000000000000000000000000200009C
:10521000180000000000000000000000D452000848
:10522000000000000000000000000000000000007E
:1052300000000000FC520008000000000000000018
:10524000000000000000000000000000F052000814
:1052500000000000000000000000000024530008CF
:10526000000000000000000000000000E052000804
:1052700000000000000000000000000014530008BF
:10528000000000000000000000000000000000001E
:10529000000000000102030406070809A0860100BF
:1052A000400D0300801A060000350C0040420F003C
:1052B00080841E0000093D0000127A000024F400E2
:1052C00000366E010048E801006CDC0200000000BE
:1052D000010203046D795175657565303100000078
:1052E0006D7942696E61727953656D3031000000ED
:1052F0006D794D7574657830310000006D795175A8
:1053000065756530320000006D795461736B303221
:10531000000000006D7942696E61727953656D30ED
:10532000320000006D794D757465783032000000F0
:105330006D795461736B3033000000006D795461F6
:10534000736B3034000000006D795461736B30353D
:105350000000000064656661756C745461736B00D5
:105360008053000800000020C4000000622F0008E5
:1053700044540008C40000202C1F0000722F0008B5
:1053800000000000000000000B1200000C440008A8
:105390000400000000000000000000000000000009
:1053A00000000000000000000000000000000000FD
:1053B00000000000000000000000000000000000ED
:1053C00000000000000000000100000010000000CC
:1053D0000000000000093D00000000000000000087
:1053E00000000000000000000000000000000000BD
:1053F00000000000000000000000000000000000AD
:10540000000000000000000000000000000000009C
:10541000000000000000000000000000000000008C
:10542000000000000000000000000000000000007C
:10543000000000000000000000000000AAAAAAAAC4
:045440000000000068
:040000050800018D61
:00000001FF
